{"contracts/EHMarketV2.sol":{"EHMarketV2":{"abi":[{"inputs":[],"stateMutability":"nonpayable","type":"constructor"},{"inputs":[],"name":"AccessControlBadConfirmation","type":"error"},{"inputs":[{"internalType":"address","name":"account","type":"address"},{"internalType":"bytes32","name":"neededRole","type":"bytes32"}],"name":"AccessControlUnauthorizedAccount","type":"error"},{"inputs":[],"name":"InvalidInitialization","type":"error"},{"inputs":[{"internalType":"uint256","name":"limit","type":"uint256"},{"internalType":"uint256","name":"userLimit","type":"uint256"},{"internalType":"uint16","name":"timeWindow","type":"uint16"}],"name":"InvalidWithdrawLimit","type":"error"},{"inputs":[],"name":"InvalidWithdrawLimitLength","type":"error"},{"inputs":[],"name":"NotInitializing","type":"error"},{"inputs":[{"internalType":"address","name":"token","type":"address"}],"name":"SafeERC20FailedOperation","type":"error"},{"inputs":[{"internalType":"uint256","name":"currentTotal","type":"uint256"},{"internalType":"uint256","name":"requestedAmount","type":"uint256"},{"internalType":"uint256","name":"configIndex","type":"uint256"}],"name":"TotalLimitExceeded","type":"error"},{"inputs":[],"name":"UnauthorizedSigner","type":"error"},{"inputs":[{"internalType":"uint256","name":"currentTotal","type":"uint256"},{"internalType":"uint256","name":"requestedAmount","type":"uint256"},{"internalType":"uint256","name":"configIndex","type":"uint256"}],"name":"UserLimitExceeded","type":"error"},{"anonymous":false,"inputs":[{"indexed":true,"internalType":"address","name":"delegator","type":"address"},{"indexed":true,"internalType":"address","name":"delegate","type":"address"},{"indexed":false,"internalType":"uint256","name":"allowance","type":"uint256"}],"name":"DelegateUpdated","type":"event"},{"anonymous":false,"inputs":[{"indexed":false,"internalType":"uint64","name":"version","type":"uint64"}],"name":"Initialized","type":"event"},{"anonymous":false,"inputs":[{"indexed":true,"internalType":"bytes32","name":"role","type":"bytes32"},{"indexed":true,"internalType":"bytes32","name":"previousAdminRole","type":"bytes32"},{"indexed":true,"internalType":"bytes32","name":"newAdminRole","type":"bytes32"}],"name":"RoleAdminChanged","type":"event"},{"anonymous":false,"inputs":[{"indexed":true,"internalType":"bytes32","name":"role","type":"bytes32"},{"indexed":true,"internalType":"address","name":"account","type":"address"},{"indexed":true,"internalType":"address","name":"sender","type":"address"}],"name":"RoleGranted","type":"event"},{"anonymous":false,"inputs":[{"indexed":true,"internalType":"bytes32","name":"role","type":"bytes32"},{"indexed":true,"internalType":"address","name":"account","type":"address"},{"indexed":true,"internalType":"address","name":"sender","type":"address"}],"name":"RoleRevoked","type":"event"},{"anonymous":false,"inputs":[{"indexed":true,"internalType":"address","name":"account","type":"address"},{"indexed":false,"internalType":"int256","name":"amount","type":"int256"},{"indexed":false,"internalType":"uint256","name":"requestId","type":"uint256"}],"name":"UserBalanceChanged","type":"event"},{"anonymous":false,"inputs":[{"components":[{"internalType":"uint256","name":"limit","type":"uint256"},{"internalType":"uint256","name":"userLimit","type":"uint256"},{"internalType":"uint16","name":"timeWindow","type":"uint16"}],"indexed":false,"internalType":"struct EHMarketV2.WithdrawLimit[]","name":"withdrawLimits","type":"tuple[]"}],"name":"WithdrawLimitsUpdated","type":"event"},{"inputs":[],"name":"DEFAULT_ADMIN_ROLE","outputs":[{"internalType":"bytes32","name":"","type":"bytes32"}],"stateMutability":"view","type":"function"},{"inputs":[],"name":"MATCHER_ROLE","outputs":[{"internalType":"bytes32","name":"","type":"bytes32"}],"stateMutability":"view","type":"function"},{"inputs":[],"name":"MAX_LIMIT_CONFIGS","outputs":[{"internalType":"uint256","name":"","type":"uint256"}],"stateMutability":"view","type":"function"},{"inputs":[],"name":"collateral","outputs":[{"internalType":"address","name":"","type":"address"}],"stateMutability":"view","type":"function"},{"inputs":[{"internalType":"uint256","name":"amount","type":"uint256"}],"name":"depositAsset","outputs":[],"stateMutability":"nonpayable","type":"function"},{"inputs":[{"internalType":"address","name":"to","type":"address"},{"internalType":"uint256","name":"amount","type":"uint256"}],"name":"depositAssetTo","outputs":[],"stateMutability":"nonpayable","type":"function"},{"inputs":[{"internalType":"address","name":"user","type":"address"}],"name":"getMaxWithdrawAmount","outputs":[{"internalType":"uint256","name":"maxAmount","type":"uint256"},{"internalType":"uint256","name":"limitingIndex","type":"uint256"},{"internalType":"bool","name":"isUserLimit","type":"bool"}],"stateMutability":"view","type":"function"},{"inputs":[{"internalType":"bytes32","name":"role","type":"bytes32"}],"name":"getRoleAdmin","outputs":[{"internalType":"bytes32","name":"","type":"bytes32"}],"stateMutability":"view","type":"function"},{"inputs":[{"internalType":"bytes32","name":"role","type":"bytes32"},{"internalType":"uint256","name":"index","type":"uint256"}],"name":"getRoleMember","outputs":[{"internalType":"address","name":"","type":"address"}],"stateMutability":"view","type":"function"},{"inputs":[{"internalType":"bytes32","name":"role","type":"bytes32"}],"name":"getRoleMemberCount","outputs":[{"internalType":"uint256","name":"","type":"uint256"}],"stateMutability":"view","type":"function"},{"inputs":[{"internalType":"bytes32","name":"role","type":"bytes32"}],"name":"getRoleMembers","outputs":[{"internalType":"address[]","name":"","type":"address[]"}],"stateMutability":"view","type":"function"},{"inputs":[{"internalType":"uint16","name":"_hours","type":"uint16"},{"internalType":"uint256","name":"timestamp","type":"uint256"}],"name":"getTotalWithdraw","outputs":[{"internalType":"uint256","name":"","type":"uint256"}],"stateMutability":"view","type":"function"},{"inputs":[{"internalType":"uint16","name":"_hours","type":"uint16"},{"internalType":"uint256","name":"timestamp","type":"uint256"},{"internalType":"address","name":"user","type":"address"}],"name":"getUserTotalWithdraw","outputs":[{"internalType":"uint256","name":"","type":"uint256"}],"stateMutability":"view","type":"function"},{"inputs":[{"internalType":"bytes32","name":"role","type":"bytes32"},{"internalType":"address","name":"account","type":"address"}],"name":"grantRole","outputs":[],"stateMutability":"nonpayable","type":"function"},{"inputs":[{"internalType":"bytes32","name":"role","type":"bytes32"},{"internalType":"address","name":"account","type":"address"}],"name":"hasRole","outputs":[{"internalType":"bool","name":"","type":"bool"}],"stateMutability":"view","type":"function"},{"inputs":[{"internalType":"uint256","name":"","type":"uint256"}],"name":"hourlyWithdrawals","outputs":[{"internalType":"uint256","name":"","type":"uint256"}],"stateMutability":"view","type":"function"},{"inputs":[{"internalType":"address[]","name":"_matchers","type":"address[]"},{"internalType":"address","name":"_collateral","type":"address"},{"components":[{"internalType":"uint256","name":"limit","type":"uint256"},{"internalType":"uint256","name":"userLimit","type":"uint256"},{"internalType":"uint16","name":"timeWindow","type":"uint16"}],"internalType":"struct EHMarketV2.WithdrawLimit[]","name":"_initialWithdrawLimits","type":"tuple[]"}],"name":"initialize","outputs":[],"stateMutability":"nonpayable","type":"function"},{"inputs":[{"internalType":"bytes32","name":"role","type":"bytes32"},{"internalType":"address","name":"callerConfirmation","type":"address"}],"name":"renounceRole","outputs":[],"stateMutability":"nonpayable","type":"function"},{"inputs":[{"internalType":"bytes32","name":"role","type":"bytes32"},{"internalType":"address","name":"account","type":"address"}],"name":"revokeRole","outputs":[],"stateMutability":"nonpayable","type":"function"},{"inputs":[{"internalType":"address","name":"delegate","type":"address"},{"internalType":"uint256","name":"allowance","type":"uint256"}],"name":"setDelegate","outputs":[],"stateMutability":"nonpayable","type":"function"},{"inputs":[{"components":[{"internalType":"uint256","name":"limit","type":"uint256"},{"internalType":"uint256","name":"userLimit","type":"uint256"},{"internalType":"uint16","name":"timeWindow","type":"uint16"}],"internalType":"struct EHMarketV2.WithdrawLimit[]","name":"_withdrawLimits","type":"tuple[]"}],"name":"setWithdrawLimits","outputs":[],"stateMutability":"nonpayable","type":"function"},{"inputs":[{"internalType":"bytes4","name":"interfaceId","type":"bytes4"}],"name":"supportsInterface","outputs":[{"internalType":"bool","name":"","type":"bool"}],"stateMutability":"view","type":"function"},{"inputs":[{"internalType":"uint256","name":"","type":"uint256"},{"internalType":"address","name":"","type":"address"}],"name":"userHourlyWithdrawals","outputs":[{"internalType":"uint256","name":"","type":"uint256"}],"stateMutability":"view","type":"function"},{"inputs":[{"internalType":"address","name":"from","type":"address"},{"internalType":"uint256","name":"amount","type":"uint256"},{"internalType":"uint256","name":"requestId","type":"uint256"}],"name":"withdrawAsset","outputs":[],"stateMutability":"nonpayable","type":"function"},{"inputs":[{"internalType":"uint256","name":"","type":"uint256"}],"name":"withdrawLimits","outputs":[{"internalType":"uint256","name":"limit","type":"uint256"},{"internalType":"uint256","name":"userLimit","type":"uint256"},{"internalType":"uint16","name":"timeWindow","type":"uint16"}],"stateMutability":"view","type":"function"}],"evm":{"bytecode":{"linkReferences":{},"object":"6080806040523460d2577ff0c57e16840df040f15088dc2f81fe391c3923bec73e23a9662efc9c229c6a005460ff8160401c1660c1576002600160401b03196001600160401b03821601605c575b604051611b5990816100d88239f35b6001600160401b0319166001600160401b039081177ff0c57e16840df040f15088dc2f81fe391c3923bec73e23a9662efc9c229c6a005581527fc7f505b2f371ae2175ee4913f4499e1f2633a7b5936321eed1cdaeb6115181d290602090a13880604d565b63f92ee8a960e01b60005260046000fd5b600080fdfe608080604052600436101561001357600080fd5b60003560e01c90816301ffc9a714610b945750806304f6d23e14610b4c5780630ce62bf214610b2557806321ff22d614610aed578063248a9ca314610acf5780632f2ff15d14610a9e57806330726c1814610a8257806336568abe14610a3c5780633d3a2459146109f7578063828271431461097e5780638aaa6b92146109595780639010d07c1461090557806391d14854146108ab578063a217fddf1461088f578063a3246ad3146107cd578063b1dab9481461061e578063b2194ff5146105e3578063ca15c873146105aa578063d547741f14610574578063d6a510d91461051d578063d8dfeb45146104f4578063e48da9c7146104c8578063e988a8bb146101a9578063fa2df4141461018a5763fd6e1a831461013257600080fd5b34610185576020366003190112610185576004356003548110156101855761015990610d45565b5080549061ffff6002600183015492015416906040519283526020830152604082015260608180030190f35b600080fd5b34610185576020366003190112610185576101a760043533611046565b005b346101855760603660031901126101855760043567ffffffffffffffff811161018557366023820112156101855780600401356101e581610c92565b916101f36040519384610c70565b8183526024602084019260051b8201019036821161018557602401915b8183106104a85783610220610c01565b60443567ffffffffffffffff811161018557610240903690600401610caa565b91600080516020611b04833981519152549260ff8460401c16159367ffffffffffffffff8116801590816104a0575b6001149081610496575b15908161048d575b5061047c5767ffffffffffffffff198116600117600080516020611b04833981519152558461044f575b5060ff600080516020611b048339815191525460401c161561043e576102d03361161b565b6103f8575b60005b8251811015610374576001906001600160a01b036102f682866110c7565b5116610301816116a9565b61030d575b50016102d8565b7fdf91394c13c48ebd5370100f1eb84afe3c6c47a78f9f9f874d5a9ec6afe0ae6b600052600080516020611a8483398151915260205261036d907f9fa5f5ebb43f5e5b68dc549bffd347e114a2de1747d0c4e936b58d7d895932ca61193f565b5086610306565b600080546001600160a01b0319166001600160a01b038616179055846103998361120e565b61039f57005b68ff000000000000000019600080516020611b048339815191525416600080516020611b04833981519152557fc7f505b2f371ae2175ee4913f4499e1f2633a7b5936321eed1cdaeb6115181d2602060405160018152a1005b60008052600080516020611a84833981519152602052610438337f615f0f9e84155bea8cc509fe18befeb1baf65611e38a6ba60964480fb29dfd4461193f565b506102d5565b631afcd79f60e31b60005260046000fd5b68ffffffffffffffffff19166801000000000000000117600080516020611b0483398151915255846102ab565b63f92ee8a960e01b60005260046000fd5b90501586610281565b303b159150610279565b86915061026f565b82356001600160a01b038116810361018557815260209283019201610210565b346101855760203660031901126101855760043560005260016020526020604060002054604051908152f35b34610185576000366003190112610185576000546040516001600160a01b039091168152602090f35b3461018557604036600319011261018557610536610c17565b60405160243581526001600160a01b039091169033907fe46208ae3c8157621e96e03a67b3fc7b61b734022b04cf097b94dd994dd95b4390602090a3005b34610185576040366003190112610185576101a7600435610593610c01565b906105a56105a082610f9e565b6110db565b61116d565b3461018557602036600319011261018557600435600052600080516020611a848339815191526020526020604060002054604051908152f35b346101855760003660031901126101855760206040517fdf91394c13c48ebd5370100f1eb84afe3c6c47a78f9f9f874d5a9ec6afe0ae6b8152f35b3461018557606036600319011261018557610637610c17565b3360009081527f80fc495aaaf8d17e3f0f01e98ecf2de6d37fa891873f4b915ab4b2f9b846a79a6020908152604080832054600080516020611ac4833981519152909252909120546024359160ff90811691168180156107c6575b156107b557816107ac575b50610746575b600160ff1b8114610730576101a79160018060a01b031690817f752cd0c4fe55d95cbe1325ebc6a35e473a741572f01a076425179f2421841bf8604080518460000381526044356020820152a260005460405163a9059cbb60e01b602082015260248101939093526044808401929092529082526001600160a01b031661072b606483610c70565b6118c0565b634e487b7160e01b600052601160045260246000fd5b610750828261152c565b61075e610e10420642610d81565b8060005260016020526040600020610777838254610d8e565b90556000526002602052604060002060018060a01b03831660005260205260406000206107a5828254610d8e565b90556106a3565b9050158361069d565b636518c33d60e11b60005260046000fd5b5080610692565b3461018557602036600319011261018557600435600052600080516020611a8483398151915260205260406000206040518060208354918281520190819360005260206000209060005b818110610879575050508161082d910382610c70565b6040519182916020830190602084525180915260408301919060005b818110610857575050500390f35b82516001600160a01b0316845285945060209384019390920191600101610849565b8254845260209093019260019283019201610817565b3461018557600036600319011261018557602060405160008152f35b34610185576040366003190112610185576108c4610c01565b600435600052600080516020611ae483398151915260205260406000209060018060a01b0316600052602052602060ff604060002054166040519015158152f35b3461018557604036600319011261018557600435600052600080516020611a8483398151915260205260206109406024356040600020611927565b905460405160039290921b1c6001600160a01b03168152f35b34610185576040366003190112610185576101a7610975610c17565b60243590611046565b346101855760203660031901126101855760043567ffffffffffffffff8111610185576109af903690600401610caa565b336000908152600080516020611ac4833981519152602052604090205460ff16156109dd576101a79061120e565b63e2517d3f60e01b60005233600452600060245260446000fd5b3461018557606036600319011261018557610a10610c2d565b604435906001600160a01b038216820361018557602091610a349160243590610fbf565b604051908152f35b3461018557604036600319011261018557610a55610c01565b336001600160a01b03821603610a71576101a79060043561116d565b63334bd91960e11b60005260046000fd5b3461018557600036600319011261018557602060405160148152f35b34610185576040366003190112610185576101a7600435610abd610c01565b90610aca6105a082610f9e565b611125565b34610185576020366003190112610185576020610a34600435610f9e565b34610185576020366003190112610185576060610b10610b0b610c17565b610e4b565b90604051928352602083015215156040820152f35b34610185576040366003190112610185576020610a34610b43610c2d565b60243590610d9b565b3461018557604036600319011261018557610b65610c01565b600435600052600260205260406000209060018060a01b03166000526020526020604060002054604051908152f35b34610185576020366003190112610185576004359063ffffffff60e01b821680920361018557602091635a05180f60e01b8114908115610bd6575b5015158152f35b637965db0b60e01b811491508115610bf0575b5083610bcf565b6301ffc9a760e01b14905083610be9565b602435906001600160a01b038216820361018557565b600435906001600160a01b038216820361018557565b6004359061ffff8216820361018557565b6060810190811067ffffffffffffffff821117610c5a57604052565b634e487b7160e01b600052604160045260246000fd5b90601f8019910116810190811067ffffffffffffffff821117610c5a57604052565b67ffffffffffffffff8111610c5a5760051b60200190565b81601f8201121561018557803590610cc182610c92565b92610ccf6040519485610c70565b8284526020606081860194028301019181831161018557602001925b828410610cf9575050505090565b6060848303126101855760405190610d1082610c3e565b843582526020850135602083015260408501359061ffff82168203610185578260209260406060950152815201930192610ceb565b600354811015610d6b57600360008181529102600080516020611aa48339815191520191565b634e487b7160e01b600052603260045260246000fd5b9190820391821161073057565b9190820180921161073057565b610dac600092610e10810690610d81565b82915b61ffff81168310610dc05750505090565b909192610e10840290848204610e10148515171561073057610dfe600191610deb61ffff9487610d81565b6000528260205260406000205490610d8e565b940192919050610daf565b90604051610e1681610c3e565b604061ffff600283958054855260018101546020860152015416910152565b9061ffff8091169116039061ffff821161073057565b60001991826000926003548015610f8e576000809260009060005b848110610e7857505050505050929190565b610e8a610e8482610d45565b50610e09565b9261ffff811680610e100290610e108204036107305761ffff97610ed6858a94610edc610ecb610ebd610ee29742610d81565b9260408c019e8f5116610e35565b9a610ed6838d610d9b565b90610d8e565b99610fbf565b9651169280519081861015610f7957602001908151881015610f645787610f0c87610f1393610d81565b9251610d81565b9080821015610f405750878110610f30575b506001905b01610e66565b9099506001985095508888610f25565b9050878110610f53575b50600190610f2a565b909950600098509550886001610f4a565b50509850505050505050905060009190600190565b50509850505050505050905060009190600090565b5090935060001992506000919050565b600052600080516020611ae483398151915260205260016040600020015490565b9091610fd2600093610e10810690610d81565b9183925b61ffff82168410610fe8575050505090565b90919293610e10850290858204610e1014861517156107305761103a60019161101461ffff9486610d81565b6000526002602052604080600020600090858060a01b038a168252602052205490610d8e565b95019392919050610fd6565b60408051838152600060208201526110c593926001600160a01b0316917f752cd0c4fe55d95cbe1325ebc6a35e473a741572f01a076425179f2421841bf891a26000546040516323b872dd60e01b60208201523360248201523060448201526064808201939093529182526001600160a01b031661072b608483610c70565b565b8051821015610d6b5760209160051b010190565b6000818152600080516020611ae48339815191526020908152604080832033845290915290205460ff161561110d5750565b63e2517d3f60e01b6000523360045260245260446000fd5b61112f8282611777565b918261113a57505090565b6000918252600080516020611a848339815191526020526040909120611169916001600160a01b03169061193f565b5090565b6111778282611820565b918261118257505090565b6000918252600080516020611a848339815191526020526040909120611169916001600160a01b0316906119b0565b60406020820191602081526003548093520190600360005260206000209060005b8181106111df5750505090565b825484526001808401546020860152600284015461ffff166040860152606090940193600390930192016111d2565b90601482511161151b576003546000600355806114cc575b5081511561149c57815115610d6b576020820190815180519081158015611490575b8015611480575b8015611473575b61144a57505060015b835181101561133f5761127281856110c7565b51805160001983019083821190816107305761128e83896110c7565b5151109182159261131d575b82156112f1575b505080156112e3575b6112b7575060010161125f565b80519061ffff6040602083015192015116916338af09bb60e11b60005260045260245260445260646000fd5b5080516020820151116112aa565b604084015161ffff1692509061073057604061131061ffff92896110c7565b51015116101538806112a1565b91505060208201516000906020611334848a6110c7565b51015110159161129a565b50915190600160401b8211610c5a57600354826003558083106113ec575b506003600052600080516020611aa48339815191526000915b8383106113b457505050507fb4f7fb15a3f27bb72f7ec353d6513cc033ba11934e1b4b9bdb7c020fc81c1628604051806113af816111b1565b0390a1565b60036020826001935180518655828101518587015561ffff6040600288019201511661ffff1982541617905501920192019190611376565b806003029060038204036107305782600302600381048403610730576003600052600080516020611aa483398151915291820191015b81811061142f575061135d565b60039060008155600060018201556000600282015501611422565b61ffff6040602083015192015116916338af09bb60e11b60005260045260245260445260646000fd5b5060208101518210611256565b5061ffff6040820151161561124f565b50602081015115611248565b90507fb4f7fb15a3f27bb72f7ec353d6513cc033ba11934e1b4b9bdb7c020fc81c1628604051806113af816111b1565b806003029060038204036107305760036000908152600080516020611aa4833981519152918201915b828110611503575050611226565b600390828155826001820155826002820155016114f5565b631025599160e01b60005260046000fd5b600354918215611616576000908180805b86811061154d5750505050505050565b611559610e8482610d45565b9461ffff831680610e100290610e108204036107305761ffff91610ed6876115846115a99442610d81565b6115a361159860408d0199888b5116610e35565b99610ed6838c610d9b565b98610fbf565b925116946115b78785610d8e565b8151106115f95760206115ca8885610d8e565b910151106115dd5760010193909361153d565b8582631e2315fb60e11b60005260045260245260445260646000fd5b50858363c8b1a34f60e01b60005260045260245260445260646000fd5b505050565b6001600160a01b0381166000908152600080516020611ac4833981519152602052604090205460ff166116a3576001600160a01b03166000818152600080516020611ac483398151915260205260408120805460ff191660011790553391907f2f8788117e7eff1d82e926ec794901d17c78024a50270940304540a733656f0d8180a4600190565b50600090565b6001600160a01b03811660009081527f80fc495aaaf8d17e3f0f01e98ecf2de6d37fa891873f4b915ab4b2f9b846a79a602052604090205460ff166116a3576001600160a01b031660008181527f80fc495aaaf8d17e3f0f01e98ecf2de6d37fa891873f4b915ab4b2f9b846a79a60205260408120805460ff191660011790553391907fdf91394c13c48ebd5370100f1eb84afe3c6c47a78f9f9f874d5a9ec6afe0ae6b907f2f8788117e7eff1d82e926ec794901d17c78024a50270940304540a733656f0d9080a4600190565b6000818152600080516020611ae4833981519152602090815260408083206001600160a01b038616845290915290205460ff16611819576000818152600080516020611ae4833981519152602090815260408083206001600160a01b0395909516808452949091528120805460ff19166001179055339291907f2f8788117e7eff1d82e926ec794901d17c78024a50270940304540a733656f0d9080a4600190565b5050600090565b6000818152600080516020611ae4833981519152602090815260408083206001600160a01b038616845290915290205460ff1615611819576000818152600080516020611ae4833981519152602090815260408083206001600160a01b0395909516808452949091528120805460ff19169055339291907ff6391f5c32d9c69d2a47ea670b442974b53935d1edc7fd64eb21e047a839171b9080a4600190565b906000602091828151910182855af11561191b576000513d61191257506001600160a01b0381163b155b6118f15750565b635274afe760e01b60009081526001600160a01b0391909116600452602490fd5b600114156118ea565b6040513d6000823e3d90fd5b8054821015610d6b5760005260206000200190600090565b60018101908260005281602052604060002054156000146119a8578054600160401b811015610c5a5761199361197c826001879401855584611927565b819391549060031b91821b91600019901b19161790565b90555491600052602052604060002055600190565b505050600090565b9060018201918160005282602052604060002054801515600014611a7a57600019810181811161073057825460001981019190821161073057818103611a43575b50505080548015611a2d576000190190611a0b8282611927565b8154906000199060031b1b191690555560005260205260006040812055600190565b634e487b7160e01b600052603160045260246000fd5b611a63611a5361197c9386611927565b90549060031b1c92839286611927565b9055600052836020526040600020553880806119f1565b5050505060009056fec1f6fe24621ce81ec5827caf0253cadb74709b061630e6b55e82371705932000c2575a0e9e593c00f959f8c92f12db2869c3395a3b0502d05e2516446f71f85bb7db2dd08fcb62d0c9e08c51941cae53c267786a0b75803fb7960902fc8ef97d02dd7bc7dec4dceedda775e58dd541e08a116c6c53815c0bd028192f7b626800f0c57e16840df040f15088dc2f81fe391c3923bec73e23a9662efc9c229c6a00a2646970667358221220f734a42d0371ab258864f48288817962910168634e352724afa0860a3b25e4f764736f6c634300081a0033","opcodes":"PUSH1 0x80 DUP1 PUSH1 0x40 MSTORE CALLVALUE PUSH1 0xD2 JUMPI PUSH32 0xF0C57E16840DF040F15088DC2F81FE391C3923BEC73E23A9662EFC9C229C6A00 SLOAD PUSH1 0xFF DUP2 PUSH1 0x40 SHR AND PUSH1 0xC1 JUMPI PUSH1 0x2 PUSH1 0x1 PUSH1 0x40 SHL SUB NOT PUSH1 0x1 PUSH1 0x1 PUSH1 0x40 SHL SUB DUP3 AND ADD PUSH1 0x5C JUMPI JUMPDEST PUSH1 0x40 MLOAD PUSH2 0x1B59 SWAP1 DUP2 PUSH2 0xD8 DUP3 CODECOPY RETURN JUMPDEST PUSH1 0x1 PUSH1 0x1 PUSH1 0x40 SHL SUB NOT AND PUSH1 0x1 PUSH1 0x1 PUSH1 0x40 SHL SUB SWAP1 DUP2 OR PUSH32 0xF0C57E16840DF040F15088DC2F81FE391C3923BEC73E23A9662EFC9C229C6A00 SSTORE DUP2 MSTORE PUSH32 0xC7F505B2F371AE2175EE4913F4499E1F2633A7B5936321EED1CDAEB6115181D2 SWAP1 PUSH1 0x20 SWAP1 LOG1 CODESIZE DUP1 PUSH1 0x4D JUMP JUMPDEST PUSH4 0xF92EE8A9 PUSH1 0xE0 SHL PUSH1 0x0 MSTORE PUSH1 0x4 PUSH1 0x0 REVERT JUMPDEST PUSH1 0x0 DUP1 REVERT INVALID PUSH1 0x80 DUP1 PUSH1 0x40 MSTORE PUSH1 0x4 CALLDATASIZE LT ISZERO PUSH2 0x13 JUMPI PUSH1 0x0 DUP1 REVERT JUMPDEST PUSH1 0x0 CALLDATALOAD PUSH1 0xE0 SHR SWAP1 DUP2 PUSH4 0x1FFC9A7 EQ PUSH2 0xB94 JUMPI POP DUP1 PUSH4 0x4F6D23E EQ PUSH2 0xB4C JUMPI DUP1 PUSH4 0xCE62BF2 EQ PUSH2 0xB25 JUMPI DUP1 PUSH4 0x21FF22D6 EQ PUSH2 0xAED JUMPI DUP1 PUSH4 0x248A9CA3 EQ PUSH2 0xACF JUMPI DUP1 PUSH4 0x2F2FF15D EQ PUSH2 0xA9E JUMPI DUP1 PUSH4 0x30726C18 EQ PUSH2 0xA82 JUMPI DUP1 PUSH4 0x36568ABE EQ PUSH2 0xA3C JUMPI DUP1 PUSH4 0x3D3A2459 EQ PUSH2 0x9F7 JUMPI DUP1 PUSH4 0x82827143 EQ PUSH2 0x97E JUMPI DUP1 PUSH4 0x8AAA6B92 EQ PUSH2 0x959 JUMPI DUP1 PUSH4 0x9010D07C EQ PUSH2 0x905 JUMPI DUP1 PUSH4 0x91D14854 EQ PUSH2 0x8AB JUMPI DUP1 PUSH4 0xA217FDDF EQ PUSH2 0x88F JUMPI DUP1 PUSH4 0xA3246AD3 EQ PUSH2 0x7CD JUMPI DUP1 PUSH4 0xB1DAB948 EQ PUSH2 0x61E JUMPI DUP1 PUSH4 0xB2194FF5 EQ PUSH2 0x5E3 JUMPI DUP1 PUSH4 0xCA15C873 EQ PUSH2 0x5AA JUMPI DUP1 PUSH4 0xD547741F EQ PUSH2 0x574 JUMPI DUP1 PUSH4 0xD6A510D9 EQ PUSH2 0x51D JUMPI DUP1 PUSH4 0xD8DFEB45 EQ PUSH2 0x4F4 JUMPI DUP1 PUSH4 0xE48DA9C7 EQ PUSH2 0x4C8 JUMPI DUP1 PUSH4 0xE988A8BB EQ PUSH2 0x1A9 JUMPI DUP1 PUSH4 0xFA2DF414 EQ PUSH2 0x18A JUMPI PUSH4 0xFD6E1A83 EQ PUSH2 0x132 JUMPI PUSH1 0x0 DUP1 REVERT JUMPDEST CALLVALUE PUSH2 0x185 JUMPI PUSH1 0x20 CALLDATASIZE PUSH1 0x3 NOT ADD SLT PUSH2 0x185 JUMPI PUSH1 0x4 CALLDATALOAD PUSH1 0x3 SLOAD DUP2 LT ISZERO PUSH2 0x185 JUMPI PUSH2 0x159 SWAP1 PUSH2 0xD45 JUMP JUMPDEST POP DUP1 SLOAD SWAP1 PUSH2 0xFFFF PUSH1 0x2 PUSH1 0x1 DUP4 ADD SLOAD SWAP3 ADD SLOAD AND SWAP1 PUSH1 0x40 MLOAD SWAP3 DUP4 MSTORE PUSH1 0x20 DUP4 ADD MSTORE PUSH1 0x40 DUP3 ADD MSTORE PUSH1 0x60 DUP2 DUP1 SUB ADD SWAP1 RETURN JUMPDEST PUSH1 0x0 DUP1 REVERT JUMPDEST CALLVALUE PUSH2 0x185 JUMPI PUSH1 0x20 CALLDATASIZE PUSH1 0x3 NOT ADD SLT PUSH2 0x185 JUMPI PUSH2 0x1A7 PUSH1 0x4 CALLDATALOAD CALLER PUSH2 0x1046 JUMP JUMPDEST STOP JUMPDEST CALLVALUE PUSH2 0x185 JUMPI PUSH1 0x60 CALLDATASIZE PUSH1 0x3 NOT ADD SLT PUSH2 0x185 JUMPI PUSH1 0x4 CALLDATALOAD PUSH8 0xFFFFFFFFFFFFFFFF DUP2 GT PUSH2 0x185 JUMPI CALLDATASIZE PUSH1 0x23 DUP3 ADD SLT ISZERO PUSH2 0x185 JUMPI DUP1 PUSH1 0x4 ADD CALLDATALOAD PUSH2 0x1E5 DUP2 PUSH2 0xC92 JUMP JUMPDEST SWAP2 PUSH2 0x1F3 PUSH1 0x40 MLOAD SWAP4 DUP5 PUSH2 0xC70 JUMP JUMPDEST DUP2 DUP4 MSTORE PUSH1 0x24 PUSH1 0x20 DUP5 ADD SWAP3 PUSH1 0x5 SHL DUP3 ADD ADD SWAP1 CALLDATASIZE DUP3 GT PUSH2 0x185 JUMPI PUSH1 0x24 ADD SWAP2 JUMPDEST DUP2 DUP4 LT PUSH2 0x4A8 JUMPI DUP4 PUSH2 0x220 PUSH2 0xC01 JUMP JUMPDEST PUSH1 0x44 CALLDATALOAD PUSH8 0xFFFFFFFFFFFFFFFF DUP2 GT PUSH2 0x185 JUMPI PUSH2 0x240 SWAP1 CALLDATASIZE SWAP1 PUSH1 0x4 ADD PUSH2 0xCAA JUMP JUMPDEST SWAP2 PUSH1 0x0 DUP1 MLOAD PUSH1 0x20 PUSH2 0x1B04 DUP4 CODECOPY DUP2 MLOAD SWAP2 MSTORE SLOAD SWAP3 PUSH1 0xFF DUP5 PUSH1 0x40 SHR AND ISZERO SWAP4 PUSH8 0xFFFFFFFFFFFFFFFF DUP2 AND DUP1 ISZERO SWAP1 DUP2 PUSH2 0x4A0 JUMPI JUMPDEST PUSH1 0x1 EQ SWAP1 DUP2 PUSH2 0x496 JUMPI JUMPDEST ISZERO SWAP1 DUP2 PUSH2 0x48D JUMPI JUMPDEST POP PUSH2 0x47C JUMPI PUSH8 0xFFFFFFFFFFFFFFFF NOT DUP2 AND PUSH1 0x1 OR PUSH1 0x0 DUP1 MLOAD PUSH1 0x20 PUSH2 0x1B04 DUP4 CODECOPY DUP2 MLOAD SWAP2 MSTORE SSTORE DUP5 PUSH2 0x44F JUMPI JUMPDEST POP PUSH1 0xFF PUSH1 0x0 DUP1 MLOAD PUSH1 0x20 PUSH2 0x1B04 DUP4 CODECOPY DUP2 MLOAD SWAP2 MSTORE SLOAD PUSH1 0x40 SHR AND ISZERO PUSH2 0x43E JUMPI PUSH2 0x2D0 CALLER PUSH2 0x161B JUMP JUMPDEST PUSH2 0x3F8 JUMPI JUMPDEST PUSH1 0x0 JUMPDEST DUP3 MLOAD DUP2 LT ISZERO PUSH2 0x374 JUMPI PUSH1 0x1 SWAP1 PUSH1 0x1 PUSH1 0x1 PUSH1 0xA0 SHL SUB PUSH2 0x2F6 DUP3 DUP7 PUSH2 0x10C7 JUMP JUMPDEST MLOAD AND PUSH2 0x301 DUP2 PUSH2 0x16A9 JUMP JUMPDEST PUSH2 0x30D JUMPI JUMPDEST POP ADD PUSH2 0x2D8 JUMP JUMPDEST PUSH32 0xDF91394C13C48EBD5370100F1EB84AFE3C6C47A78F9F9F874D5A9EC6AFE0AE6B PUSH1 0x0 MSTORE PUSH1 0x0 DUP1 MLOAD PUSH1 0x20 PUSH2 0x1A84 DUP4 CODECOPY DUP2 MLOAD SWAP2 MSTORE PUSH1 0x20 MSTORE PUSH2 0x36D SWAP1 PUSH32 0x9FA5F5EBB43F5E5B68DC549BFFD347E114A2DE1747D0C4E936B58D7D895932CA PUSH2 0x193F JUMP JUMPDEST POP DUP7 PUSH2 0x306 JUMP JUMPDEST PUSH1 0x0 DUP1 SLOAD PUSH1 0x1 PUSH1 0x1 PUSH1 0xA0 SHL SUB NOT AND PUSH1 0x1 PUSH1 0x1 PUSH1 0xA0 SHL SUB DUP7 AND OR SWAP1 SSTORE DUP5 PUSH2 0x399 DUP4 PUSH2 0x120E JUMP JUMPDEST PUSH2 0x39F JUMPI STOP JUMPDEST PUSH9 0xFF0000000000000000 NOT PUSH1 0x0 DUP1 MLOAD PUSH1 0x20 PUSH2 0x1B04 DUP4 CODECOPY DUP2 MLOAD SWAP2 MSTORE SLOAD AND PUSH1 0x0 DUP1 MLOAD PUSH1 0x20 PUSH2 0x1B04 DUP4 CODECOPY DUP2 MLOAD SWAP2 MSTORE SSTORE PUSH32 0xC7F505B2F371AE2175EE4913F4499E1F2633A7B5936321EED1CDAEB6115181D2 PUSH1 0x20 PUSH1 0x40 MLOAD PUSH1 0x1 DUP2 MSTORE LOG1 STOP JUMPDEST PUSH1 0x0 DUP1 MSTORE PUSH1 0x0 DUP1 MLOAD PUSH1 0x20 PUSH2 0x1A84 DUP4 CODECOPY DUP2 MLOAD SWAP2 MSTORE PUSH1 0x20 MSTORE PUSH2 0x438 CALLER PUSH32 0x615F0F9E84155BEA8CC509FE18BEFEB1BAF65611E38A6BA60964480FB29DFD44 PUSH2 0x193F JUMP JUMPDEST POP PUSH2 0x2D5 JUMP JUMPDEST PUSH4 0x1AFCD79F PUSH1 0xE3 SHL PUSH1 0x0 MSTORE PUSH1 0x4 PUSH1 0x0 REVERT JUMPDEST PUSH9 0xFFFFFFFFFFFFFFFFFF NOT AND PUSH9 0x10000000000000001 OR PUSH1 0x0 DUP1 MLOAD PUSH1 0x20 PUSH2 0x1B04 DUP4 CODECOPY DUP2 MLOAD SWAP2 MSTORE SSTORE DUP5 PUSH2 0x2AB JUMP JUMPDEST PUSH4 0xF92EE8A9 PUSH1 0xE0 SHL PUSH1 0x0 MSTORE PUSH1 0x4 PUSH1 0x0 REVERT JUMPDEST SWAP1 POP ISZERO DUP7 PUSH2 0x281 JUMP JUMPDEST ADDRESS EXTCODESIZE ISZERO SWAP2 POP PUSH2 0x279 JUMP JUMPDEST DUP7 SWAP2 POP PUSH2 0x26F JUMP JUMPDEST DUP3 CALLDATALOAD PUSH1 0x1 PUSH1 0x1 PUSH1 0xA0 SHL SUB DUP2 AND DUP2 SUB PUSH2 0x185 JUMPI DUP2 MSTORE PUSH1 0x20 SWAP3 DUP4 ADD SWAP3 ADD PUSH2 0x210 JUMP JUMPDEST CALLVALUE PUSH2 0x185 JUMPI PUSH1 0x20 CALLDATASIZE PUSH1 0x3 NOT ADD SLT PUSH2 0x185 JUMPI PUSH1 0x4 CALLDATALOAD PUSH1 0x0 MSTORE PUSH1 0x1 PUSH1 0x20 MSTORE PUSH1 0x20 PUSH1 0x40 PUSH1 0x0 KECCAK256 SLOAD PUSH1 0x40 MLOAD SWAP1 DUP2 MSTORE RETURN JUMPDEST CALLVALUE PUSH2 0x185 JUMPI PUSH1 0x0 CALLDATASIZE PUSH1 0x3 NOT ADD SLT PUSH2 0x185 JUMPI PUSH1 0x0 SLOAD PUSH1 0x40 MLOAD PUSH1 0x1 PUSH1 0x1 PUSH1 0xA0 SHL SUB SWAP1 SWAP2 AND DUP2 MSTORE PUSH1 0x20 SWAP1 RETURN JUMPDEST CALLVALUE PUSH2 0x185 JUMPI PUSH1 0x40 CALLDATASIZE PUSH1 0x3 NOT ADD SLT PUSH2 0x185 JUMPI PUSH2 0x536 PUSH2 0xC17 JUMP JUMPDEST PUSH1 0x40 MLOAD PUSH1 0x24 CALLDATALOAD DUP2 MSTORE PUSH1 0x1 PUSH1 0x1 PUSH1 0xA0 SHL SUB SWAP1 SWAP2 AND SWAP1 CALLER SWAP1 PUSH32 0xE46208AE3C8157621E96E03A67B3FC7B61B734022B04CF097B94DD994DD95B43 SWAP1 PUSH1 0x20 SWAP1 LOG3 STOP JUMPDEST CALLVALUE PUSH2 0x185 JUMPI PUSH1 0x40 CALLDATASIZE PUSH1 0x3 NOT ADD SLT PUSH2 0x185 JUMPI PUSH2 0x1A7 PUSH1 0x4 CALLDATALOAD PUSH2 0x593 PUSH2 0xC01 JUMP JUMPDEST SWAP1 PUSH2 0x5A5 PUSH2 0x5A0 DUP3 PUSH2 0xF9E JUMP JUMPDEST PUSH2 0x10DB JUMP JUMPDEST PUSH2 0x116D JUMP JUMPDEST CALLVALUE PUSH2 0x185 JUMPI PUSH1 0x20 CALLDATASIZE PUSH1 0x3 NOT ADD SLT PUSH2 0x185 JUMPI PUSH1 0x4 CALLDATALOAD PUSH1 0x0 MSTORE PUSH1 0x0 DUP1 MLOAD PUSH1 0x20 PUSH2 0x1A84 DUP4 CODECOPY DUP2 MLOAD SWAP2 MSTORE PUSH1 0x20 MSTORE PUSH1 0x20 PUSH1 0x40 PUSH1 0x0 KECCAK256 SLOAD PUSH1 0x40 MLOAD SWAP1 DUP2 MSTORE RETURN JUMPDEST CALLVALUE PUSH2 0x185 JUMPI PUSH1 0x0 CALLDATASIZE PUSH1 0x3 NOT ADD SLT PUSH2 0x185 JUMPI PUSH1 0x20 PUSH1 0x40 MLOAD PUSH32 0xDF91394C13C48EBD5370100F1EB84AFE3C6C47A78F9F9F874D5A9EC6AFE0AE6B DUP2 MSTORE RETURN JUMPDEST CALLVALUE PUSH2 0x185 JUMPI PUSH1 0x60 CALLDATASIZE PUSH1 0x3 NOT ADD SLT PUSH2 0x185 JUMPI PUSH2 0x637 PUSH2 0xC17 JUMP JUMPDEST CALLER PUSH1 0x0 SWAP1 DUP2 MSTORE PUSH32 0x80FC495AAAF8D17E3F0F01E98ECF2DE6D37FA891873F4B915AB4B2F9B846A79A PUSH1 0x20 SWAP1 DUP2 MSTORE PUSH1 0x40 DUP1 DUP4 KECCAK256 SLOAD PUSH1 0x0 DUP1 MLOAD PUSH1 0x20 PUSH2 0x1AC4 DUP4 CODECOPY DUP2 MLOAD SWAP2 MSTORE SWAP1 SWAP3 MSTORE SWAP1 SWAP2 KECCAK256 SLOAD PUSH1 0x24 CALLDATALOAD SWAP2 PUSH1 0xFF SWAP1 DUP2 AND SWAP2 AND DUP2 DUP1 ISZERO PUSH2 0x7C6 JUMPI JUMPDEST ISZERO PUSH2 0x7B5 JUMPI DUP2 PUSH2 0x7AC JUMPI JUMPDEST POP PUSH2 0x746 JUMPI JUMPDEST PUSH1 0x1 PUSH1 0xFF SHL DUP2 EQ PUSH2 0x730 JUMPI PUSH2 0x1A7 SWAP2 PUSH1 0x1 DUP1 PUSH1 0xA0 SHL SUB AND SWAP1 DUP2 PUSH32 0x752CD0C4FE55D95CBE1325EBC6A35E473A741572F01A076425179F2421841BF8 PUSH1 0x40 DUP1 MLOAD DUP5 PUSH1 0x0 SUB DUP2 MSTORE PUSH1 0x44 CALLDATALOAD PUSH1 0x20 DUP3 ADD MSTORE LOG2 PUSH1 0x0 SLOAD PUSH1 0x40 MLOAD PUSH4 0xA9059CBB PUSH1 0xE0 SHL PUSH1 0x20 DUP3 ADD MSTORE PUSH1 0x24 DUP2 ADD SWAP4 SWAP1 SWAP4 MSTORE PUSH1 0x44 DUP1 DUP5 ADD SWAP3 SWAP1 SWAP3 MSTORE SWAP1 DUP3 MSTORE PUSH1 0x1 PUSH1 0x1 PUSH1 0xA0 SHL SUB AND PUSH2 0x72B PUSH1 0x64 DUP4 PUSH2 0xC70 JUMP JUMPDEST PUSH2 0x18C0 JUMP JUMPDEST PUSH4 0x4E487B71 PUSH1 0xE0 SHL PUSH1 0x0 MSTORE PUSH1 0x11 PUSH1 0x4 MSTORE PUSH1 0x24 PUSH1 0x0 REVERT JUMPDEST PUSH2 0x750 DUP3 DUP3 PUSH2 0x152C JUMP JUMPDEST PUSH2 0x75E PUSH2 0xE10 TIMESTAMP MOD TIMESTAMP PUSH2 0xD81 JUMP JUMPDEST DUP1 PUSH1 0x0 MSTORE PUSH1 0x1 PUSH1 0x20 MSTORE PUSH1 0x40 PUSH1 0x0 KECCAK256 PUSH2 0x777 DUP4 DUP3 SLOAD PUSH2 0xD8E JUMP JUMPDEST SWAP1 SSTORE PUSH1 0x0 MSTORE PUSH1 0x2 PUSH1 0x20 MSTORE PUSH1 0x40 PUSH1 0x0 KECCAK256 PUSH1 0x1 DUP1 PUSH1 0xA0 SHL SUB DUP4 AND PUSH1 0x0 MSTORE PUSH1 0x20 MSTORE PUSH1 0x40 PUSH1 0x0 KECCAK256 PUSH2 0x7A5 DUP3 DUP3 SLOAD PUSH2 0xD8E JUMP JUMPDEST SWAP1 SSTORE PUSH2 0x6A3 JUMP JUMPDEST SWAP1 POP ISZERO DUP4 PUSH2 0x69D JUMP JUMPDEST PUSH4 0x6518C33D PUSH1 0xE1 SHL PUSH1 0x0 MSTORE PUSH1 0x4 PUSH1 0x0 REVERT JUMPDEST POP DUP1 PUSH2 0x692 JUMP JUMPDEST CALLVALUE PUSH2 0x185 JUMPI PUSH1 0x20 CALLDATASIZE PUSH1 0x3 NOT ADD SLT PUSH2 0x185 JUMPI PUSH1 0x4 CALLDATALOAD PUSH1 0x0 MSTORE PUSH1 0x0 DUP1 MLOAD PUSH1 0x20 PUSH2 0x1A84 DUP4 CODECOPY DUP2 MLOAD SWAP2 MSTORE PUSH1 0x20 MSTORE PUSH1 0x40 PUSH1 0x0 KECCAK256 PUSH1 0x40 MLOAD DUP1 PUSH1 0x20 DUP4 SLOAD SWAP2 DUP3 DUP2 MSTORE ADD SWAP1 DUP2 SWAP4 PUSH1 0x0 MSTORE PUSH1 0x20 PUSH1 0x0 KECCAK256 SWAP1 PUSH1 0x0 JUMPDEST DUP2 DUP2 LT PUSH2 0x879 JUMPI POP POP POP DUP2 PUSH2 0x82D SWAP2 SUB DUP3 PUSH2 0xC70 JUMP JUMPDEST PUSH1 0x40 MLOAD SWAP2 DUP3 SWAP2 PUSH1 0x20 DUP4 ADD SWAP1 PUSH1 0x20 DUP5 MSTORE MLOAD DUP1 SWAP2 MSTORE PUSH1 0x40 DUP4 ADD SWAP2 SWAP1 PUSH1 0x0 JUMPDEST DUP2 DUP2 LT PUSH2 0x857 JUMPI POP POP POP SUB SWAP1 RETURN JUMPDEST DUP3 MLOAD PUSH1 0x1 PUSH1 0x1 PUSH1 0xA0 SHL SUB AND DUP5 MSTORE DUP6 SWAP5 POP PUSH1 0x20 SWAP4 DUP5 ADD SWAP4 SWAP1 SWAP3 ADD SWAP2 PUSH1 0x1 ADD PUSH2 0x849 JUMP JUMPDEST DUP3 SLOAD DUP5 MSTORE PUSH1 0x20 SWAP1 SWAP4 ADD SWAP3 PUSH1 0x1 SWAP3 DUP4 ADD SWAP3 ADD PUSH2 0x817 JUMP JUMPDEST CALLVALUE PUSH2 0x185 JUMPI PUSH1 0x0 CALLDATASIZE PUSH1 0x3 NOT ADD SLT PUSH2 0x185 JUMPI PUSH1 0x20 PUSH1 0x40 MLOAD PUSH1 0x0 DUP2 MSTORE RETURN JUMPDEST CALLVALUE PUSH2 0x185 JUMPI PUSH1 0x40 CALLDATASIZE PUSH1 0x3 NOT ADD SLT PUSH2 0x185 JUMPI PUSH2 0x8C4 PUSH2 0xC01 JUMP JUMPDEST PUSH1 0x4 CALLDATALOAD PUSH1 0x0 MSTORE PUSH1 0x0 DUP1 MLOAD PUSH1 0x20 PUSH2 0x1AE4 DUP4 CODECOPY DUP2 MLOAD SWAP2 MSTORE PUSH1 0x20 MSTORE PUSH1 0x40 PUSH1 0x0 KECCAK256 SWAP1 PUSH1 0x1 DUP1 PUSH1 0xA0 SHL SUB AND PUSH1 0x0 MSTORE PUSH1 0x20 MSTORE PUSH1 0x20 PUSH1 0xFF PUSH1 0x40 PUSH1 0x0 KECCAK256 SLOAD AND PUSH1 0x40 MLOAD SWAP1 ISZERO ISZERO DUP2 MSTORE RETURN JUMPDEST CALLVALUE PUSH2 0x185 JUMPI PUSH1 0x40 CALLDATASIZE PUSH1 0x3 NOT ADD SLT PUSH2 0x185 JUMPI PUSH1 0x4 CALLDATALOAD PUSH1 0x0 MSTORE PUSH1 0x0 DUP1 MLOAD PUSH1 0x20 PUSH2 0x1A84 DUP4 CODECOPY DUP2 MLOAD SWAP2 MSTORE PUSH1 0x20 MSTORE PUSH1 0x20 PUSH2 0x940 PUSH1 0x24 CALLDATALOAD PUSH1 0x40 PUSH1 0x0 KECCAK256 PUSH2 0x1927 JUMP JUMPDEST SWAP1 SLOAD PUSH1 0x40 MLOAD PUSH1 0x3 SWAP3 SWAP1 SWAP3 SHL SHR PUSH1 0x1 PUSH1 0x1 PUSH1 0xA0 SHL SUB AND DUP2 MSTORE RETURN JUMPDEST CALLVALUE PUSH2 0x185 JUMPI PUSH1 0x40 CALLDATASIZE PUSH1 0x3 NOT ADD SLT PUSH2 0x185 JUMPI PUSH2 0x1A7 PUSH2 0x975 PUSH2 0xC17 JUMP JUMPDEST PUSH1 0x24 CALLDATALOAD SWAP1 PUSH2 0x1046 JUMP JUMPDEST CALLVALUE PUSH2 0x185 JUMPI PUSH1 0x20 CALLDATASIZE PUSH1 0x3 NOT ADD SLT PUSH2 0x185 JUMPI PUSH1 0x4 CALLDATALOAD PUSH8 0xFFFFFFFFFFFFFFFF DUP2 GT PUSH2 0x185 JUMPI PUSH2 0x9AF SWAP1 CALLDATASIZE SWAP1 PUSH1 0x4 ADD PUSH2 0xCAA JUMP JUMPDEST CALLER PUSH1 0x0 SWAP1 DUP2 MSTORE PUSH1 0x0 DUP1 MLOAD PUSH1 0x20 PUSH2 0x1AC4 DUP4 CODECOPY DUP2 MLOAD SWAP2 MSTORE PUSH1 0x20 MSTORE PUSH1 0x40 SWAP1 KECCAK256 SLOAD PUSH1 0xFF AND ISZERO PUSH2 0x9DD JUMPI PUSH2 0x1A7 SWAP1 PUSH2 0x120E JUMP JUMPDEST PUSH4 0xE2517D3F PUSH1 0xE0 SHL PUSH1 0x0 MSTORE CALLER PUSH1 0x4 MSTORE PUSH1 0x0 PUSH1 0x24 MSTORE PUSH1 0x44 PUSH1 0x0 REVERT JUMPDEST CALLVALUE PUSH2 0x185 JUMPI PUSH1 0x60 CALLDATASIZE PUSH1 0x3 NOT ADD SLT PUSH2 0x185 JUMPI PUSH2 0xA10 PUSH2 0xC2D JUMP JUMPDEST PUSH1 0x44 CALLDATALOAD SWAP1 PUSH1 0x1 PUSH1 0x1 PUSH1 0xA0 SHL SUB DUP3 AND DUP3 SUB PUSH2 0x185 JUMPI PUSH1 0x20 SWAP2 PUSH2 0xA34 SWAP2 PUSH1 0x24 CALLDATALOAD SWAP1 PUSH2 0xFBF JUMP JUMPDEST PUSH1 0x40 MLOAD SWAP1 DUP2 MSTORE RETURN JUMPDEST CALLVALUE PUSH2 0x185 JUMPI PUSH1 0x40 CALLDATASIZE PUSH1 0x3 NOT ADD SLT PUSH2 0x185 JUMPI PUSH2 0xA55 PUSH2 0xC01 JUMP JUMPDEST CALLER PUSH1 0x1 PUSH1 0x1 PUSH1 0xA0 SHL SUB DUP3 AND SUB PUSH2 0xA71 JUMPI PUSH2 0x1A7 SWAP1 PUSH1 0x4 CALLDATALOAD PUSH2 0x116D JUMP JUMPDEST PUSH4 0x334BD919 PUSH1 0xE1 SHL PUSH1 0x0 MSTORE PUSH1 0x4 PUSH1 0x0 REVERT JUMPDEST CALLVALUE PUSH2 0x185 JUMPI PUSH1 0x0 CALLDATASIZE PUSH1 0x3 NOT ADD SLT PUSH2 0x185 JUMPI PUSH1 0x20 PUSH1 0x40 MLOAD PUSH1 0x14 DUP2 MSTORE RETURN JUMPDEST CALLVALUE PUSH2 0x185 JUMPI PUSH1 0x40 CALLDATASIZE PUSH1 0x3 NOT ADD SLT PUSH2 0x185 JUMPI PUSH2 0x1A7 PUSH1 0x4 CALLDATALOAD PUSH2 0xABD PUSH2 0xC01 JUMP JUMPDEST SWAP1 PUSH2 0xACA PUSH2 0x5A0 DUP3 PUSH2 0xF9E JUMP JUMPDEST PUSH2 0x1125 JUMP JUMPDEST CALLVALUE PUSH2 0x185 JUMPI PUSH1 0x20 CALLDATASIZE PUSH1 0x3 NOT ADD SLT PUSH2 0x185 JUMPI PUSH1 0x20 PUSH2 0xA34 PUSH1 0x4 CALLDATALOAD PUSH2 0xF9E JUMP JUMPDEST CALLVALUE PUSH2 0x185 JUMPI PUSH1 0x20 CALLDATASIZE PUSH1 0x3 NOT ADD SLT PUSH2 0x185 JUMPI PUSH1 0x60 PUSH2 0xB10 PUSH2 0xB0B PUSH2 0xC17 JUMP JUMPDEST PUSH2 0xE4B JUMP JUMPDEST SWAP1 PUSH1 0x40 MLOAD SWAP3 DUP4 MSTORE PUSH1 0x20 DUP4 ADD MSTORE ISZERO ISZERO PUSH1 0x40 DUP3 ADD MSTORE RETURN JUMPDEST CALLVALUE PUSH2 0x185 JUMPI PUSH1 0x40 CALLDATASIZE PUSH1 0x3 NOT ADD SLT PUSH2 0x185 JUMPI PUSH1 0x20 PUSH2 0xA34 PUSH2 0xB43 PUSH2 0xC2D JUMP JUMPDEST PUSH1 0x24 CALLDATALOAD SWAP1 PUSH2 0xD9B JUMP JUMPDEST CALLVALUE PUSH2 0x185 JUMPI PUSH1 0x40 CALLDATASIZE PUSH1 0x3 NOT ADD SLT PUSH2 0x185 JUMPI PUSH2 0xB65 PUSH2 0xC01 JUMP JUMPDEST PUSH1 0x4 CALLDATALOAD PUSH1 0x0 MSTORE PUSH1 0x2 PUSH1 0x20 MSTORE PUSH1 0x40 PUSH1 0x0 KECCAK256 SWAP1 PUSH1 0x1 DUP1 PUSH1 0xA0 SHL SUB AND PUSH1 0x0 MSTORE PUSH1 0x20 MSTORE PUSH1 0x20 PUSH1 0x40 PUSH1 0x0 KECCAK256 SLOAD PUSH1 0x40 MLOAD SWAP1 DUP2 MSTORE RETURN JUMPDEST CALLVALUE PUSH2 0x185 JUMPI PUSH1 0x20 CALLDATASIZE PUSH1 0x3 NOT ADD SLT PUSH2 0x185 JUMPI PUSH1 0x4 CALLDATALOAD SWAP1 PUSH4 0xFFFFFFFF PUSH1 0xE0 SHL DUP3 AND DUP1 SWAP3 SUB PUSH2 0x185 JUMPI PUSH1 0x20 SWAP2 PUSH4 0x5A05180F PUSH1 0xE0 SHL DUP2 EQ SWAP1 DUP2 ISZERO PUSH2 0xBD6 JUMPI JUMPDEST POP ISZERO ISZERO DUP2 MSTORE RETURN JUMPDEST PUSH4 0x7965DB0B PUSH1 0xE0 SHL DUP2 EQ SWAP2 POP DUP2 ISZERO PUSH2 0xBF0 JUMPI JUMPDEST POP DUP4 PUSH2 0xBCF JUMP JUMPDEST PUSH4 0x1FFC9A7 PUSH1 0xE0 SHL EQ SWAP1 POP DUP4 PUSH2 0xBE9 JUMP JUMPDEST PUSH1 0x24 CALLDATALOAD SWAP1 PUSH1 0x1 PUSH1 0x1 PUSH1 0xA0 SHL SUB DUP3 AND DUP3 SUB PUSH2 0x185 JUMPI JUMP JUMPDEST PUSH1 0x4 CALLDATALOAD SWAP1 PUSH1 0x1 PUSH1 0x1 PUSH1 0xA0 SHL SUB DUP3 AND DUP3 SUB PUSH2 0x185 JUMPI JUMP JUMPDEST PUSH1 0x4 CALLDATALOAD SWAP1 PUSH2 0xFFFF DUP3 AND DUP3 SUB PUSH2 0x185 JUMPI JUMP JUMPDEST PUSH1 0x60 DUP2 ADD SWAP1 DUP2 LT PUSH8 0xFFFFFFFFFFFFFFFF DUP3 GT OR PUSH2 0xC5A JUMPI PUSH1 0x40 MSTORE JUMP JUMPDEST PUSH4 0x4E487B71 PUSH1 0xE0 SHL PUSH1 0x0 MSTORE PUSH1 0x41 PUSH1 0x4 MSTORE PUSH1 0x24 PUSH1 0x0 REVERT JUMPDEST SWAP1 PUSH1 0x1F DUP1 NOT SWAP2 ADD AND DUP2 ADD SWAP1 DUP2 LT PUSH8 0xFFFFFFFFFFFFFFFF DUP3 GT OR PUSH2 0xC5A JUMPI PUSH1 0x40 MSTORE JUMP JUMPDEST PUSH8 0xFFFFFFFFFFFFFFFF DUP2 GT PUSH2 0xC5A JUMPI PUSH1 0x5 SHL PUSH1 0x20 ADD SWAP1 JUMP JUMPDEST DUP2 PUSH1 0x1F DUP3 ADD SLT ISZERO PUSH2 0x185 JUMPI DUP1 CALLDATALOAD SWAP1 PUSH2 0xCC1 DUP3 PUSH2 0xC92 JUMP JUMPDEST SWAP3 PUSH2 0xCCF PUSH1 0x40 MLOAD SWAP5 DUP6 PUSH2 0xC70 JUMP JUMPDEST DUP3 DUP5 MSTORE PUSH1 0x20 PUSH1 0x60 DUP2 DUP7 ADD SWAP5 MUL DUP4 ADD ADD SWAP2 DUP2 DUP4 GT PUSH2 0x185 JUMPI PUSH1 0x20 ADD SWAP3 JUMPDEST DUP3 DUP5 LT PUSH2 0xCF9 JUMPI POP POP POP POP SWAP1 JUMP JUMPDEST PUSH1 0x60 DUP5 DUP4 SUB SLT PUSH2 0x185 JUMPI PUSH1 0x40 MLOAD SWAP1 PUSH2 0xD10 DUP3 PUSH2 0xC3E JUMP JUMPDEST DUP5 CALLDATALOAD DUP3 MSTORE PUSH1 0x20 DUP6 ADD CALLDATALOAD PUSH1 0x20 DUP4 ADD MSTORE PUSH1 0x40 DUP6 ADD CALLDATALOAD SWAP1 PUSH2 0xFFFF DUP3 AND DUP3 SUB PUSH2 0x185 JUMPI DUP3 PUSH1 0x20 SWAP3 PUSH1 0x40 PUSH1 0x60 SWAP6 ADD MSTORE DUP2 MSTORE ADD SWAP4 ADD SWAP3 PUSH2 0xCEB JUMP JUMPDEST PUSH1 0x3 SLOAD DUP2 LT ISZERO PUSH2 0xD6B JUMPI PUSH1 0x3 PUSH1 0x0 DUP2 DUP2 MSTORE SWAP2 MUL PUSH1 0x0 DUP1 MLOAD PUSH1 0x20 PUSH2 0x1AA4 DUP4 CODECOPY DUP2 MLOAD SWAP2 MSTORE ADD SWAP2 JUMP JUMPDEST PUSH4 0x4E487B71 PUSH1 0xE0 SHL PUSH1 0x0 MSTORE PUSH1 0x32 PUSH1 0x4 MSTORE PUSH1 0x24 PUSH1 0x0 REVERT JUMPDEST SWAP2 SWAP1 DUP3 SUB SWAP2 DUP3 GT PUSH2 0x730 JUMPI JUMP JUMPDEST SWAP2 SWAP1 DUP3 ADD DUP1 SWAP3 GT PUSH2 0x730 JUMPI JUMP JUMPDEST PUSH2 0xDAC PUSH1 0x0 SWAP3 PUSH2 0xE10 DUP2 MOD SWAP1 PUSH2 0xD81 JUMP JUMPDEST DUP3 SWAP2 JUMPDEST PUSH2 0xFFFF DUP2 AND DUP4 LT PUSH2 0xDC0 JUMPI POP POP POP SWAP1 JUMP JUMPDEST SWAP1 SWAP2 SWAP3 PUSH2 0xE10 DUP5 MUL SWAP1 DUP5 DUP3 DIV PUSH2 0xE10 EQ DUP6 ISZERO OR ISZERO PUSH2 0x730 JUMPI PUSH2 0xDFE PUSH1 0x1 SWAP2 PUSH2 0xDEB PUSH2 0xFFFF SWAP5 DUP8 PUSH2 0xD81 JUMP JUMPDEST PUSH1 0x0 MSTORE DUP3 PUSH1 0x20 MSTORE PUSH1 0x40 PUSH1 0x0 KECCAK256 SLOAD SWAP1 PUSH2 0xD8E JUMP JUMPDEST SWAP5 ADD SWAP3 SWAP2 SWAP1 POP PUSH2 0xDAF JUMP JUMPDEST SWAP1 PUSH1 0x40 MLOAD PUSH2 0xE16 DUP2 PUSH2 0xC3E JUMP JUMPDEST PUSH1 0x40 PUSH2 0xFFFF PUSH1 0x2 DUP4 SWAP6 DUP1 SLOAD DUP6 MSTORE PUSH1 0x1 DUP2 ADD SLOAD PUSH1 0x20 DUP7 ADD MSTORE ADD SLOAD AND SWAP2 ADD MSTORE JUMP JUMPDEST SWAP1 PUSH2 0xFFFF DUP1 SWAP2 AND SWAP2 AND SUB SWAP1 PUSH2 0xFFFF DUP3 GT PUSH2 0x730 JUMPI JUMP JUMPDEST PUSH1 0x0 NOT SWAP2 DUP3 PUSH1 0x0 SWAP3 PUSH1 0x3 SLOAD DUP1 ISZERO PUSH2 0xF8E JUMPI PUSH1 0x0 DUP1 SWAP3 PUSH1 0x0 SWAP1 PUSH1 0x0 JUMPDEST DUP5 DUP2 LT PUSH2 0xE78 JUMPI POP POP POP POP POP POP SWAP3 SWAP2 SWAP1 JUMP JUMPDEST PUSH2 0xE8A PUSH2 0xE84 DUP3 PUSH2 0xD45 JUMP JUMPDEST POP PUSH2 0xE09 JUMP JUMPDEST SWAP3 PUSH2 0xFFFF DUP2 AND DUP1 PUSH2 0xE10 MUL SWAP1 PUSH2 0xE10 DUP3 DIV SUB PUSH2 0x730 JUMPI PUSH2 0xFFFF SWAP8 PUSH2 0xED6 DUP6 DUP11 SWAP5 PUSH2 0xEDC PUSH2 0xECB PUSH2 0xEBD PUSH2 0xEE2 SWAP8 TIMESTAMP PUSH2 0xD81 JUMP JUMPDEST SWAP3 PUSH1 0x40 DUP13 ADD SWAP15 DUP16 MLOAD AND PUSH2 0xE35 JUMP JUMPDEST SWAP11 PUSH2 0xED6 DUP4 DUP14 PUSH2 0xD9B JUMP JUMPDEST SWAP1 PUSH2 0xD8E JUMP JUMPDEST SWAP10 PUSH2 0xFBF JUMP JUMPDEST SWAP7 MLOAD AND SWAP3 DUP1 MLOAD SWAP1 DUP2 DUP7 LT ISZERO PUSH2 0xF79 JUMPI PUSH1 0x20 ADD SWAP1 DUP2 MLOAD DUP9 LT ISZERO PUSH2 0xF64 JUMPI DUP8 PUSH2 0xF0C DUP8 PUSH2 0xF13 SWAP4 PUSH2 0xD81 JUMP JUMPDEST SWAP3 MLOAD PUSH2 0xD81 JUMP JUMPDEST SWAP1 DUP1 DUP3 LT ISZERO PUSH2 0xF40 JUMPI POP DUP8 DUP2 LT PUSH2 0xF30 JUMPI JUMPDEST POP PUSH1 0x1 SWAP1 JUMPDEST ADD PUSH2 0xE66 JUMP JUMPDEST SWAP1 SWAP10 POP PUSH1 0x1 SWAP9 POP SWAP6 POP DUP9 DUP9 PUSH2 0xF25 JUMP JUMPDEST SWAP1 POP DUP8 DUP2 LT PUSH2 0xF53 JUMPI JUMPDEST POP PUSH1 0x1 SWAP1 PUSH2 0xF2A JUMP JUMPDEST SWAP1 SWAP10 POP PUSH1 0x0 SWAP9 POP SWAP6 POP DUP9 PUSH1 0x1 PUSH2 0xF4A JUMP JUMPDEST POP POP SWAP9 POP POP POP POP POP POP POP SWAP1 POP PUSH1 0x0 SWAP2 SWAP1 PUSH1 0x1 SWAP1 JUMP JUMPDEST POP POP SWAP9 POP POP POP POP POP POP POP SWAP1 POP PUSH1 0x0 SWAP2 SWAP1 PUSH1 0x0 SWAP1 JUMP JUMPDEST POP SWAP1 SWAP4 POP PUSH1 0x0 NOT SWAP3 POP PUSH1 0x0 SWAP2 SWAP1 POP JUMP JUMPDEST PUSH1 0x0 MSTORE PUSH1 0x0 DUP1 MLOAD PUSH1 0x20 PUSH2 0x1AE4 DUP4 CODECOPY DUP2 MLOAD SWAP2 MSTORE PUSH1 0x20 MSTORE PUSH1 0x1 PUSH1 0x40 PUSH1 0x0 KECCAK256 ADD SLOAD SWAP1 JUMP JUMPDEST SWAP1 SWAP2 PUSH2 0xFD2 PUSH1 0x0 SWAP4 PUSH2 0xE10 DUP2 MOD SWAP1 PUSH2 0xD81 JUMP JUMPDEST SWAP2 DUP4 SWAP3 JUMPDEST PUSH2 0xFFFF DUP3 AND DUP5 LT PUSH2 0xFE8 JUMPI POP POP POP POP SWAP1 JUMP JUMPDEST SWAP1 SWAP2 SWAP3 SWAP4 PUSH2 0xE10 DUP6 MUL SWAP1 DUP6 DUP3 DIV PUSH2 0xE10 EQ DUP7 ISZERO OR ISZERO PUSH2 0x730 JUMPI PUSH2 0x103A PUSH1 0x1 SWAP2 PUSH2 0x1014 PUSH2 0xFFFF SWAP5 DUP7 PUSH2 0xD81 JUMP JUMPDEST PUSH1 0x0 MSTORE PUSH1 0x2 PUSH1 0x20 MSTORE PUSH1 0x40 DUP1 PUSH1 0x0 KECCAK256 PUSH1 0x0 SWAP1 DUP6 DUP1 PUSH1 0xA0 SHL SUB DUP11 AND DUP3 MSTORE PUSH1 0x20 MSTORE KECCAK256 SLOAD SWAP1 PUSH2 0xD8E JUMP JUMPDEST SWAP6 ADD SWAP4 SWAP3 SWAP2 SWAP1 POP PUSH2 0xFD6 JUMP JUMPDEST PUSH1 0x40 DUP1 MLOAD DUP4 DUP2 MSTORE PUSH1 0x0 PUSH1 0x20 DUP3 ADD MSTORE PUSH2 0x10C5 SWAP4 SWAP3 PUSH1 0x1 PUSH1 0x1 PUSH1 0xA0 SHL SUB AND SWAP2 PUSH32 0x752CD0C4FE55D95CBE1325EBC6A35E473A741572F01A076425179F2421841BF8 SWAP2 LOG2 PUSH1 0x0 SLOAD PUSH1 0x40 MLOAD PUSH4 0x23B872DD PUSH1 0xE0 SHL PUSH1 0x20 DUP3 ADD MSTORE CALLER PUSH1 0x24 DUP3 ADD MSTORE ADDRESS PUSH1 0x44 DUP3 ADD MSTORE PUSH1 0x64 DUP1 DUP3 ADD SWAP4 SWAP1 SWAP4 MSTORE SWAP2 DUP3 MSTORE PUSH1 0x1 PUSH1 0x1 PUSH1 0xA0 SHL SUB AND PUSH2 0x72B PUSH1 0x84 DUP4 PUSH2 0xC70 JUMP JUMPDEST JUMP JUMPDEST DUP1 MLOAD DUP3 LT ISZERO PUSH2 0xD6B JUMPI PUSH1 0x20 SWAP2 PUSH1 0x5 SHL ADD ADD SWAP1 JUMP JUMPDEST PUSH1 0x0 DUP2 DUP2 MSTORE PUSH1 0x0 DUP1 MLOAD PUSH1 0x20 PUSH2 0x1AE4 DUP4 CODECOPY DUP2 MLOAD SWAP2 MSTORE PUSH1 0x20 SWAP1 DUP2 MSTORE PUSH1 0x40 DUP1 DUP4 KECCAK256 CALLER DUP5 MSTORE SWAP1 SWAP2 MSTORE SWAP1 KECCAK256 SLOAD PUSH1 0xFF AND ISZERO PUSH2 0x110D JUMPI POP JUMP JUMPDEST PUSH4 0xE2517D3F PUSH1 0xE0 SHL PUSH1 0x0 MSTORE CALLER PUSH1 0x4 MSTORE PUSH1 0x24 MSTORE PUSH1 0x44 PUSH1 0x0 REVERT JUMPDEST PUSH2 0x112F DUP3 DUP3 PUSH2 0x1777 JUMP JUMPDEST SWAP2 DUP3 PUSH2 0x113A JUMPI POP POP SWAP1 JUMP JUMPDEST PUSH1 0x0 SWAP2 DUP3 MSTORE PUSH1 0x0 DUP1 MLOAD PUSH1 0x20 PUSH2 0x1A84 DUP4 CODECOPY DUP2 MLOAD SWAP2 MSTORE PUSH1 0x20 MSTORE PUSH1 0x40 SWAP1 SWAP2 KECCAK256 PUSH2 0x1169 SWAP2 PUSH1 0x1 PUSH1 0x1 PUSH1 0xA0 SHL SUB AND SWAP1 PUSH2 0x193F JUMP JUMPDEST POP SWAP1 JUMP JUMPDEST PUSH2 0x1177 DUP3 DUP3 PUSH2 0x1820 JUMP JUMPDEST SWAP2 DUP3 PUSH2 0x1182 JUMPI POP POP SWAP1 JUMP JUMPDEST PUSH1 0x0 SWAP2 DUP3 MSTORE PUSH1 0x0 DUP1 MLOAD PUSH1 0x20 PUSH2 0x1A84 DUP4 CODECOPY DUP2 MLOAD SWAP2 MSTORE PUSH1 0x20 MSTORE PUSH1 0x40 SWAP1 SWAP2 KECCAK256 PUSH2 0x1169 SWAP2 PUSH1 0x1 PUSH1 0x1 PUSH1 0xA0 SHL SUB AND SWAP1 PUSH2 0x19B0 JUMP JUMPDEST PUSH1 0x40 PUSH1 0x20 DUP3 ADD SWAP2 PUSH1 0x20 DUP2 MSTORE PUSH1 0x3 SLOAD DUP1 SWAP4 MSTORE ADD SWAP1 PUSH1 0x3 PUSH1 0x0 MSTORE PUSH1 0x20 PUSH1 0x0 KECCAK256 SWAP1 PUSH1 0x0 JUMPDEST DUP2 DUP2 LT PUSH2 0x11DF JUMPI POP POP POP SWAP1 JUMP JUMPDEST DUP3 SLOAD DUP5 MSTORE PUSH1 0x1 DUP1 DUP5 ADD SLOAD PUSH1 0x20 DUP7 ADD MSTORE PUSH1 0x2 DUP5 ADD SLOAD PUSH2 0xFFFF AND PUSH1 0x40 DUP7 ADD MSTORE PUSH1 0x60 SWAP1 SWAP5 ADD SWAP4 PUSH1 0x3 SWAP1 SWAP4 ADD SWAP3 ADD PUSH2 0x11D2 JUMP JUMPDEST SWAP1 PUSH1 0x14 DUP3 MLOAD GT PUSH2 0x151B JUMPI PUSH1 0x3 SLOAD PUSH1 0x0 PUSH1 0x3 SSTORE DUP1 PUSH2 0x14CC JUMPI JUMPDEST POP DUP2 MLOAD ISZERO PUSH2 0x149C JUMPI DUP2 MLOAD ISZERO PUSH2 0xD6B JUMPI PUSH1 0x20 DUP3 ADD SWAP1 DUP2 MLOAD DUP1 MLOAD SWAP1 DUP2 ISZERO DUP1 ISZERO PUSH2 0x1490 JUMPI JUMPDEST DUP1 ISZERO PUSH2 0x1480 JUMPI JUMPDEST DUP1 ISZERO PUSH2 0x1473 JUMPI JUMPDEST PUSH2 0x144A JUMPI POP POP PUSH1 0x1 JUMPDEST DUP4 MLOAD DUP2 LT ISZERO PUSH2 0x133F JUMPI PUSH2 0x1272 DUP2 DUP6 PUSH2 0x10C7 JUMP JUMPDEST MLOAD DUP1 MLOAD PUSH1 0x0 NOT DUP4 ADD SWAP1 DUP4 DUP3 GT SWAP1 DUP2 PUSH2 0x730 JUMPI PUSH2 0x128E DUP4 DUP10 PUSH2 0x10C7 JUMP JUMPDEST MLOAD MLOAD LT SWAP2 DUP3 ISZERO SWAP3 PUSH2 0x131D JUMPI JUMPDEST DUP3 ISZERO PUSH2 0x12F1 JUMPI JUMPDEST POP POP DUP1 ISZERO PUSH2 0x12E3 JUMPI JUMPDEST PUSH2 0x12B7 JUMPI POP PUSH1 0x1 ADD PUSH2 0x125F JUMP JUMPDEST DUP1 MLOAD SWAP1 PUSH2 0xFFFF PUSH1 0x40 PUSH1 0x20 DUP4 ADD MLOAD SWAP3 ADD MLOAD AND SWAP2 PUSH4 0x38AF09BB PUSH1 0xE1 SHL PUSH1 0x0 MSTORE PUSH1 0x4 MSTORE PUSH1 0x24 MSTORE PUSH1 0x44 MSTORE PUSH1 0x64 PUSH1 0x0 REVERT JUMPDEST POP DUP1 MLOAD PUSH1 0x20 DUP3 ADD MLOAD GT PUSH2 0x12AA JUMP JUMPDEST PUSH1 0x40 DUP5 ADD MLOAD PUSH2 0xFFFF AND SWAP3 POP SWAP1 PUSH2 0x730 JUMPI PUSH1 0x40 PUSH2 0x1310 PUSH2 0xFFFF SWAP3 DUP10 PUSH2 0x10C7 JUMP JUMPDEST MLOAD ADD MLOAD AND LT ISZERO CODESIZE DUP1 PUSH2 0x12A1 JUMP JUMPDEST SWAP2 POP POP PUSH1 0x20 DUP3 ADD MLOAD PUSH1 0x0 SWAP1 PUSH1 0x20 PUSH2 0x1334 DUP5 DUP11 PUSH2 0x10C7 JUMP JUMPDEST MLOAD ADD MLOAD LT ISZERO SWAP2 PUSH2 0x129A JUMP JUMPDEST POP SWAP2 MLOAD SWAP1 PUSH1 0x1 PUSH1 0x40 SHL DUP3 GT PUSH2 0xC5A JUMPI PUSH1 0x3 SLOAD DUP3 PUSH1 0x3 SSTORE DUP1 DUP4 LT PUSH2 0x13EC JUMPI JUMPDEST POP PUSH1 0x3 PUSH1 0x0 MSTORE PUSH1 0x0 DUP1 MLOAD PUSH1 0x20 PUSH2 0x1AA4 DUP4 CODECOPY DUP2 MLOAD SWAP2 MSTORE PUSH1 0x0 SWAP2 JUMPDEST DUP4 DUP4 LT PUSH2 0x13B4 JUMPI POP POP POP POP PUSH32 0xB4F7FB15A3F27BB72F7EC353D6513CC033BA11934E1B4B9BDB7C020FC81C1628 PUSH1 0x40 MLOAD DUP1 PUSH2 0x13AF DUP2 PUSH2 0x11B1 JUMP JUMPDEST SUB SWAP1 LOG1 JUMP JUMPDEST PUSH1 0x3 PUSH1 0x20 DUP3 PUSH1 0x1 SWAP4 MLOAD DUP1 MLOAD DUP7 SSTORE DUP3 DUP2 ADD MLOAD DUP6 DUP8 ADD SSTORE PUSH2 0xFFFF PUSH1 0x40 PUSH1 0x2 DUP9 ADD SWAP3 ADD MLOAD AND PUSH2 0xFFFF NOT DUP3 SLOAD AND OR SWAP1 SSTORE ADD SWAP3 ADD SWAP3 ADD SWAP2 SWAP1 PUSH2 0x1376 JUMP JUMPDEST DUP1 PUSH1 0x3 MUL SWAP1 PUSH1 0x3 DUP3 DIV SUB PUSH2 0x730 JUMPI DUP3 PUSH1 0x3 MUL PUSH1 0x3 DUP2 DIV DUP5 SUB PUSH2 0x730 JUMPI PUSH1 0x3 PUSH1 0x0 MSTORE PUSH1 0x0 DUP1 MLOAD PUSH1 0x20 PUSH2 0x1AA4 DUP4 CODECOPY DUP2 MLOAD SWAP2 MSTORE SWAP2 DUP3 ADD SWAP2 ADD JUMPDEST DUP2 DUP2 LT PUSH2 0x142F JUMPI POP PUSH2 0x135D JUMP JUMPDEST PUSH1 0x3 SWAP1 PUSH1 0x0 DUP2 SSTORE PUSH1 0x0 PUSH1 0x1 DUP3 ADD SSTORE PUSH1 0x0 PUSH1 0x2 DUP3 ADD SSTORE ADD PUSH2 0x1422 JUMP JUMPDEST PUSH2 0xFFFF PUSH1 0x40 PUSH1 0x20 DUP4 ADD MLOAD SWAP3 ADD MLOAD AND SWAP2 PUSH4 0x38AF09BB PUSH1 0xE1 SHL PUSH1 0x0 MSTORE PUSH1 0x4 MSTORE PUSH1 0x24 MSTORE PUSH1 0x44 MSTORE PUSH1 0x64 PUSH1 0x0 REVERT JUMPDEST POP PUSH1 0x20 DUP2 ADD MLOAD DUP3 LT PUSH2 0x1256 JUMP JUMPDEST POP PUSH2 0xFFFF PUSH1 0x40 DUP3 ADD MLOAD AND ISZERO PUSH2 0x124F JUMP JUMPDEST POP PUSH1 0x20 DUP2 ADD MLOAD ISZERO PUSH2 0x1248 JUMP JUMPDEST SWAP1 POP PUSH32 0xB4F7FB15A3F27BB72F7EC353D6513CC033BA11934E1B4B9BDB7C020FC81C1628 PUSH1 0x40 MLOAD DUP1 PUSH2 0x13AF DUP2 PUSH2 0x11B1 JUMP JUMPDEST DUP1 PUSH1 0x3 MUL SWAP1 PUSH1 0x3 DUP3 DIV SUB PUSH2 0x730 JUMPI PUSH1 0x3 PUSH1 0x0 SWAP1 DUP2 MSTORE PUSH1 0x0 DUP1 MLOAD PUSH1 0x20 PUSH2 0x1AA4 DUP4 CODECOPY DUP2 MLOAD SWAP2 MSTORE SWAP2 DUP3 ADD SWAP2 JUMPDEST DUP3 DUP2 LT PUSH2 0x1503 JUMPI POP POP PUSH2 0x1226 JUMP JUMPDEST PUSH1 0x3 SWAP1 DUP3 DUP2 SSTORE DUP3 PUSH1 0x1 DUP3 ADD SSTORE DUP3 PUSH1 0x2 DUP3 ADD SSTORE ADD PUSH2 0x14F5 JUMP JUMPDEST PUSH4 0x10255991 PUSH1 0xE0 SHL PUSH1 0x0 MSTORE PUSH1 0x4 PUSH1 0x0 REVERT JUMPDEST PUSH1 0x3 SLOAD SWAP2 DUP3 ISZERO PUSH2 0x1616 JUMPI PUSH1 0x0 SWAP1 DUP2 DUP1 DUP1 JUMPDEST DUP7 DUP2 LT PUSH2 0x154D JUMPI POP POP POP POP POP POP POP JUMP JUMPDEST PUSH2 0x1559 PUSH2 0xE84 DUP3 PUSH2 0xD45 JUMP JUMPDEST SWAP5 PUSH2 0xFFFF DUP4 AND DUP1 PUSH2 0xE10 MUL SWAP1 PUSH2 0xE10 DUP3 DIV SUB PUSH2 0x730 JUMPI PUSH2 0xFFFF SWAP2 PUSH2 0xED6 DUP8 PUSH2 0x1584 PUSH2 0x15A9 SWAP5 TIMESTAMP PUSH2 0xD81 JUMP JUMPDEST PUSH2 0x15A3 PUSH2 0x1598 PUSH1 0x40 DUP14 ADD SWAP10 DUP9 DUP12 MLOAD AND PUSH2 0xE35 JUMP JUMPDEST SWAP10 PUSH2 0xED6 DUP4 DUP13 PUSH2 0xD9B JUMP JUMPDEST SWAP9 PUSH2 0xFBF JUMP JUMPDEST SWAP3 MLOAD AND SWAP5 PUSH2 0x15B7 DUP8 DUP6 PUSH2 0xD8E JUMP JUMPDEST DUP2 MLOAD LT PUSH2 0x15F9 JUMPI PUSH1 0x20 PUSH2 0x15CA DUP9 DUP6 PUSH2 0xD8E JUMP JUMPDEST SWAP2 ADD MLOAD LT PUSH2 0x15DD JUMPI PUSH1 0x1 ADD SWAP4 SWAP1 SWAP4 PUSH2 0x153D JUMP JUMPDEST DUP6 DUP3 PUSH4 0x1E2315FB PUSH1 0xE1 SHL PUSH1 0x0 MSTORE PUSH1 0x4 MSTORE PUSH1 0x24 MSTORE PUSH1 0x44 MSTORE PUSH1 0x64 PUSH1 0x0 REVERT JUMPDEST POP DUP6 DUP4 PUSH4 0xC8B1A34F PUSH1 0xE0 SHL PUSH1 0x0 MSTORE PUSH1 0x4 MSTORE PUSH1 0x24 MSTORE PUSH1 0x44 MSTORE PUSH1 0x64 PUSH1 0x0 REVERT JUMPDEST POP POP POP JUMP JUMPDEST PUSH1 0x1 PUSH1 0x1 PUSH1 0xA0 SHL SUB DUP2 AND PUSH1 0x0 SWAP1 DUP2 MSTORE PUSH1 0x0 DUP1 MLOAD PUSH1 0x20 PUSH2 0x1AC4 DUP4 CODECOPY DUP2 MLOAD SWAP2 MSTORE PUSH1 0x20 MSTORE PUSH1 0x40 SWAP1 KECCAK256 SLOAD PUSH1 0xFF AND PUSH2 0x16A3 JUMPI PUSH1 0x1 PUSH1 0x1 PUSH1 0xA0 SHL SUB AND PUSH1 0x0 DUP2 DUP2 MSTORE PUSH1 0x0 DUP1 MLOAD PUSH1 0x20 PUSH2 0x1AC4 DUP4 CODECOPY DUP2 MLOAD SWAP2 MSTORE PUSH1 0x20 MSTORE PUSH1 0x40 DUP2 KECCAK256 DUP1 SLOAD PUSH1 0xFF NOT AND PUSH1 0x1 OR SWAP1 SSTORE CALLER SWAP2 SWAP1 PUSH32 0x2F8788117E7EFF1D82E926EC794901D17C78024A50270940304540A733656F0D DUP2 DUP1 LOG4 PUSH1 0x1 SWAP1 JUMP JUMPDEST POP PUSH1 0x0 SWAP1 JUMP JUMPDEST PUSH1 0x1 PUSH1 0x1 PUSH1 0xA0 SHL SUB DUP2 AND PUSH1 0x0 SWAP1 DUP2 MSTORE PUSH32 0x80FC495AAAF8D17E3F0F01E98ECF2DE6D37FA891873F4B915AB4B2F9B846A79A PUSH1 0x20 MSTORE PUSH1 0x40 SWAP1 KECCAK256 SLOAD PUSH1 0xFF AND PUSH2 0x16A3 JUMPI PUSH1 0x1 PUSH1 0x1 PUSH1 0xA0 SHL SUB AND PUSH1 0x0 DUP2 DUP2 MSTORE PUSH32 0x80FC495AAAF8D17E3F0F01E98ECF2DE6D37FA891873F4B915AB4B2F9B846A79A PUSH1 0x20 MSTORE PUSH1 0x40 DUP2 KECCAK256 DUP1 SLOAD PUSH1 0xFF NOT AND PUSH1 0x1 OR SWAP1 SSTORE CALLER SWAP2 SWAP1 PUSH32 0xDF91394C13C48EBD5370100F1EB84AFE3C6C47A78F9F9F874D5A9EC6AFE0AE6B SWAP1 PUSH32 0x2F8788117E7EFF1D82E926EC794901D17C78024A50270940304540A733656F0D SWAP1 DUP1 LOG4 PUSH1 0x1 SWAP1 JUMP JUMPDEST PUSH1 0x0 DUP2 DUP2 MSTORE PUSH1 0x0 DUP1 MLOAD PUSH1 0x20 PUSH2 0x1AE4 DUP4 CODECOPY DUP2 MLOAD SWAP2 MSTORE PUSH1 0x20 SWAP1 DUP2 MSTORE PUSH1 0x40 DUP1 DUP4 KECCAK256 PUSH1 0x1 PUSH1 0x1 PUSH1 0xA0 SHL SUB DUP7 AND DUP5 MSTORE SWAP1 SWAP2 MSTORE SWAP1 KECCAK256 SLOAD PUSH1 0xFF AND PUSH2 0x1819 JUMPI PUSH1 0x0 DUP2 DUP2 MSTORE PUSH1 0x0 DUP1 MLOAD PUSH1 0x20 PUSH2 0x1AE4 DUP4 CODECOPY DUP2 MLOAD SWAP2 MSTORE PUSH1 0x20 SWAP1 DUP2 MSTORE PUSH1 0x40 DUP1 DUP4 KECCAK256 PUSH1 0x1 PUSH1 0x1 PUSH1 0xA0 SHL SUB SWAP6 SWAP1 SWAP6 AND DUP1 DUP5 MSTORE SWAP5 SWAP1 SWAP2 MSTORE DUP2 KECCAK256 DUP1 SLOAD PUSH1 0xFF NOT AND PUSH1 0x1 OR SWAP1 SSTORE CALLER SWAP3 SWAP2 SWAP1 PUSH32 0x2F8788117E7EFF1D82E926EC794901D17C78024A50270940304540A733656F0D SWAP1 DUP1 LOG4 PUSH1 0x1 SWAP1 JUMP JUMPDEST POP POP PUSH1 0x0 SWAP1 JUMP JUMPDEST PUSH1 0x0 DUP2 DUP2 MSTORE PUSH1 0x0 DUP1 MLOAD PUSH1 0x20 PUSH2 0x1AE4 DUP4 CODECOPY DUP2 MLOAD SWAP2 MSTORE PUSH1 0x20 SWAP1 DUP2 MSTORE PUSH1 0x40 DUP1 DUP4 KECCAK256 PUSH1 0x1 PUSH1 0x1 PUSH1 0xA0 SHL SUB DUP7 AND DUP5 MSTORE SWAP1 SWAP2 MSTORE SWAP1 KECCAK256 SLOAD PUSH1 0xFF AND ISZERO PUSH2 0x1819 JUMPI PUSH1 0x0 DUP2 DUP2 MSTORE PUSH1 0x0 DUP1 MLOAD PUSH1 0x20 PUSH2 0x1AE4 DUP4 CODECOPY DUP2 MLOAD SWAP2 MSTORE PUSH1 0x20 SWAP1 DUP2 MSTORE PUSH1 0x40 DUP1 DUP4 KECCAK256 PUSH1 0x1 PUSH1 0x1 PUSH1 0xA0 SHL SUB SWAP6 SWAP1 SWAP6 AND DUP1 DUP5 MSTORE SWAP5 SWAP1 SWAP2 MSTORE DUP2 KECCAK256 DUP1 SLOAD PUSH1 0xFF NOT AND SWAP1 SSTORE CALLER SWAP3 SWAP2 SWAP1 PUSH32 0xF6391F5C32D9C69D2A47EA670B442974B53935D1EDC7FD64EB21E047A839171B SWAP1 DUP1 LOG4 PUSH1 0x1 SWAP1 JUMP JUMPDEST SWAP1 PUSH1 0x0 PUSH1 0x20 SWAP2 DUP3 DUP2 MLOAD SWAP2 ADD DUP3 DUP6 GAS CALL ISZERO PUSH2 0x191B JUMPI PUSH1 0x0 MLOAD RETURNDATASIZE PUSH2 0x1912 JUMPI POP PUSH1 0x1 PUSH1 0x1 PUSH1 0xA0 SHL SUB DUP2 AND EXTCODESIZE ISZERO JUMPDEST PUSH2 0x18F1 JUMPI POP JUMP JUMPDEST PUSH4 0x5274AFE7 PUSH1 0xE0 SHL PUSH1 0x0 SWAP1 DUP2 MSTORE PUSH1 0x1 PUSH1 0x1 PUSH1 0xA0 SHL SUB SWAP2 SWAP1 SWAP2 AND PUSH1 0x4 MSTORE PUSH1 0x24 SWAP1 REVERT JUMPDEST PUSH1 0x1 EQ ISZERO PUSH2 0x18EA JUMP JUMPDEST PUSH1 0x40 MLOAD RETURNDATASIZE PUSH1 0x0 DUP3 RETURNDATACOPY RETURNDATASIZE SWAP1 REVERT JUMPDEST DUP1 SLOAD DUP3 LT ISZERO PUSH2 0xD6B JUMPI PUSH1 0x0 MSTORE PUSH1 0x20 PUSH1 0x0 KECCAK256 ADD SWAP1 PUSH1 0x0 SWAP1 JUMP JUMPDEST PUSH1 0x1 DUP2 ADD SWAP1 DUP3 PUSH1 0x0 MSTORE DUP2 PUSH1 0x20 MSTORE PUSH1 0x40 PUSH1 0x0 KECCAK256 SLOAD ISZERO PUSH1 0x0 EQ PUSH2 0x19A8 JUMPI DUP1 SLOAD PUSH1 0x1 PUSH1 0x40 SHL DUP2 LT ISZERO PUSH2 0xC5A JUMPI PUSH2 0x1993 PUSH2 0x197C DUP3 PUSH1 0x1 DUP8 SWAP5 ADD DUP6 SSTORE DUP5 PUSH2 0x1927 JUMP JUMPDEST DUP2 SWAP4 SWAP2 SLOAD SWAP1 PUSH1 0x3 SHL SWAP2 DUP3 SHL SWAP2 PUSH1 0x0 NOT SWAP1 SHL NOT AND OR SWAP1 JUMP JUMPDEST SWAP1 SSTORE SLOAD SWAP2 PUSH1 0x0 MSTORE PUSH1 0x20 MSTORE PUSH1 0x40 PUSH1 0x0 KECCAK256 SSTORE PUSH1 0x1 SWAP1 JUMP JUMPDEST POP POP POP PUSH1 0x0 SWAP1 JUMP JUMPDEST SWAP1 PUSH1 0x1 DUP3 ADD SWAP2 DUP2 PUSH1 0x0 MSTORE DUP3 PUSH1 0x20 MSTORE PUSH1 0x40 PUSH1 0x0 KECCAK256 SLOAD DUP1 ISZERO ISZERO PUSH1 0x0 EQ PUSH2 0x1A7A JUMPI PUSH1 0x0 NOT DUP2 ADD DUP2 DUP2 GT PUSH2 0x730 JUMPI DUP3 SLOAD PUSH1 0x0 NOT DUP2 ADD SWAP2 SWAP1 DUP3 GT PUSH2 0x730 JUMPI DUP2 DUP2 SUB PUSH2 0x1A43 JUMPI JUMPDEST POP POP POP DUP1 SLOAD DUP1 ISZERO PUSH2 0x1A2D JUMPI PUSH1 0x0 NOT ADD SWAP1 PUSH2 0x1A0B DUP3 DUP3 PUSH2 0x1927 JUMP JUMPDEST DUP2 SLOAD SWAP1 PUSH1 0x0 NOT SWAP1 PUSH1 0x3 SHL SHL NOT AND SWAP1 SSTORE SSTORE PUSH1 0x0 MSTORE PUSH1 0x20 MSTORE PUSH1 0x0 PUSH1 0x40 DUP2 KECCAK256 SSTORE PUSH1 0x1 SWAP1 JUMP JUMPDEST PUSH4 0x4E487B71 PUSH1 0xE0 SHL PUSH1 0x0 MSTORE PUSH1 0x31 PUSH1 0x4 MSTORE PUSH1 0x24 PUSH1 0x0 REVERT JUMPDEST PUSH2 0x1A63 PUSH2 0x1A53 PUSH2 0x197C SWAP4 DUP7 PUSH2 0x1927 JUMP JUMPDEST SWAP1 SLOAD SWAP1 PUSH1 0x3 SHL SHR SWAP3 DUP4 SWAP3 DUP7 PUSH2 0x1927 JUMP JUMPDEST SWAP1 SSTORE PUSH1 0x0 MSTORE DUP4 PUSH1 0x20 MSTORE PUSH1 0x40 PUSH1 0x0 KECCAK256 SSTORE CODESIZE DUP1 DUP1 PUSH2 0x19F1 JUMP JUMPDEST POP POP POP POP PUSH1 0x0 SWAP1 JUMP INVALID 0xC1 0xF6 INVALID 0x24 PUSH3 0x1CE81E 0xC5 DUP3 PUSH29 0xAF0253CADB74709B061630E6B55E82371705932000C2575A0E9E593C00 0xF9 MSIZE 0xF8 0xC9 0x2F SLT 0xDB 0x28 PUSH10 0xC3395A3B0502D05E2516 PREVRANDAO PUSH16 0x71F85BB7DB2DD08FCB62D0C9E08C5194 SHR 0xAE MSTORE8 0xC2 PUSH8 0x786A0B75803FB796 MULMOD MUL 0xFC DUP15 0xF9 PUSH30 0x2DD7BC7DEC4DCEEDDA775E58DD541E08A116C6C53815C0BD028192F7B62 PUSH9 0xF0C57E16840DF040 CALL POP DUP9 0xDC 0x2F DUP2 INVALID CODECOPY SHR CODECOPY 0x23 0xBE 0xC7 RETURNDATACOPY 0x23 0xA9 PUSH7 0x2EFC9C229C6A00 LOG2 PUSH5 0x6970667358 0x22 SLT KECCAK256 0xF7 CALLVALUE LOG4 0x2D SUB PUSH18 0xAB258864F48288817962910168634E352724 0xAF LOG0 DUP7 EXP EXTCODESIZE 0x25 0xE4 0xF7 PUSH5 0x736F6C6343 STOP ADDMOD BYTE STOP CALLER "},"methodIdentifiers":{"DEFAULT_ADMIN_ROLE()":"a217fddf","MATCHER_ROLE()":"b2194ff5","MAX_LIMIT_CONFIGS()":"30726c18","collateral()":"d8dfeb45","depositAsset(uint256)":"fa2df414","depositAssetTo(address,uint256)":"8aaa6b92","getMaxWithdrawAmount(address)":"21ff22d6","getRoleAdmin(bytes32)":"248a9ca3","getRoleMember(bytes32,uint256)":"9010d07c","getRoleMemberCount(bytes32)":"ca15c873","getRoleMembers(bytes32)":"a3246ad3","getTotalWithdraw(uint16,uint256)":"0ce62bf2","getUserTotalWithdraw(uint16,uint256,address)":"3d3a2459","grantRole(bytes32,address)":"2f2ff15d","hasRole(bytes32,address)":"91d14854","hourlyWithdrawals(uint256)":"e48da9c7","initialize(address[],address,(uint256,uint256,uint16)[])":"e988a8bb","renounceRole(bytes32,address)":"36568abe","revokeRole(bytes32,address)":"d547741f","setDelegate(address,uint256)":"d6a510d9","setWithdrawLimits((uint256,uint256,uint16)[])":"82827143","supportsInterface(bytes4)":"01ffc9a7","userHourlyWithdrawals(uint256,address)":"04f6d23e","withdrawAsset(address,uint256,uint256)":"b1dab948","withdrawLimits(uint256)":"fd6e1a83"}},"storageLayout":{"storage":[{"astId":7073,"contract":"contracts/EHMarketV2.sol:EHMarketV2","label":"collateral","offset":0,"slot":"0","type":"t_address"},{"astId":7080,"contract":"contracts/EHMarketV2.sol:EHMarketV2","label":"hourlyWithdrawals","offset":0,"slot":"1","type":"t_mapping(t_uint256,t_uint256)"},{"astId":7086,"contract":"contracts/EHMarketV2.sol:EHMarketV2","label":"userHourlyWithdrawals","offset":0,"slot":"2","type":"t_mapping(t_uint256,t_mapping(t_address,t_uint256))"},{"astId":7090,"contract":"contracts/EHMarketV2.sol:EHMarketV2","label":"withdrawLimits","offset":0,"slot":"3","type":"t_array(t_struct(WithdrawLimit)7016_storage)dyn_storage"},{"astId":7095,"contract":"contracts/EHMarketV2.sol:EHMarketV2","label":"__gap","offset":0,"slot":"4","type":"t_array(t_uint256)10_storage"}],"types":{"t_address":{"encoding":"inplace","label":"address","numberOfBytes":"20"},"t_array(t_struct(WithdrawLimit)7016_storage)dyn_storage":{"base":"t_struct(WithdrawLimit)7016_storage","encoding":"dynamic_array","label":"struct EHMarketV2.WithdrawLimit[]","numberOfBytes":"32"},"t_array(t_uint256)10_storage":{"base":"t_uint256","encoding":"inplace","label":"uint256[10]","numberOfBytes":"320"},"t_mapping(t_address,t_uint256)":{"encoding":"mapping","key":"t_address","label":"mapping(address => uint256)","numberOfBytes":"32","value":"t_uint256"},"t_mapping(t_uint256,t_mapping(t_address,t_uint256))":{"encoding":"mapping","key":"t_uint256","label":"mapping(uint256 => mapping(address => uint256))","numberOfBytes":"32","value":"t_mapping(t_address,t_uint256)"},"t_mapping(t_uint256,t_uint256)":{"encoding":"mapping","key":"t_uint256","label":"mapping(uint256 => uint256)","numberOfBytes":"32","value":"t_uint256"},"t_struct(WithdrawLimit)7016_storage":{"encoding":"inplace","label":"struct EHMarketV2.WithdrawLimit","members":[{"astId":7009,"contract":"contracts/EHMarketV2.sol:EHMarketV2","label":"limit","offset":0,"slot":"0","type":"t_uint256"},{"astId":7012,"contract":"contracts/EHMarketV2.sol:EHMarketV2","label":"userLimit","offset":0,"slot":"1","type":"t_uint256"},{"astId":7015,"contract":"contracts/EHMarketV2.sol:EHMarketV2","label":"timeWindow","offset":0,"slot":"2","type":"t_uint16"}],"numberOfBytes":"96"},"t_uint16":{"encoding":"inplace","label":"uint16","numberOfBytes":"2"},"t_uint256":{"encoding":"inplace","label":"uint256","numberOfBytes":"32"}}}}}}