{
  "_format": "hh-sol-artifact-1",
  "contractName": "EHMarketV2",
  "sourceName": "contracts/EHMarketV2.sol",
  "abi": [
    {
      "inputs": [],
      "stateMutability": "nonpayable",
      "type": "constructor"
    },
    {
      "inputs": [],
      "name": "AccessControlBadConfirmation",
      "type": "error"
    },
    {
      "inputs": [
        {
          "internalType": "address",
          "name": "account",
          "type": "address"
        },
        {
          "internalType": "bytes32",
          "name": "neededRole",
          "type": "bytes32"
        }
      ],
      "name": "AccessControlUnauthorizedAccount",
      "type": "error"
    },
    {
      "inputs": [
        {
          "internalType": "uint16",
          "name": "timeWindow",
          "type": "uint16"
        }
      ],
      "name": "DuplicateWithdrawLimit",
      "type": "error"
    },
    {
      "inputs": [],
      "name": "InvalidInitialization",
      "type": "error"
    },
    {
      "inputs": [
        {
          "internalType": "uint256",
          "name": "limit",
          "type": "uint256"
        },
        {
          "internalType": "uint256",
          "name": "userLimit",
          "type": "uint256"
        },
        {
          "internalType": "uint16",
          "name": "timeWindow",
          "type": "uint16"
        }
      ],
      "name": "InvalidWithdrawLimit",
      "type": "error"
    },
    {
      "inputs": [],
      "name": "InvalidWithdrawLimitLength",
      "type": "error"
    },
    {
      "inputs": [],
      "name": "NotInitializing",
      "type": "error"
    },
    {
      "inputs": [
        {
          "internalType": "address",
          "name": "token",
          "type": "address"
        }
      ],
      "name": "SafeERC20FailedOperation",
      "type": "error"
    },
    {
      "inputs": [
        {
          "internalType": "uint256",
          "name": "currentTotal",
          "type": "uint256"
        },
        {
          "internalType": "uint256",
          "name": "requestedAmount",
          "type": "uint256"
        },
        {
          "internalType": "uint256",
          "name": "configIndex",
          "type": "uint256"
        }
      ],
      "name": "TotalLimitExceeded",
      "type": "error"
    },
    {
      "inputs": [],
      "name": "UnauthorizedSigner",
      "type": "error"
    },
    {
      "inputs": [
        {
          "internalType": "uint256",
          "name": "currentTotal",
          "type": "uint256"
        },
        {
          "internalType": "uint256",
          "name": "requestedAmount",
          "type": "uint256"
        },
        {
          "internalType": "uint256",
          "name": "configIndex",
          "type": "uint256"
        }
      ],
      "name": "UserLimitExceeded",
      "type": "error"
    },
    {
      "anonymous": false,
      "inputs": [
        {
          "indexed": true,
          "internalType": "address",
          "name": "delegator",
          "type": "address"
        },
        {
          "indexed": true,
          "internalType": "address",
          "name": "delegate",
          "type": "address"
        },
        {
          "indexed": false,
          "internalType": "uint256",
          "name": "allowance",
          "type": "uint256"
        }
      ],
      "name": "DelegateUpdated",
      "type": "event"
    },
    {
      "anonymous": false,
      "inputs": [
        {
          "indexed": false,
          "internalType": "uint64",
          "name": "version",
          "type": "uint64"
        }
      ],
      "name": "Initialized",
      "type": "event"
    },
    {
      "anonymous": false,
      "inputs": [
        {
          "indexed": true,
          "internalType": "bytes32",
          "name": "role",
          "type": "bytes32"
        },
        {
          "indexed": true,
          "internalType": "bytes32",
          "name": "previousAdminRole",
          "type": "bytes32"
        },
        {
          "indexed": true,
          "internalType": "bytes32",
          "name": "newAdminRole",
          "type": "bytes32"
        }
      ],
      "name": "RoleAdminChanged",
      "type": "event"
    },
    {
      "anonymous": false,
      "inputs": [
        {
          "indexed": true,
          "internalType": "bytes32",
          "name": "role",
          "type": "bytes32"
        },
        {
          "indexed": true,
          "internalType": "address",
          "name": "account",
          "type": "address"
        },
        {
          "indexed": true,
          "internalType": "address",
          "name": "sender",
          "type": "address"
        }
      ],
      "name": "RoleGranted",
      "type": "event"
    },
    {
      "anonymous": false,
      "inputs": [
        {
          "indexed": true,
          "internalType": "bytes32",
          "name": "role",
          "type": "bytes32"
        },
        {
          "indexed": true,
          "internalType": "address",
          "name": "account",
          "type": "address"
        },
        {
          "indexed": true,
          "internalType": "address",
          "name": "sender",
          "type": "address"
        }
      ],
      "name": "RoleRevoked",
      "type": "event"
    },
    {
      "anonymous": false,
      "inputs": [
        {
          "indexed": true,
          "internalType": "address",
          "name": "account",
          "type": "address"
        },
        {
          "indexed": false,
          "internalType": "int256",
          "name": "amount",
          "type": "int256"
        },
        {
          "indexed": false,
          "internalType": "uint256",
          "name": "requestId",
          "type": "uint256"
        }
      ],
      "name": "UserBalanceChanged",
      "type": "event"
    },
    {
      "anonymous": false,
      "inputs": [
        {
          "components": [
            {
              "internalType": "uint256",
              "name": "limit",
              "type": "uint256"
            },
            {
              "internalType": "uint256",
              "name": "userLimit",
              "type": "uint256"
            },
            {
              "internalType": "uint16",
              "name": "timeWindow",
              "type": "uint16"
            }
          ],
          "indexed": false,
          "internalType": "struct EHMarketV2.WithdrawLimit[]",
          "name": "withdrawLimits",
          "type": "tuple[]"
        }
      ],
      "name": "WithdrawLimitsUpdated",
      "type": "event"
    },
    {
      "inputs": [],
      "name": "DEFAULT_ADMIN_ROLE",
      "outputs": [
        {
          "internalType": "bytes32",
          "name": "",
          "type": "bytes32"
        }
      ],
      "stateMutability": "view",
      "type": "function"
    },
    {
      "inputs": [],
      "name": "MATCHER_ROLE",
      "outputs": [
        {
          "internalType": "bytes32",
          "name": "",
          "type": "bytes32"
        }
      ],
      "stateMutability": "view",
      "type": "function"
    },
    {
      "inputs": [],
      "name": "MAX_LIMIT_CONFIGS",
      "outputs": [
        {
          "internalType": "uint256",
          "name": "",
          "type": "uint256"
        }
      ],
      "stateMutability": "view",
      "type": "function"
    },
    {
      "inputs": [],
      "name": "collateral",
      "outputs": [
        {
          "internalType": "address",
          "name": "",
          "type": "address"
        }
      ],
      "stateMutability": "view",
      "type": "function"
    },
    {
      "inputs": [
        {
          "internalType": "uint256",
          "name": "amount",
          "type": "uint256"
        }
      ],
      "name": "depositAsset",
      "outputs": [],
      "stateMutability": "nonpayable",
      "type": "function"
    },
    {
      "inputs": [
        {
          "internalType": "address",
          "name": "to",
          "type": "address"
        },
        {
          "internalType": "uint256",
          "name": "amount",
          "type": "uint256"
        }
      ],
      "name": "depositAssetTo",
      "outputs": [],
      "stateMutability": "nonpayable",
      "type": "function"
    },
    {
      "inputs": [
        {
          "internalType": "address",
          "name": "user",
          "type": "address"
        }
      ],
      "name": "getMaxWithdrawAmount",
      "outputs": [
        {
          "internalType": "uint256",
          "name": "maxAmount",
          "type": "uint256"
        },
        {
          "internalType": "uint256",
          "name": "limitingIndex",
          "type": "uint256"
        },
        {
          "internalType": "bool",
          "name": "isUserLimit",
          "type": "bool"
        }
      ],
      "stateMutability": "view",
      "type": "function"
    },
    {
      "inputs": [
        {
          "internalType": "bytes32",
          "name": "role",
          "type": "bytes32"
        }
      ],
      "name": "getRoleAdmin",
      "outputs": [
        {
          "internalType": "bytes32",
          "name": "",
          "type": "bytes32"
        }
      ],
      "stateMutability": "view",
      "type": "function"
    },
    {
      "inputs": [
        {
          "internalType": "bytes32",
          "name": "role",
          "type": "bytes32"
        },
        {
          "internalType": "uint256",
          "name": "index",
          "type": "uint256"
        }
      ],
      "name": "getRoleMember",
      "outputs": [
        {
          "internalType": "address",
          "name": "",
          "type": "address"
        }
      ],
      "stateMutability": "view",
      "type": "function"
    },
    {
      "inputs": [
        {
          "internalType": "bytes32",
          "name": "role",
          "type": "bytes32"
        }
      ],
      "name": "getRoleMemberCount",
      "outputs": [
        {
          "internalType": "uint256",
          "name": "",
          "type": "uint256"
        }
      ],
      "stateMutability": "view",
      "type": "function"
    },
    {
      "inputs": [
        {
          "internalType": "bytes32",
          "name": "role",
          "type": "bytes32"
        }
      ],
      "name": "getRoleMembers",
      "outputs": [
        {
          "internalType": "address[]",
          "name": "",
          "type": "address[]"
        }
      ],
      "stateMutability": "view",
      "type": "function"
    },
    {
      "inputs": [
        {
          "internalType": "uint16",
          "name": "_hours",
          "type": "uint16"
        },
        {
          "internalType": "uint256",
          "name": "timestamp",
          "type": "uint256"
        }
      ],
      "name": "getTotalWithdraw",
      "outputs": [
        {
          "internalType": "uint256",
          "name": "",
          "type": "uint256"
        }
      ],
      "stateMutability": "view",
      "type": "function"
    },
    {
      "inputs": [
        {
          "internalType": "uint16",
          "name": "_hours",
          "type": "uint16"
        },
        {
          "internalType": "uint256",
          "name": "timestamp",
          "type": "uint256"
        },
        {
          "internalType": "address",
          "name": "user",
          "type": "address"
        }
      ],
      "name": "getUserTotalWithdraw",
      "outputs": [
        {
          "internalType": "uint256",
          "name": "",
          "type": "uint256"
        }
      ],
      "stateMutability": "view",
      "type": "function"
    },
    {
      "inputs": [
        {
          "internalType": "bytes32",
          "name": "role",
          "type": "bytes32"
        },
        {
          "internalType": "address",
          "name": "account",
          "type": "address"
        }
      ],
      "name": "grantRole",
      "outputs": [],
      "stateMutability": "nonpayable",
      "type": "function"
    },
    {
      "inputs": [
        {
          "internalType": "bytes32",
          "name": "role",
          "type": "bytes32"
        },
        {
          "internalType": "address",
          "name": "account",
          "type": "address"
        }
      ],
      "name": "hasRole",
      "outputs": [
        {
          "internalType": "bool",
          "name": "",
          "type": "bool"
        }
      ],
      "stateMutability": "view",
      "type": "function"
    },
    {
      "inputs": [
        {
          "internalType": "uint256",
          "name": "",
          "type": "uint256"
        }
      ],
      "name": "hourlyWithdrawals",
      "outputs": [
        {
          "internalType": "uint256",
          "name": "",
          "type": "uint256"
        }
      ],
      "stateMutability": "view",
      "type": "function"
    },
    {
      "inputs": [
        {
          "internalType": "address[]",
          "name": "_matchers",
          "type": "address[]"
        },
        {
          "internalType": "address",
          "name": "_collateral",
          "type": "address"
        },
        {
          "components": [
            {
              "internalType": "uint256",
              "name": "limit",
              "type": "uint256"
            },
            {
              "internalType": "uint256",
              "name": "userLimit",
              "type": "uint256"
            },
            {
              "internalType": "uint16",
              "name": "timeWindow",
              "type": "uint16"
            }
          ],
          "internalType": "struct EHMarketV2.WithdrawLimit[]",
          "name": "_initialWithdrawLimits",
          "type": "tuple[]"
        }
      ],
      "name": "initialize",
      "outputs": [],
      "stateMutability": "nonpayable",
      "type": "function"
    },
    {
      "inputs": [
        {
          "components": [
            {
              "internalType": "uint256",
              "name": "limit",
              "type": "uint256"
            },
            {
              "internalType": "uint256",
              "name": "userLimit",
              "type": "uint256"
            },
            {
              "internalType": "uint16",
              "name": "timeWindow",
              "type": "uint16"
            }
          ],
          "internalType": "struct EHMarketV2.WithdrawLimit[]",
          "name": "_initialWithdrawLimits",
          "type": "tuple[]"
        }
      ],
      "name": "migrateToV2",
      "outputs": [],
      "stateMutability": "nonpayable",
      "type": "function"
    },
    {
      "inputs": [],
      "name": "migratedToV2",
      "outputs": [
        {
          "internalType": "bool",
          "name": "",
          "type": "bool"
        }
      ],
      "stateMutability": "view",
      "type": "function"
    },
    {
      "inputs": [
        {
          "internalType": "bytes32",
          "name": "role",
          "type": "bytes32"
        },
        {
          "internalType": "address",
          "name": "callerConfirmation",
          "type": "address"
        }
      ],
      "name": "renounceRole",
      "outputs": [],
      "stateMutability": "nonpayable",
      "type": "function"
    },
    {
      "inputs": [
        {
          "internalType": "bytes32",
          "name": "role",
          "type": "bytes32"
        },
        {
          "internalType": "address",
          "name": "account",
          "type": "address"
        }
      ],
      "name": "revokeRole",
      "outputs": [],
      "stateMutability": "nonpayable",
      "type": "function"
    },
    {
      "inputs": [
        {
          "internalType": "address",
          "name": "delegate",
          "type": "address"
        },
        {
          "internalType": "uint256",
          "name": "allowance",
          "type": "uint256"
        }
      ],
      "name": "setDelegate",
      "outputs": [],
      "stateMutability": "nonpayable",
      "type": "function"
    },
    {
      "inputs": [
        {
          "components": [
            {
              "internalType": "uint256",
              "name": "limit",
              "type": "uint256"
            },
            {
              "internalType": "uint256",
              "name": "userLimit",
              "type": "uint256"
            },
            {
              "internalType": "uint16",
              "name": "timeWindow",
              "type": "uint16"
            }
          ],
          "internalType": "struct EHMarketV2.WithdrawLimit[]",
          "name": "_withdrawLimits",
          "type": "tuple[]"
        }
      ],
      "name": "setWithdrawLimits",
      "outputs": [],
      "stateMutability": "nonpayable",
      "type": "function"
    },
    {
      "inputs": [
        {
          "internalType": "bytes4",
          "name": "interfaceId",
          "type": "bytes4"
        }
      ],
      "name": "supportsInterface",
      "outputs": [
        {
          "internalType": "bool",
          "name": "",
          "type": "bool"
        }
      ],
      "stateMutability": "view",
      "type": "function"
    },
    {
      "inputs": [
        {
          "internalType": "uint256",
          "name": "",
          "type": "uint256"
        },
        {
          "internalType": "address",
          "name": "",
          "type": "address"
        }
      ],
      "name": "userHourlyWithdrawals",
      "outputs": [
        {
          "internalType": "uint256",
          "name": "",
          "type": "uint256"
        }
      ],
      "stateMutability": "view",
      "type": "function"
    },
    {
      "inputs": [
        {
          "internalType": "address",
          "name": "from",
          "type": "address"
        },
        {
          "internalType": "uint256",
          "name": "amount",
          "type": "uint256"
        },
        {
          "internalType": "uint256",
          "name": "requestId",
          "type": "uint256"
        }
      ],
      "name": "withdrawAsset",
      "outputs": [],
      "stateMutability": "nonpayable",
      "type": "function"
    },
    {
      "inputs": [
        {
          "internalType": "uint256",
          "name": "",
          "type": "uint256"
        }
      ],
      "name": "withdrawLimits",
      "outputs": [
        {
          "internalType": "uint256",
          "name": "limit",
          "type": "uint256"
        },
        {
          "internalType": "uint256",
          "name": "userLimit",
          "type": "uint256"
        },
        {
          "internalType": "uint16",
          "name": "timeWindow",
          "type": "uint16"
        }
      ],
      "stateMutability": "view",
      "type": "function"
    }
  ],
  "bytecode": "0x6080806040523460d2577ff0c57e16840df040f15088dc2f81fe391c3923bec73e23a9662efc9c229c6a005460ff8160401c1660c1576002600160401b03196001600160401b03821601605c575b604051611c0990816100d88239f35b6001600160401b0319166001600160401b039081177ff0c57e16840df040f15088dc2f81fe391c3923bec73e23a9662efc9c229c6a005581527fc7f505b2f371ae2175ee4913f4499e1f2633a7b5936321eed1cdaeb6115181d290602090a13880604d565b63f92ee8a960e01b60005260046000fd5b600080fdfe608080604052600436101561001357600080fd5b60003560e01c90816301ffc9a714610c5c5750806304f6d23e14610c145780630ce62bf214610bed5780630d01231a14610bc757806321ff22d614610b8f578063248a9ca314610b715780632f2ff15d14610b4057806330726c1814610b2457806336568abe14610ade578063384ee30b14610a445780633d3a2459146109ff57806382827143146109865780638aaa6b92146109615780639010d07c1461090d57806391d14854146108b3578063a217fddf14610897578063a3246ad3146107d5578063b1dab94814610634578063b2194ff5146105f9578063ca15c873146105c0578063d547741f1461058a578063d6a510d914610533578063d8dfeb451461050a578063e48da9c7146104de578063e988a8bb146101bf578063fa2df414146101a05763fd6e1a831461014857600080fd5b3461019b57602036600319011261019b5760043560035481101561019b5761016f90610e0d565b5080549061ffff6002600183015492015416906040519283526020830152604082015260608180030190f35b600080fd5b3461019b57602036600319011261019b576101bd600435336110b5565b005b3461019b57606036600319011261019b5760043567ffffffffffffffff811161019b573660238201121561019b5780600401356101fb81610d5a565b916102096040519384610d38565b8183526024602084019260051b8201019036821161019b57602401915b8183106104be5783610236610cc9565b60443567ffffffffffffffff811161019b57610256903690600401610d72565b91600080516020611bb4833981519152549260ff8460401c16159367ffffffffffffffff8116801590816104b6575b60011490816104ac575b1590816104a3575b506104925767ffffffffffffffff198116600117600080516020611bb48339815191525584610465575b5060ff600080516020611bb48339815191525460401c1615610454576102e6336116cb565b61040e575b60005b825181101561038a576001906001600160a01b0361030c8286611136565b511661031781611759565b610323575b50016102ee565b7fdf91394c13c48ebd5370100f1eb84afe3c6c47a78f9f9f874d5a9ec6afe0ae6b600052600080516020611b34833981519152602052610383907f9fa5f5ebb43f5e5b68dc549bffd347e114a2de1747d0c4e936b58d7d895932ca6119ef565b508661031c565b600080546001600160a01b0319166001600160a01b038616179055846103af83611220565b6103b557005b68ff000000000000000019600080516020611bb48339815191525416600080516020611bb4833981519152557fc7f505b2f371ae2175ee4913f4499e1f2633a7b5936321eed1cdaeb6115181d2602060405160018152a1005b60008052600080516020611b3483398151915260205261044e337f615f0f9e84155bea8cc509fe18befeb1baf65611e38a6ba60964480fb29dfd446119ef565b506102eb565b631afcd79f60e31b60005260046000fd5b68ffffffffffffffffff19166801000000000000000117600080516020611bb483398151915255846102c1565b63f92ee8a960e01b60005260046000fd5b90501586610297565b303b15915061028f565b869150610285565b82356001600160a01b038116810361019b57815260209283019201610226565b3461019b57602036600319011261019b5760043560005260016020526020604060002054604051908152f35b3461019b57600036600319011261019b576000546040516001600160a01b039091168152602090f35b3461019b57604036600319011261019b5761054c610cdf565b60405160243581526001600160a01b039091169033907fe46208ae3c8157621e96e03a67b3fc7b61b734022b04cf097b94dd994dd95b4390602090a3005b3461019b57604036600319011261019b576101bd6004356105a9610cc9565b906105bb6105b68261100d565b61114a565b6111dc565b3461019b57602036600319011261019b57600435600052600080516020611b348339815191526020526020604060002054604051908152f35b3461019b57600036600319011261019b5760206040517fdf91394c13c48ebd5370100f1eb84afe3c6c47a78f9f9f874d5a9ec6afe0ae6b8152f35b3461019b57606036600319011261019b5761064d610cdf565b3360009081527f80fc495aaaf8d17e3f0f01e98ecf2de6d37fa891873f4b915ab4b2f9b846a79a60205260409020546024359060ff168080156107af575b1561079e57610738575b600160ff1b8114610722576101bd9160018060a01b031690817f752cd0c4fe55d95cbe1325ebc6a35e473a741572f01a076425179f2421841bf8604080518460000381526044356020820152a260005460405163a9059cbb60e01b602082015260248101939093526044808401929092529082526001600160a01b031661071d606483610d38565b611970565b634e487b7160e01b600052601160045260246000fd5b610742828261157f565b610750610e10420642610e49565b8060005260016020526040600020610769838254610e56565b90556000526002602052604060002060018060a01b0383166000526020526040600020610797828254610e56565b9055610695565b636518c33d60e11b60005260046000fd5b50336000908152600080516020611b74833981519152602052604090205460ff1661068b565b3461019b57602036600319011261019b57600435600052600080516020611b3483398151915260205260406000206040518060208354918281520190819360005260206000209060005b8181106108815750505081610835910382610d38565b6040519182916020830190602084525180915260408301919060005b81811061085f575050500390f35b82516001600160a01b0316845285945060209384019390920191600101610851565b825484526020909301926001928301920161081f565b3461019b57600036600319011261019b57602060405160008152f35b3461019b57604036600319011261019b576108cc610cc9565b600435600052600080516020611b9483398151915260205260406000209060018060a01b0316600052602052602060ff604060002054166040519015158152f35b3461019b57604036600319011261019b57600435600052600080516020611b34833981519152602052602061094860243560406000206119d7565b905460405160039290921b1c6001600160a01b03168152f35b3461019b57604036600319011261019b576101bd61097d610cdf565b602435906110b5565b3461019b57602036600319011261019b5760043567ffffffffffffffff811161019b576109b7903690600401610d72565b336000908152600080516020611b74833981519152602052604090205460ff16156109e5576101bd90611220565b63e2517d3f60e01b60005233600452600060245260446000fd5b3461019b57606036600319011261019b57610a18610cf5565b604435906001600160a01b038216820361019b57602091610a3c916024359061102e565b604051908152f35b3461019b57602036600319011261019b5760043567ffffffffffffffff811161019b57610a75903690600401610d72565b60ff60005460a01c16610aa057610a8b90611220565b6000805460ff60a01b1916600160a01b179055005b60405162461bcd60e51b815260206004820152601660248201527520b63932b0b23c9036b4b3b930ba32b2103a37902b1960511b6044820152606490fd5b3461019b57604036600319011261019b57610af7610cc9565b336001600160a01b03821603610b13576101bd906004356111dc565b63334bd91960e11b60005260046000fd5b3461019b57600036600319011261019b57602060405160148152f35b3461019b57604036600319011261019b576101bd600435610b5f610cc9565b90610b6c6105b68261100d565b611194565b3461019b57602036600319011261019b576020610a3c60043561100d565b3461019b57602036600319011261019b576060610bb2610bad610cdf565b610efd565b90604051928352602083015215156040820152f35b3461019b57600036600319011261019b57602060ff60005460a01c166040519015158152f35b3461019b57604036600319011261019b576020610a3c610c0b610cf5565b60243590610e63565b3461019b57604036600319011261019b57610c2d610cc9565b600435600052600260205260406000209060018060a01b03166000526020526020604060002054604051908152f35b3461019b57602036600319011261019b576004359063ffffffff60e01b821680920361019b57602091635a05180f60e01b8114908115610c9e575b5015158152f35b637965db0b60e01b811491508115610cb8575b5083610c97565b6301ffc9a760e01b14905083610cb1565b602435906001600160a01b038216820361019b57565b600435906001600160a01b038216820361019b57565b6004359061ffff8216820361019b57565b6060810190811067ffffffffffffffff821117610d2257604052565b634e487b7160e01b600052604160045260246000fd5b90601f8019910116810190811067ffffffffffffffff821117610d2257604052565b67ffffffffffffffff8111610d225760051b60200190565b81601f8201121561019b57803590610d8982610d5a565b92610d976040519485610d38565b8284526020606081860194028301019181831161019b57602001925b828410610dc1575050505090565b60608483031261019b5760405190610dd882610d06565b843582526020850135602083015260408501359061ffff8216820361019b578260209260406060950152815201930192610db3565b600354811015610e3357600360008181529102600080516020611b548339815191520191565b634e487b7160e01b600052603260045260246000fd5b9190820391821161072257565b9190820180921161072257565b610e74600092610e10810690610e49565b82915b61ffff81168310610e885750505090565b909192610e10840290848204610e10148515171561072257610ec6600191610eb361ffff9487610e49565b6000528260205260406000205490610e56565b940192919050610e77565b90604051610ede81610d06565b604061ffff600283958054855260018101546020860152015416910152565b6000199182600092600354908115610ffd5760005b828110610f2157505050929190565b610f33610f2d82610e0d565b50610ed1565b6040810190610f474261ffff845116610e63565b8151600082821115610fec5750610f62610f6f928792610e49565b9361ffff4291511661102e565b602090910151600082821115610fdb575090610f8a91610e49565b9080821015610fb75750848110610fa7575b506001905b01610f12565b9096506001955092508585610f9c565b9050848110610fca575b50600190610fa1565b909650600095509250856001610fc1565b995092975060019695505050505050565b995050505050955050505081929190565b5090935060001992506000919050565b600052600080516020611b9483398151915260205260016040600020015490565b9091611041600093610e10810690610e49565b9183925b61ffff82168410611057575050505090565b90919293610e10850290858204610e101486151715610722576110a960019161108361ffff9486610e49565b6000526002602052604080600020600090858060a01b038a168252602052205490610e56565b95019392919050611045565b604080518381526000602082015261113493926001600160a01b0316917f752cd0c4fe55d95cbe1325ebc6a35e473a741572f01a076425179f2421841bf891a26000546040516323b872dd60e01b60208201523360248201523060448201526064808201939093529182526001600160a01b031661071d608483610d38565b565b8051821015610e335760209160051b010190565b6000818152600080516020611b948339815191526020908152604080832033845290915290205460ff161561117c5750565b63e2517d3f60e01b6000523360045260245260446000fd5b61119e8282611827565b91826111a957505090565b6000918252600080516020611b3483398151915260205260409091206111d8916001600160a01b0316906119ef565b5090565b6111e682826118d0565b91826111f157505090565b6000918252600080516020611b3483398151915260205260409091206111d8916001600160a01b031690611a60565b601481511161156e57600354600060035580611513575b50906000906000905b835182101561147f576112538285611136565b5190815180158015611473575b8015611463575b8015611456575b61142c5750604082019361ffff855116906001821b9182821661141857506003549692911760005b878110806113f9575b156112b557600019811461072257600101611296565b9095939196949294600160401b811015610d225760018101806003556112da82610e0d565b505081116107225780821061133f575b506112f490610e0d565b91909161132957600261ffff600195602084839551875501518786015551169201911661ffff19825416179055019092611240565b634e487b7160e01b600052600060045260246000fd5b6000905b82811161135057506112ea565b60001981018181116113e55761136590610e0d565b5061136f82610e0d565b9190916113d1578082036113a3575b5050801561138f5760001901611343565b634e487b7160e01b82526011600452602482fd5b600261ffff81838294548655600181015460018701550154169201911661ffff19825416179055388061137e565b634e487b7160e01b84526004849052602484fd5b634e487b7160e01b83526011600452602483fd5b5061ffff600261140883610e0d565b5001541661ffff8851161161129f565b63b2a4e7b360e01b60005260045260246000fd5b8261ffff6040602083015192015116916338af09bb60e11b60005260045260245260445260646000fd5b506020830151811061126e565b5061ffff60408401511615611267565b50602083015115611260565b92505050604051602081016020825260035480915260408201906003600052600080516020611b548339815191529060005b8181106114e45750505090807fb4f7fb15a3f27bb72f7ec353d6513cc033ba11934e1b4b9bdb7c020fc81c1628920390a1565b825484526001808401546020860152600284015461ffff166040860152606090940193600390930192016114b1565b80600302906003820403610722576003600052600080516020611b5483398151915201600080516020611b548339815191525b8181106115535750611237565b60039060008155600060018201556000600282015501611546565b631025599160e01b60005260046000fd5b6003549182156116c65761159a610e10939293420642610e49565b600093849081805b8684106115b3575050505050505050565b969761ffff6115c7610f2d86999899610e0d565b92169060408301985b61ffff8a511683101561164857610e108302838104610e10148415171561072257600191611619611604611640938b610e49565b9d8e6000528460205260406000205490610e56565b9c60005260026020526040806000206000908d868060a01b03168252602052205490610e56565b9201916115d0565b95949150989761ffff909796939297511696611664838a610e56565b8151106116a95760206116778488610e56565b9101511061168d576001019293959091956115a2565b9084631e2315fb60e11b60005260045260245260445260646000fd5b50908763c8b1a34f60e01b60005260045260245260445260646000fd5b505050565b6001600160a01b0381166000908152600080516020611b74833981519152602052604090205460ff16611753576001600160a01b03166000818152600080516020611b7483398151915260205260408120805460ff191660011790553391907f2f8788117e7eff1d82e926ec794901d17c78024a50270940304540a733656f0d8180a4600190565b50600090565b6001600160a01b03811660009081527f80fc495aaaf8d17e3f0f01e98ecf2de6d37fa891873f4b915ab4b2f9b846a79a602052604090205460ff16611753576001600160a01b031660008181527f80fc495aaaf8d17e3f0f01e98ecf2de6d37fa891873f4b915ab4b2f9b846a79a60205260408120805460ff191660011790553391907fdf91394c13c48ebd5370100f1eb84afe3c6c47a78f9f9f874d5a9ec6afe0ae6b907f2f8788117e7eff1d82e926ec794901d17c78024a50270940304540a733656f0d9080a4600190565b6000818152600080516020611b94833981519152602090815260408083206001600160a01b038616845290915290205460ff166118c9576000818152600080516020611b94833981519152602090815260408083206001600160a01b0395909516808452949091528120805460ff19166001179055339291907f2f8788117e7eff1d82e926ec794901d17c78024a50270940304540a733656f0d9080a4600190565b5050600090565b6000818152600080516020611b94833981519152602090815260408083206001600160a01b038616845290915290205460ff16156118c9576000818152600080516020611b94833981519152602090815260408083206001600160a01b0395909516808452949091528120805460ff19169055339291907ff6391f5c32d9c69d2a47ea670b442974b53935d1edc7fd64eb21e047a839171b9080a4600190565b906000602091828151910182855af1156119cb576000513d6119c257506001600160a01b0381163b155b6119a15750565b635274afe760e01b60009081526001600160a01b0391909116600452602490fd5b6001141561199a565b6040513d6000823e3d90fd5b8054821015610e335760005260206000200190600090565b6001810190826000528160205260406000205415600014611a58578054600160401b811015610d2257611a43611a2c8260018794018555846119d7565b819391549060031b91821b91600019901b19161790565b90555491600052602052604060002055600190565b505050600090565b9060018201918160005282602052604060002054801515600014611b2a57600019810181811161072257825460001981019190821161072257818103611af3575b50505080548015611add576000190190611abb82826119d7565b8154906000199060031b1b191690555560005260205260006040812055600190565b634e487b7160e01b600052603160045260246000fd5b611b13611b03611a2c93866119d7565b90549060031b1c928392866119d7565b905560005283602052604060002055388080611aa1565b5050505060009056fec1f6fe24621ce81ec5827caf0253cadb74709b061630e6b55e82371705932000c2575a0e9e593c00f959f8c92f12db2869c3395a3b0502d05e2516446f71f85bb7db2dd08fcb62d0c9e08c51941cae53c267786a0b75803fb7960902fc8ef97d02dd7bc7dec4dceedda775e58dd541e08a116c6c53815c0bd028192f7b626800f0c57e16840df040f15088dc2f81fe391c3923bec73e23a9662efc9c229c6a00a2646970667358221220cbd71c9ccd9db37e68d0b6969f16f9b06a9bca518e4a95e2f29a2e33b261163764736f6c634300081a0033",
  "linkReferences": {},
  "deployedLinkReferences": {}
}