{
  "_format": "hh-sol-artifact-1",
  "contractName": "EHMarketV2",
  "sourceName": "contracts/EHMarketV2.sol",
  "abi": [
    {
      "inputs": [],
      "stateMutability": "nonpayable",
      "type": "constructor"
    },
    {
      "inputs": [],
      "name": "AccessControlBadConfirmation",
      "type": "error"
    },
    {
      "inputs": [
        {
          "internalType": "address",
          "name": "account",
          "type": "address"
        },
        {
          "internalType": "bytes32",
          "name": "neededRole",
          "type": "bytes32"
        }
      ],
      "name": "AccessControlUnauthorizedAccount",
      "type": "error"
    },
    {
      "inputs": [],
      "name": "InvalidInitialization",
      "type": "error"
    },
    {
      "inputs": [
        {
          "internalType": "uint256",
          "name": "limit",
          "type": "uint256"
        },
        {
          "internalType": "uint256",
          "name": "userLimit",
          "type": "uint256"
        },
        {
          "internalType": "uint16",
          "name": "timeWindow",
          "type": "uint16"
        }
      ],
      "name": "InvalidWithdrawLimit",
      "type": "error"
    },
    {
      "inputs": [],
      "name": "InvalidWithdrawLimitLength",
      "type": "error"
    },
    {
      "inputs": [],
      "name": "NotInitializing",
      "type": "error"
    },
    {
      "inputs": [
        {
          "internalType": "address",
          "name": "token",
          "type": "address"
        }
      ],
      "name": "SafeERC20FailedOperation",
      "type": "error"
    },
    {
      "inputs": [
        {
          "internalType": "uint256",
          "name": "currentTotal",
          "type": "uint256"
        },
        {
          "internalType": "uint256",
          "name": "requestedAmount",
          "type": "uint256"
        },
        {
          "internalType": "uint256",
          "name": "configIndex",
          "type": "uint256"
        }
      ],
      "name": "TotalLimitExceeded",
      "type": "error"
    },
    {
      "inputs": [],
      "name": "UnauthorizedSigner",
      "type": "error"
    },
    {
      "inputs": [
        {
          "internalType": "uint256",
          "name": "currentTotal",
          "type": "uint256"
        },
        {
          "internalType": "uint256",
          "name": "requestedAmount",
          "type": "uint256"
        },
        {
          "internalType": "uint256",
          "name": "configIndex",
          "type": "uint256"
        }
      ],
      "name": "UserLimitExceeded",
      "type": "error"
    },
    {
      "anonymous": false,
      "inputs": [
        {
          "indexed": true,
          "internalType": "address",
          "name": "delegator",
          "type": "address"
        },
        {
          "indexed": true,
          "internalType": "address",
          "name": "delegate",
          "type": "address"
        },
        {
          "indexed": false,
          "internalType": "uint256",
          "name": "allowance",
          "type": "uint256"
        }
      ],
      "name": "DelegateUpdated",
      "type": "event"
    },
    {
      "anonymous": false,
      "inputs": [
        {
          "indexed": false,
          "internalType": "uint64",
          "name": "version",
          "type": "uint64"
        }
      ],
      "name": "Initialized",
      "type": "event"
    },
    {
      "anonymous": false,
      "inputs": [
        {
          "indexed": true,
          "internalType": "bytes32",
          "name": "role",
          "type": "bytes32"
        },
        {
          "indexed": true,
          "internalType": "bytes32",
          "name": "previousAdminRole",
          "type": "bytes32"
        },
        {
          "indexed": true,
          "internalType": "bytes32",
          "name": "newAdminRole",
          "type": "bytes32"
        }
      ],
      "name": "RoleAdminChanged",
      "type": "event"
    },
    {
      "anonymous": false,
      "inputs": [
        {
          "indexed": true,
          "internalType": "bytes32",
          "name": "role",
          "type": "bytes32"
        },
        {
          "indexed": true,
          "internalType": "address",
          "name": "account",
          "type": "address"
        },
        {
          "indexed": true,
          "internalType": "address",
          "name": "sender",
          "type": "address"
        }
      ],
      "name": "RoleGranted",
      "type": "event"
    },
    {
      "anonymous": false,
      "inputs": [
        {
          "indexed": true,
          "internalType": "bytes32",
          "name": "role",
          "type": "bytes32"
        },
        {
          "indexed": true,
          "internalType": "address",
          "name": "account",
          "type": "address"
        },
        {
          "indexed": true,
          "internalType": "address",
          "name": "sender",
          "type": "address"
        }
      ],
      "name": "RoleRevoked",
      "type": "event"
    },
    {
      "anonymous": false,
      "inputs": [
        {
          "indexed": true,
          "internalType": "address",
          "name": "account",
          "type": "address"
        },
        {
          "indexed": false,
          "internalType": "int256",
          "name": "amount",
          "type": "int256"
        },
        {
          "indexed": false,
          "internalType": "uint256",
          "name": "requestId",
          "type": "uint256"
        }
      ],
      "name": "UserBalanceChanged",
      "type": "event"
    },
    {
      "anonymous": false,
      "inputs": [
        {
          "components": [
            {
              "internalType": "uint256",
              "name": "limit",
              "type": "uint256"
            },
            {
              "internalType": "uint256",
              "name": "userLimit",
              "type": "uint256"
            },
            {
              "internalType": "uint16",
              "name": "timeWindow",
              "type": "uint16"
            }
          ],
          "indexed": false,
          "internalType": "struct EHMarketV2.WithdrawLimit[]",
          "name": "withdrawLimits",
          "type": "tuple[]"
        }
      ],
      "name": "WithdrawLimitsUpdated",
      "type": "event"
    },
    {
      "inputs": [],
      "name": "DEFAULT_ADMIN_ROLE",
      "outputs": [
        {
          "internalType": "bytes32",
          "name": "",
          "type": "bytes32"
        }
      ],
      "stateMutability": "view",
      "type": "function"
    },
    {
      "inputs": [],
      "name": "MATCHER_ROLE",
      "outputs": [
        {
          "internalType": "bytes32",
          "name": "",
          "type": "bytes32"
        }
      ],
      "stateMutability": "view",
      "type": "function"
    },
    {
      "inputs": [],
      "name": "MAX_LIMIT_CONFIGS",
      "outputs": [
        {
          "internalType": "uint256",
          "name": "",
          "type": "uint256"
        }
      ],
      "stateMutability": "view",
      "type": "function"
    },
    {
      "inputs": [],
      "name": "collateral",
      "outputs": [
        {
          "internalType": "address",
          "name": "",
          "type": "address"
        }
      ],
      "stateMutability": "view",
      "type": "function"
    },
    {
      "inputs": [
        {
          "internalType": "uint256",
          "name": "amount",
          "type": "uint256"
        }
      ],
      "name": "depositAsset",
      "outputs": [],
      "stateMutability": "nonpayable",
      "type": "function"
    },
    {
      "inputs": [
        {
          "internalType": "address",
          "name": "to",
          "type": "address"
        },
        {
          "internalType": "uint256",
          "name": "amount",
          "type": "uint256"
        }
      ],
      "name": "depositAssetTo",
      "outputs": [],
      "stateMutability": "nonpayable",
      "type": "function"
    },
    {
      "inputs": [
        {
          "internalType": "address",
          "name": "user",
          "type": "address"
        }
      ],
      "name": "getMaxWithdrawAmount",
      "outputs": [
        {
          "internalType": "uint256",
          "name": "maxAmount",
          "type": "uint256"
        },
        {
          "internalType": "uint256",
          "name": "limitingIndex",
          "type": "uint256"
        },
        {
          "internalType": "bool",
          "name": "isUserLimit",
          "type": "bool"
        }
      ],
      "stateMutability": "view",
      "type": "function"
    },
    {
      "inputs": [
        {
          "internalType": "bytes32",
          "name": "role",
          "type": "bytes32"
        }
      ],
      "name": "getRoleAdmin",
      "outputs": [
        {
          "internalType": "bytes32",
          "name": "",
          "type": "bytes32"
        }
      ],
      "stateMutability": "view",
      "type": "function"
    },
    {
      "inputs": [
        {
          "internalType": "bytes32",
          "name": "role",
          "type": "bytes32"
        },
        {
          "internalType": "uint256",
          "name": "index",
          "type": "uint256"
        }
      ],
      "name": "getRoleMember",
      "outputs": [
        {
          "internalType": "address",
          "name": "",
          "type": "address"
        }
      ],
      "stateMutability": "view",
      "type": "function"
    },
    {
      "inputs": [
        {
          "internalType": "bytes32",
          "name": "role",
          "type": "bytes32"
        }
      ],
      "name": "getRoleMemberCount",
      "outputs": [
        {
          "internalType": "uint256",
          "name": "",
          "type": "uint256"
        }
      ],
      "stateMutability": "view",
      "type": "function"
    },
    {
      "inputs": [
        {
          "internalType": "bytes32",
          "name": "role",
          "type": "bytes32"
        }
      ],
      "name": "getRoleMembers",
      "outputs": [
        {
          "internalType": "address[]",
          "name": "",
          "type": "address[]"
        }
      ],
      "stateMutability": "view",
      "type": "function"
    },
    {
      "inputs": [
        {
          "internalType": "uint16",
          "name": "_hours",
          "type": "uint16"
        },
        {
          "internalType": "uint256",
          "name": "timestamp",
          "type": "uint256"
        }
      ],
      "name": "getTotalWithdraw",
      "outputs": [
        {
          "internalType": "uint256",
          "name": "",
          "type": "uint256"
        }
      ],
      "stateMutability": "view",
      "type": "function"
    },
    {
      "inputs": [
        {
          "internalType": "uint16",
          "name": "_hours",
          "type": "uint16"
        },
        {
          "internalType": "uint256",
          "name": "timestamp",
          "type": "uint256"
        },
        {
          "internalType": "address",
          "name": "user",
          "type": "address"
        }
      ],
      "name": "getUserTotalWithdraw",
      "outputs": [
        {
          "internalType": "uint256",
          "name": "",
          "type": "uint256"
        }
      ],
      "stateMutability": "view",
      "type": "function"
    },
    {
      "inputs": [
        {
          "internalType": "bytes32",
          "name": "role",
          "type": "bytes32"
        },
        {
          "internalType": "address",
          "name": "account",
          "type": "address"
        }
      ],
      "name": "grantRole",
      "outputs": [],
      "stateMutability": "nonpayable",
      "type": "function"
    },
    {
      "inputs": [
        {
          "internalType": "bytes32",
          "name": "role",
          "type": "bytes32"
        },
        {
          "internalType": "address",
          "name": "account",
          "type": "address"
        }
      ],
      "name": "hasRole",
      "outputs": [
        {
          "internalType": "bool",
          "name": "",
          "type": "bool"
        }
      ],
      "stateMutability": "view",
      "type": "function"
    },
    {
      "inputs": [
        {
          "internalType": "uint256",
          "name": "",
          "type": "uint256"
        }
      ],
      "name": "hourlyWithdrawals",
      "outputs": [
        {
          "internalType": "uint256",
          "name": "",
          "type": "uint256"
        }
      ],
      "stateMutability": "view",
      "type": "function"
    },
    {
      "inputs": [
        {
          "internalType": "address[]",
          "name": "_matchers",
          "type": "address[]"
        },
        {
          "internalType": "address",
          "name": "_collateral",
          "type": "address"
        },
        {
          "components": [
            {
              "internalType": "uint256",
              "name": "limit",
              "type": "uint256"
            },
            {
              "internalType": "uint256",
              "name": "userLimit",
              "type": "uint256"
            },
            {
              "internalType": "uint16",
              "name": "timeWindow",
              "type": "uint16"
            }
          ],
          "internalType": "struct EHMarketV2.WithdrawLimit[]",
          "name": "_initialWithdrawLimits",
          "type": "tuple[]"
        }
      ],
      "name": "initialize",
      "outputs": [],
      "stateMutability": "nonpayable",
      "type": "function"
    },
    {
      "inputs": [
        {
          "internalType": "bytes32",
          "name": "role",
          "type": "bytes32"
        },
        {
          "internalType": "address",
          "name": "callerConfirmation",
          "type": "address"
        }
      ],
      "name": "renounceRole",
      "outputs": [],
      "stateMutability": "nonpayable",
      "type": "function"
    },
    {
      "inputs": [
        {
          "internalType": "bytes32",
          "name": "role",
          "type": "bytes32"
        },
        {
          "internalType": "address",
          "name": "account",
          "type": "address"
        }
      ],
      "name": "revokeRole",
      "outputs": [],
      "stateMutability": "nonpayable",
      "type": "function"
    },
    {
      "inputs": [
        {
          "internalType": "address",
          "name": "delegate",
          "type": "address"
        },
        {
          "internalType": "uint256",
          "name": "allowance",
          "type": "uint256"
        }
      ],
      "name": "setDelegate",
      "outputs": [],
      "stateMutability": "nonpayable",
      "type": "function"
    },
    {
      "inputs": [
        {
          "components": [
            {
              "internalType": "uint256",
              "name": "limit",
              "type": "uint256"
            },
            {
              "internalType": "uint256",
              "name": "userLimit",
              "type": "uint256"
            },
            {
              "internalType": "uint16",
              "name": "timeWindow",
              "type": "uint16"
            }
          ],
          "internalType": "struct EHMarketV2.WithdrawLimit[]",
          "name": "_withdrawLimits",
          "type": "tuple[]"
        }
      ],
      "name": "setWithdrawLimits",
      "outputs": [],
      "stateMutability": "nonpayable",
      "type": "function"
    },
    {
      "inputs": [
        {
          "internalType": "bytes4",
          "name": "interfaceId",
          "type": "bytes4"
        }
      ],
      "name": "supportsInterface",
      "outputs": [
        {
          "internalType": "bool",
          "name": "",
          "type": "bool"
        }
      ],
      "stateMutability": "view",
      "type": "function"
    },
    {
      "inputs": [
        {
          "internalType": "uint256",
          "name": "",
          "type": "uint256"
        },
        {
          "internalType": "address",
          "name": "",
          "type": "address"
        }
      ],
      "name": "userHourlyWithdrawals",
      "outputs": [
        {
          "internalType": "uint256",
          "name": "",
          "type": "uint256"
        }
      ],
      "stateMutability": "view",
      "type": "function"
    },
    {
      "inputs": [
        {
          "internalType": "address",
          "name": "from",
          "type": "address"
        },
        {
          "internalType": "uint256",
          "name": "amount",
          "type": "uint256"
        },
        {
          "internalType": "uint256",
          "name": "requestId",
          "type": "uint256"
        }
      ],
      "name": "withdrawAsset",
      "outputs": [],
      "stateMutability": "nonpayable",
      "type": "function"
    },
    {
      "inputs": [
        {
          "internalType": "uint256",
          "name": "",
          "type": "uint256"
        }
      ],
      "name": "withdrawLimits",
      "outputs": [
        {
          "internalType": "uint256",
          "name": "limit",
          "type": "uint256"
        },
        {
          "internalType": "uint256",
          "name": "userLimit",
          "type": "uint256"
        },
        {
          "internalType": "uint16",
          "name": "timeWindow",
          "type": "uint16"
        }
      ],
      "stateMutability": "view",
      "type": "function"
    }
  ],
  "bytecode": "0x6080806040523460d2577ff0c57e16840df040f15088dc2f81fe391c3923bec73e23a9662efc9c229c6a005460ff8160401c1660c1576002600160401b03196001600160401b03821601605c575b604051611b0590816100d88239f35b6001600160401b0319166001600160401b039081177ff0c57e16840df040f15088dc2f81fe391c3923bec73e23a9662efc9c229c6a005581527fc7f505b2f371ae2175ee4913f4499e1f2633a7b5936321eed1cdaeb6115181d290602090a13880604d565b63f92ee8a960e01b60005260046000fd5b600080fdfe608080604052600436101561001357600080fd5b60003560e01c90816301ffc9a714610b865750806304f6d23e14610b3e5780630ce62bf214610b1757806321ff22d614610adf578063248a9ca314610ac15780632f2ff15d14610a9057806330726c1814610a7457806336568abe14610a2e5780633d3a2459146109e957806382827143146109705780638aaa6b921461094b5780639010d07c146108f757806391d148541461089d578063a217fddf14610881578063a3246ad3146107bf578063b1dab9481461061e578063b2194ff5146105e3578063ca15c873146105aa578063d547741f14610574578063d6a510d91461051d578063d8dfeb45146104f4578063e48da9c7146104c8578063e988a8bb146101a9578063fa2df4141461018a5763fd6e1a831461013257600080fd5b34610185576020366003190112610185576004356003548110156101855761015990610d37565b5080549061ffff6002600183015492015416906040519283526020830152604082015260608180030190f35b600080fd5b34610185576020366003190112610185576101a760043533611038565b005b346101855760603660031901126101855760043567ffffffffffffffff811161018557366023820112156101855780600401356101e581610c84565b916101f36040519384610c62565b8183526024602084019260051b8201019036821161018557602401915b8183106104a85783610220610bf3565b60443567ffffffffffffffff811161018557610240903690600401610c9c565b91600080516020611ab0833981519152549260ff8460401c16159367ffffffffffffffff8116801590816104a0575b6001149081610496575b15908161048d575b5061047c5767ffffffffffffffff198116600117600080516020611ab0833981519152558461044f575b5060ff600080516020611ab08339815191525460401c161561043e576102d0336115c7565b6103f8575b60005b8251811015610374576001906001600160a01b036102f682866110b9565b511661030181611655565b61030d575b50016102d8565b7fdf91394c13c48ebd5370100f1eb84afe3c6c47a78f9f9f874d5a9ec6afe0ae6b600052600080516020611a3083398151915260205261036d907f9fa5f5ebb43f5e5b68dc549bffd347e114a2de1747d0c4e936b58d7d895932ca6118eb565b5086610306565b600080546001600160a01b0319166001600160a01b0386161790558461039983611274565b61039f57005b68ff000000000000000019600080516020611ab08339815191525416600080516020611ab0833981519152557fc7f505b2f371ae2175ee4913f4499e1f2633a7b5936321eed1cdaeb6115181d2602060405160018152a1005b60008052600080516020611a30833981519152602052610438337f615f0f9e84155bea8cc509fe18befeb1baf65611e38a6ba60964480fb29dfd446118eb565b506102d5565b631afcd79f60e31b60005260046000fd5b68ffffffffffffffffff19166801000000000000000117600080516020611ab083398151915255846102ab565b63f92ee8a960e01b60005260046000fd5b90501586610281565b303b159150610279565b86915061026f565b82356001600160a01b038116810361018557815260209283019201610210565b346101855760203660031901126101855760043560005260016020526020604060002054604051908152f35b34610185576000366003190112610185576000546040516001600160a01b039091168152602090f35b3461018557604036600319011261018557610536610c09565b60405160243581526001600160a01b039091169033907fe46208ae3c8157621e96e03a67b3fc7b61b734022b04cf097b94dd994dd95b4390602090a3005b34610185576040366003190112610185576101a7600435610593610bf3565b906105a56105a082610f90565b6110cd565b61115f565b3461018557602036600319011261018557600435600052600080516020611a308339815191526020526020604060002054604051908152f35b346101855760003660031901126101855760206040517fdf91394c13c48ebd5370100f1eb84afe3c6c47a78f9f9f874d5a9ec6afe0ae6b8152f35b3461018557606036600319011261018557610637610c09565b3360009081527f80fc495aaaf8d17e3f0f01e98ecf2de6d37fa891873f4b915ab4b2f9b846a79a60205260409020546024359060ff16808015610799575b1561078857610722575b600160ff1b811461070c576101a79160018060a01b031690817f752cd0c4fe55d95cbe1325ebc6a35e473a741572f01a076425179f2421841bf8604080518460000381526044356020820152a260005460405163a9059cbb60e01b602082015260248101939093526044808401929092529082526001600160a01b0316610707606483610c62565b61186c565b634e487b7160e01b600052601160045260246000fd5b61072c82826114d8565b61073a610e10420642610d73565b8060005260016020526040600020610753838254610d80565b90556000526002602052604060002060018060a01b0383166000526020526040600020610781828254610d80565b905561067f565b636518c33d60e11b60005260046000fd5b50336000908152600080516020611a70833981519152602052604090205460ff16610675565b3461018557602036600319011261018557600435600052600080516020611a3083398151915260205260406000206040518060208354918281520190819360005260206000209060005b81811061086b575050508161081f910382610c62565b6040519182916020830190602084525180915260408301919060005b818110610849575050500390f35b82516001600160a01b031684528594506020938401939092019160010161083b565b8254845260209093019260019283019201610809565b3461018557600036600319011261018557602060405160008152f35b34610185576040366003190112610185576108b6610bf3565b600435600052600080516020611a9083398151915260205260406000209060018060a01b0316600052602052602060ff604060002054166040519015158152f35b3461018557604036600319011261018557600435600052600080516020611a30833981519152602052602061093260243560406000206118d3565b905460405160039290921b1c6001600160a01b03168152f35b34610185576040366003190112610185576101a7610967610c09565b60243590611038565b346101855760203660031901126101855760043567ffffffffffffffff8111610185576109a1903690600401610c9c565b336000908152600080516020611a70833981519152602052604090205460ff16156109cf576101a790611274565b63e2517d3f60e01b60005233600452600060245260446000fd5b3461018557606036600319011261018557610a02610c1f565b604435906001600160a01b038216820361018557602091610a269160243590610fb1565b604051908152f35b3461018557604036600319011261018557610a47610bf3565b336001600160a01b03821603610a63576101a79060043561115f565b63334bd91960e11b60005260046000fd5b3461018557600036600319011261018557602060405160148152f35b34610185576040366003190112610185576101a7600435610aaf610bf3565b90610abc6105a082610f90565b611117565b34610185576020366003190112610185576020610a26600435610f90565b34610185576020366003190112610185576060610b02610afd610c09565b610e3d565b90604051928352602083015215156040820152f35b34610185576040366003190112610185576020610a26610b35610c1f565b60243590610d8d565b3461018557604036600319011261018557610b57610bf3565b600435600052600260205260406000209060018060a01b03166000526020526020604060002054604051908152f35b34610185576020366003190112610185576004359063ffffffff60e01b821680920361018557602091635a05180f60e01b8114908115610bc8575b5015158152f35b637965db0b60e01b811491508115610be2575b5083610bc1565b6301ffc9a760e01b14905083610bdb565b602435906001600160a01b038216820361018557565b600435906001600160a01b038216820361018557565b6004359061ffff8216820361018557565b6060810190811067ffffffffffffffff821117610c4c57604052565b634e487b7160e01b600052604160045260246000fd5b90601f8019910116810190811067ffffffffffffffff821117610c4c57604052565b67ffffffffffffffff8111610c4c5760051b60200190565b81601f8201121561018557803590610cb382610c84565b92610cc16040519485610c62565b8284526020606081860194028301019181831161018557602001925b828410610ceb575050505090565b6060848303126101855760405190610d0282610c30565b843582526020850135602083015260408501359061ffff82168203610185578260209260406060950152815201930192610cdd565b600354811015610d5d57600360008181529102600080516020611a508339815191520191565b634e487b7160e01b600052603260045260246000fd5b9190820391821161070c57565b9190820180921161070c57565b610d9e600092610e10810690610d73565b82915b61ffff81168310610db25750505090565b909192610e10840290848204610e10148515171561070c57610df0600191610ddd61ffff9487610d73565b6000528260205260406000205490610d80565b940192919050610da1565b90604051610e0881610c30565b604061ffff600283958054855260018101546020860152015416910152565b9061ffff8091169116039061ffff821161070c57565b60001991826000926003548015610f80576000809260009060005b848110610e6a57505050505050929190565b610e7c610e7682610d37565b50610dfb565b9261ffff811680610e100290610e1082040361070c5761ffff97610ec8858a94610ece610ebd610eaf610ed49742610d73565b9260408c019e8f5116610e27565b9a610ec8838d610d8d565b90610d80565b99610fb1565b9651169280519081861015610f6b57602001908151881015610f565787610efe87610f0593610d73565b9251610d73565b9080821015610f325750878110610f22575b506001905b01610e58565b9099506001985095508888610f17565b9050878110610f45575b50600190610f1c565b909950600098509550886001610f3c565b50509850505050505050905060009190600190565b50509850505050505050905060009190600090565b5090935060001992506000919050565b600052600080516020611a9083398151915260205260016040600020015490565b9091610fc4600093610e10810690610d73565b9183925b61ffff82168410610fda575050505090565b90919293610e10850290858204610e10148615171561070c5761102c60019161100661ffff9486610d73565b6000526002602052604080600020600090858060a01b038a168252602052205490610d80565b95019392919050610fc8565b60408051838152600060208201526110b793926001600160a01b0316917f752cd0c4fe55d95cbe1325ebc6a35e473a741572f01a076425179f2421841bf891a26000546040516323b872dd60e01b60208201523360248201523060448201526064808201939093529182526001600160a01b0316610707608483610c62565b565b8051821015610d5d5760209160051b010190565b6000818152600080516020611a908339815191526020908152604080832033845290915290205460ff16156110ff5750565b63e2517d3f60e01b6000523360045260245260446000fd5b6111218282611723565b918261112c57505090565b6000918252600080516020611a30833981519152602052604090912061115b916001600160a01b0316906118eb565b5090565b61116982826117cc565b918261117457505090565b6000918252600080516020611a30833981519152602052604090912061115b916001600160a01b03169061195c565b60406020820191602081526003548093520190600360005260206000209060005b8181106111d15750505090565b825484526001808401546020860152600284015461ffff166040860152606090940193600390930192016111c4565b600354600160401b811015610c4c576001810160035560006003548210156112605760039081905202600080516020611a50833981519152016040600261ffff928451815560208501516001820155019201511661ffff19825416179055565b634e487b7160e01b81526032600452602490fd5b9060148251116114c75760035460006003558061146c575b5081511561143c57815115610d5d576020820151805180158015611430575b8015611420575b8015611413575b6113e957506112c790611200565b60015b82518110156113b3576112dd81846110b9565b518051600019830190838211908161070c576112f983886110b9565b51511091821592611391575b8215611365575b50508015611357575b61132b5790611325600192611200565b016112ca565b80519061ffff6040602083015192015116916338af09bb60e11b60005260045260245260445260646000fd5b508051602082015111611315565b604084015161ffff1692509061070c57604061138461ffff92886110b9565b510151161015388061130c565b915050602082015160009060206113a884896110b9565b510151101591611305565b5090507fb4f7fb15a3f27bb72f7ec353d6513cc033ba11934e1b4b9bdb7c020fc81c1628604051806113e4816111a3565b0390a1565b9061ffff6040602083015192015116916338af09bb60e11b60005260045260245260445260646000fd5b50602082015181106112b9565b5061ffff604083015116156112b2565b506020820151156112ab565b90507fb4f7fb15a3f27bb72f7ec353d6513cc033ba11934e1b4b9bdb7c020fc81c1628604051806113e4816111a3565b8060030290600382040361070c576003600052600080516020611a5083398151915201600080516020611a508339815191525b8181106114ac575061128c565b6003906000815560006001820155600060028201550161149f565b631025599160e01b60005260046000fd5b6003549182156115c2576000908180805b8681106114f95750505050505050565b611505610e7682610d37565b9461ffff831680610e100290610e1082040361070c5761ffff91610ec8876115306115559442610d73565b61154f61154460408d0199888b5116610e27565b99610ec8838c610d8d565b98610fb1565b925116946115638785610d80565b8151106115a55760206115768885610d80565b91015110611589576001019390936114e9565b8582631e2315fb60e11b60005260045260245260445260646000fd5b50858363c8b1a34f60e01b60005260045260245260445260646000fd5b505050565b6001600160a01b0381166000908152600080516020611a70833981519152602052604090205460ff1661164f576001600160a01b03166000818152600080516020611a7083398151915260205260408120805460ff191660011790553391907f2f8788117e7eff1d82e926ec794901d17c78024a50270940304540a733656f0d8180a4600190565b50600090565b6001600160a01b03811660009081527f80fc495aaaf8d17e3f0f01e98ecf2de6d37fa891873f4b915ab4b2f9b846a79a602052604090205460ff1661164f576001600160a01b031660008181527f80fc495aaaf8d17e3f0f01e98ecf2de6d37fa891873f4b915ab4b2f9b846a79a60205260408120805460ff191660011790553391907fdf91394c13c48ebd5370100f1eb84afe3c6c47a78f9f9f874d5a9ec6afe0ae6b907f2f8788117e7eff1d82e926ec794901d17c78024a50270940304540a733656f0d9080a4600190565b6000818152600080516020611a90833981519152602090815260408083206001600160a01b038616845290915290205460ff166117c5576000818152600080516020611a90833981519152602090815260408083206001600160a01b0395909516808452949091528120805460ff19166001179055339291907f2f8788117e7eff1d82e926ec794901d17c78024a50270940304540a733656f0d9080a4600190565b5050600090565b6000818152600080516020611a90833981519152602090815260408083206001600160a01b038616845290915290205460ff16156117c5576000818152600080516020611a90833981519152602090815260408083206001600160a01b0395909516808452949091528120805460ff19169055339291907ff6391f5c32d9c69d2a47ea670b442974b53935d1edc7fd64eb21e047a839171b9080a4600190565b906000602091828151910182855af1156118c7576000513d6118be57506001600160a01b0381163b155b61189d5750565b635274afe760e01b60009081526001600160a01b0391909116600452602490fd5b60011415611896565b6040513d6000823e3d90fd5b8054821015610d5d5760005260206000200190600090565b6001810190826000528160205260406000205415600014611954578054600160401b811015610c4c5761193f6119288260018794018555846118d3565b819391549060031b91821b91600019901b19161790565b90555491600052602052604060002055600190565b505050600090565b9060018201918160005282602052604060002054801515600014611a2657600019810181811161070c57825460001981019190821161070c578181036119ef575b505050805480156119d95760001901906119b782826118d3565b8154906000199060031b1b191690555560005260205260006040812055600190565b634e487b7160e01b600052603160045260246000fd5b611a0f6119ff61192893866118d3565b90549060031b1c928392866118d3565b90556000528360205260406000205538808061199d565b5050505060009056fec1f6fe24621ce81ec5827caf0253cadb74709b061630e6b55e82371705932000c2575a0e9e593c00f959f8c92f12db2869c3395a3b0502d05e2516446f71f85bb7db2dd08fcb62d0c9e08c51941cae53c267786a0b75803fb7960902fc8ef97d02dd7bc7dec4dceedda775e58dd541e08a116c6c53815c0bd028192f7b626800f0c57e16840df040f15088dc2f81fe391c3923bec73e23a9662efc9c229c6a00a2646970667358221220a519c4cd644839f89981a768b373f966c503ac731c275e924c21ae6bdbc7142264736f6c634300081a0033",
  "linkReferences": {},
  "deployedLinkReferences": {}
}