{
  "_format": "hh-sol-artifact-1",
  "contractName": "EHMarketV2",
  "sourceName": "contracts/EHMarketV2.sol",
  "abi": [
    {
      "inputs": [],
      "stateMutability": "nonpayable",
      "type": "constructor"
    },
    {
      "inputs": [],
      "name": "AccessControlBadConfirmation",
      "type": "error"
    },
    {
      "inputs": [
        {
          "internalType": "address",
          "name": "account",
          "type": "address"
        },
        {
          "internalType": "bytes32",
          "name": "neededRole",
          "type": "bytes32"
        }
      ],
      "name": "AccessControlUnauthorizedAccount",
      "type": "error"
    },
    {
      "inputs": [],
      "name": "InvalidInitialization",
      "type": "error"
    },
    {
      "inputs": [
        {
          "internalType": "uint256",
          "name": "limit",
          "type": "uint256"
        },
        {
          "internalType": "uint256",
          "name": "userLimit",
          "type": "uint256"
        },
        {
          "internalType": "uint16",
          "name": "timeWindow",
          "type": "uint16"
        }
      ],
      "name": "InvalidWithdrawLimit",
      "type": "error"
    },
    {
      "inputs": [],
      "name": "InvalidWithdrawLimitLength",
      "type": "error"
    },
    {
      "inputs": [],
      "name": "NotInitializing",
      "type": "error"
    },
    {
      "inputs": [
        {
          "internalType": "address",
          "name": "token",
          "type": "address"
        }
      ],
      "name": "SafeERC20FailedOperation",
      "type": "error"
    },
    {
      "inputs": [
        {
          "internalType": "uint256",
          "name": "currentTotal",
          "type": "uint256"
        },
        {
          "internalType": "uint256",
          "name": "requestedAmount",
          "type": "uint256"
        },
        {
          "internalType": "uint256",
          "name": "configIndex",
          "type": "uint256"
        }
      ],
      "name": "TotalLimitExceeded",
      "type": "error"
    },
    {
      "inputs": [],
      "name": "UnauthorizedSigner",
      "type": "error"
    },
    {
      "inputs": [
        {
          "internalType": "uint256",
          "name": "currentTotal",
          "type": "uint256"
        },
        {
          "internalType": "uint256",
          "name": "requestedAmount",
          "type": "uint256"
        },
        {
          "internalType": "uint256",
          "name": "configIndex",
          "type": "uint256"
        }
      ],
      "name": "UserLimitExceeded",
      "type": "error"
    },
    {
      "anonymous": false,
      "inputs": [
        {
          "indexed": true,
          "internalType": "address",
          "name": "delegator",
          "type": "address"
        },
        {
          "indexed": true,
          "internalType": "address",
          "name": "delegate",
          "type": "address"
        },
        {
          "indexed": false,
          "internalType": "uint256",
          "name": "allowance",
          "type": "uint256"
        }
      ],
      "name": "DelegateUpdated",
      "type": "event"
    },
    {
      "anonymous": false,
      "inputs": [
        {
          "indexed": false,
          "internalType": "uint64",
          "name": "version",
          "type": "uint64"
        }
      ],
      "name": "Initialized",
      "type": "event"
    },
    {
      "anonymous": false,
      "inputs": [
        {
          "indexed": true,
          "internalType": "bytes32",
          "name": "role",
          "type": "bytes32"
        },
        {
          "indexed": true,
          "internalType": "bytes32",
          "name": "previousAdminRole",
          "type": "bytes32"
        },
        {
          "indexed": true,
          "internalType": "bytes32",
          "name": "newAdminRole",
          "type": "bytes32"
        }
      ],
      "name": "RoleAdminChanged",
      "type": "event"
    },
    {
      "anonymous": false,
      "inputs": [
        {
          "indexed": true,
          "internalType": "bytes32",
          "name": "role",
          "type": "bytes32"
        },
        {
          "indexed": true,
          "internalType": "address",
          "name": "account",
          "type": "address"
        },
        {
          "indexed": true,
          "internalType": "address",
          "name": "sender",
          "type": "address"
        }
      ],
      "name": "RoleGranted",
      "type": "event"
    },
    {
      "anonymous": false,
      "inputs": [
        {
          "indexed": true,
          "internalType": "bytes32",
          "name": "role",
          "type": "bytes32"
        },
        {
          "indexed": true,
          "internalType": "address",
          "name": "account",
          "type": "address"
        },
        {
          "indexed": true,
          "internalType": "address",
          "name": "sender",
          "type": "address"
        }
      ],
      "name": "RoleRevoked",
      "type": "event"
    },
    {
      "anonymous": false,
      "inputs": [
        {
          "indexed": true,
          "internalType": "address",
          "name": "account",
          "type": "address"
        },
        {
          "indexed": false,
          "internalType": "int256",
          "name": "amount",
          "type": "int256"
        },
        {
          "indexed": false,
          "internalType": "uint256",
          "name": "requestId",
          "type": "uint256"
        }
      ],
      "name": "UserBalanceChanged",
      "type": "event"
    },
    {
      "anonymous": false,
      "inputs": [
        {
          "components": [
            {
              "internalType": "uint256",
              "name": "limit",
              "type": "uint256"
            },
            {
              "internalType": "uint256",
              "name": "userLimit",
              "type": "uint256"
            },
            {
              "internalType": "uint16",
              "name": "timeWindow",
              "type": "uint16"
            }
          ],
          "indexed": false,
          "internalType": "struct EHMarketV2.WithdrawLimit[]",
          "name": "withdrawLimits",
          "type": "tuple[]"
        }
      ],
      "name": "WithdrawLimitsUpdated",
      "type": "event"
    },
    {
      "inputs": [],
      "name": "DEFAULT_ADMIN_ROLE",
      "outputs": [
        {
          "internalType": "bytes32",
          "name": "",
          "type": "bytes32"
        }
      ],
      "stateMutability": "view",
      "type": "function"
    },
    {
      "inputs": [],
      "name": "MATCHER_ROLE",
      "outputs": [
        {
          "internalType": "bytes32",
          "name": "",
          "type": "bytes32"
        }
      ],
      "stateMutability": "view",
      "type": "function"
    },
    {
      "inputs": [],
      "name": "MAX_LIMIT_CONFIGS",
      "outputs": [
        {
          "internalType": "uint256",
          "name": "",
          "type": "uint256"
        }
      ],
      "stateMutability": "view",
      "type": "function"
    },
    {
      "inputs": [],
      "name": "collateral",
      "outputs": [
        {
          "internalType": "address",
          "name": "",
          "type": "address"
        }
      ],
      "stateMutability": "view",
      "type": "function"
    },
    {
      "inputs": [
        {
          "internalType": "uint256",
          "name": "amount",
          "type": "uint256"
        }
      ],
      "name": "depositAsset",
      "outputs": [],
      "stateMutability": "nonpayable",
      "type": "function"
    },
    {
      "inputs": [
        {
          "internalType": "address",
          "name": "to",
          "type": "address"
        },
        {
          "internalType": "uint256",
          "name": "amount",
          "type": "uint256"
        }
      ],
      "name": "depositAssetTo",
      "outputs": [],
      "stateMutability": "nonpayable",
      "type": "function"
    },
    {
      "inputs": [
        {
          "internalType": "address",
          "name": "user",
          "type": "address"
        }
      ],
      "name": "getMaxWithdrawAmount",
      "outputs": [
        {
          "internalType": "uint256",
          "name": "maxAmount",
          "type": "uint256"
        },
        {
          "internalType": "uint256",
          "name": "limitingIndex",
          "type": "uint256"
        },
        {
          "internalType": "bool",
          "name": "isUserLimit",
          "type": "bool"
        }
      ],
      "stateMutability": "view",
      "type": "function"
    },
    {
      "inputs": [
        {
          "internalType": "bytes32",
          "name": "role",
          "type": "bytes32"
        }
      ],
      "name": "getRoleAdmin",
      "outputs": [
        {
          "internalType": "bytes32",
          "name": "",
          "type": "bytes32"
        }
      ],
      "stateMutability": "view",
      "type": "function"
    },
    {
      "inputs": [
        {
          "internalType": "bytes32",
          "name": "role",
          "type": "bytes32"
        },
        {
          "internalType": "uint256",
          "name": "index",
          "type": "uint256"
        }
      ],
      "name": "getRoleMember",
      "outputs": [
        {
          "internalType": "address",
          "name": "",
          "type": "address"
        }
      ],
      "stateMutability": "view",
      "type": "function"
    },
    {
      "inputs": [
        {
          "internalType": "bytes32",
          "name": "role",
          "type": "bytes32"
        }
      ],
      "name": "getRoleMemberCount",
      "outputs": [
        {
          "internalType": "uint256",
          "name": "",
          "type": "uint256"
        }
      ],
      "stateMutability": "view",
      "type": "function"
    },
    {
      "inputs": [
        {
          "internalType": "bytes32",
          "name": "role",
          "type": "bytes32"
        }
      ],
      "name": "getRoleMembers",
      "outputs": [
        {
          "internalType": "address[]",
          "name": "",
          "type": "address[]"
        }
      ],
      "stateMutability": "view",
      "type": "function"
    },
    {
      "inputs": [
        {
          "internalType": "uint16",
          "name": "_hours",
          "type": "uint16"
        },
        {
          "internalType": "uint256",
          "name": "timestamp",
          "type": "uint256"
        }
      ],
      "name": "getTotalWithdraw",
      "outputs": [
        {
          "internalType": "uint256",
          "name": "",
          "type": "uint256"
        }
      ],
      "stateMutability": "view",
      "type": "function"
    },
    {
      "inputs": [
        {
          "internalType": "uint16",
          "name": "_hours",
          "type": "uint16"
        },
        {
          "internalType": "uint256",
          "name": "timestamp",
          "type": "uint256"
        },
        {
          "internalType": "address",
          "name": "user",
          "type": "address"
        }
      ],
      "name": "getUserTotalWithdraw",
      "outputs": [
        {
          "internalType": "uint256",
          "name": "",
          "type": "uint256"
        }
      ],
      "stateMutability": "view",
      "type": "function"
    },
    {
      "inputs": [
        {
          "internalType": "bytes32",
          "name": "role",
          "type": "bytes32"
        },
        {
          "internalType": "address",
          "name": "account",
          "type": "address"
        }
      ],
      "name": "grantRole",
      "outputs": [],
      "stateMutability": "nonpayable",
      "type": "function"
    },
    {
      "inputs": [
        {
          "internalType": "bytes32",
          "name": "role",
          "type": "bytes32"
        },
        {
          "internalType": "address",
          "name": "account",
          "type": "address"
        }
      ],
      "name": "hasRole",
      "outputs": [
        {
          "internalType": "bool",
          "name": "",
          "type": "bool"
        }
      ],
      "stateMutability": "view",
      "type": "function"
    },
    {
      "inputs": [
        {
          "internalType": "uint256",
          "name": "",
          "type": "uint256"
        }
      ],
      "name": "hourlyWithdrawals",
      "outputs": [
        {
          "internalType": "uint256",
          "name": "",
          "type": "uint256"
        }
      ],
      "stateMutability": "view",
      "type": "function"
    },
    {
      "inputs": [
        {
          "internalType": "address[]",
          "name": "_matchers",
          "type": "address[]"
        },
        {
          "internalType": "address",
          "name": "_collateral",
          "type": "address"
        },
        {
          "components": [
            {
              "internalType": "uint256",
              "name": "limit",
              "type": "uint256"
            },
            {
              "internalType": "uint256",
              "name": "userLimit",
              "type": "uint256"
            },
            {
              "internalType": "uint16",
              "name": "timeWindow",
              "type": "uint16"
            }
          ],
          "internalType": "struct EHMarketV2.WithdrawLimit[]",
          "name": "_initialWithdrawLimits",
          "type": "tuple[]"
        }
      ],
      "name": "initialize",
      "outputs": [],
      "stateMutability": "nonpayable",
      "type": "function"
    },
    {
      "inputs": [
        {
          "internalType": "bytes32",
          "name": "role",
          "type": "bytes32"
        },
        {
          "internalType": "address",
          "name": "callerConfirmation",
          "type": "address"
        }
      ],
      "name": "renounceRole",
      "outputs": [],
      "stateMutability": "nonpayable",
      "type": "function"
    },
    {
      "inputs": [
        {
          "internalType": "bytes32",
          "name": "role",
          "type": "bytes32"
        },
        {
          "internalType": "address",
          "name": "account",
          "type": "address"
        }
      ],
      "name": "revokeRole",
      "outputs": [],
      "stateMutability": "nonpayable",
      "type": "function"
    },
    {
      "inputs": [
        {
          "internalType": "address",
          "name": "delegate",
          "type": "address"
        },
        {
          "internalType": "uint256",
          "name": "allowance",
          "type": "uint256"
        }
      ],
      "name": "setDelegate",
      "outputs": [],
      "stateMutability": "nonpayable",
      "type": "function"
    },
    {
      "inputs": [
        {
          "components": [
            {
              "internalType": "uint256",
              "name": "limit",
              "type": "uint256"
            },
            {
              "internalType": "uint256",
              "name": "userLimit",
              "type": "uint256"
            },
            {
              "internalType": "uint16",
              "name": "timeWindow",
              "type": "uint16"
            }
          ],
          "internalType": "struct EHMarketV2.WithdrawLimit[]",
          "name": "_withdrawLimits",
          "type": "tuple[]"
        }
      ],
      "name": "setWithdrawLimits",
      "outputs": [],
      "stateMutability": "nonpayable",
      "type": "function"
    },
    {
      "inputs": [
        {
          "internalType": "bytes4",
          "name": "interfaceId",
          "type": "bytes4"
        }
      ],
      "name": "supportsInterface",
      "outputs": [
        {
          "internalType": "bool",
          "name": "",
          "type": "bool"
        }
      ],
      "stateMutability": "view",
      "type": "function"
    },
    {
      "inputs": [
        {
          "internalType": "uint256",
          "name": "",
          "type": "uint256"
        },
        {
          "internalType": "address",
          "name": "",
          "type": "address"
        }
      ],
      "name": "userHourlyWithdrawals",
      "outputs": [
        {
          "internalType": "uint256",
          "name": "",
          "type": "uint256"
        }
      ],
      "stateMutability": "view",
      "type": "function"
    },
    {
      "inputs": [
        {
          "internalType": "address",
          "name": "from",
          "type": "address"
        },
        {
          "internalType": "uint256",
          "name": "amount",
          "type": "uint256"
        },
        {
          "internalType": "uint256",
          "name": "requestId",
          "type": "uint256"
        }
      ],
      "name": "withdrawAsset",
      "outputs": [],
      "stateMutability": "nonpayable",
      "type": "function"
    },
    {
      "inputs": [
        {
          "internalType": "uint256",
          "name": "",
          "type": "uint256"
        }
      ],
      "name": "withdrawLimits",
      "outputs": [
        {
          "internalType": "uint256",
          "name": "limit",
          "type": "uint256"
        },
        {
          "internalType": "uint256",
          "name": "userLimit",
          "type": "uint256"
        },
        {
          "internalType": "uint16",
          "name": "timeWindow",
          "type": "uint16"
        }
      ],
      "stateMutability": "view",
      "type": "function"
    }
  ],
  "bytecode": "0x6080806040523460d2577ff0c57e16840df040f15088dc2f81fe391c3923bec73e23a9662efc9c229c6a005460ff8160401c1660c1576002600160401b03196001600160401b03821601605c575b604051611b5990816100d88239f35b6001600160401b0319166001600160401b039081177ff0c57e16840df040f15088dc2f81fe391c3923bec73e23a9662efc9c229c6a005581527fc7f505b2f371ae2175ee4913f4499e1f2633a7b5936321eed1cdaeb6115181d290602090a13880604d565b63f92ee8a960e01b60005260046000fd5b600080fdfe608080604052600436101561001357600080fd5b60003560e01c90816301ffc9a714610b945750806304f6d23e14610b4c5780630ce62bf214610b2557806321ff22d614610aed578063248a9ca314610acf5780632f2ff15d14610a9e57806330726c1814610a8257806336568abe14610a3c5780633d3a2459146109f7578063828271431461097e5780638aaa6b92146109595780639010d07c1461090557806391d14854146108ab578063a217fddf1461088f578063a3246ad3146107cd578063b1dab9481461061e578063b2194ff5146105e3578063ca15c873146105aa578063d547741f14610574578063d6a510d91461051d578063d8dfeb45146104f4578063e48da9c7146104c8578063e988a8bb146101a9578063fa2df4141461018a5763fd6e1a831461013257600080fd5b34610185576020366003190112610185576004356003548110156101855761015990610d45565b5080549061ffff6002600183015492015416906040519283526020830152604082015260608180030190f35b600080fd5b34610185576020366003190112610185576101a760043533611046565b005b346101855760603660031901126101855760043567ffffffffffffffff811161018557366023820112156101855780600401356101e581610c92565b916101f36040519384610c70565b8183526024602084019260051b8201019036821161018557602401915b8183106104a85783610220610c01565b60443567ffffffffffffffff811161018557610240903690600401610caa565b91600080516020611b04833981519152549260ff8460401c16159367ffffffffffffffff8116801590816104a0575b6001149081610496575b15908161048d575b5061047c5767ffffffffffffffff198116600117600080516020611b04833981519152558461044f575b5060ff600080516020611b048339815191525460401c161561043e576102d03361161b565b6103f8575b60005b8251811015610374576001906001600160a01b036102f682866110c7565b5116610301816116a9565b61030d575b50016102d8565b7fdf91394c13c48ebd5370100f1eb84afe3c6c47a78f9f9f874d5a9ec6afe0ae6b600052600080516020611a8483398151915260205261036d907f9fa5f5ebb43f5e5b68dc549bffd347e114a2de1747d0c4e936b58d7d895932ca61193f565b5086610306565b600080546001600160a01b0319166001600160a01b038616179055846103998361120e565b61039f57005b68ff000000000000000019600080516020611b048339815191525416600080516020611b04833981519152557fc7f505b2f371ae2175ee4913f4499e1f2633a7b5936321eed1cdaeb6115181d2602060405160018152a1005b60008052600080516020611a84833981519152602052610438337f615f0f9e84155bea8cc509fe18befeb1baf65611e38a6ba60964480fb29dfd4461193f565b506102d5565b631afcd79f60e31b60005260046000fd5b68ffffffffffffffffff19166801000000000000000117600080516020611b0483398151915255846102ab565b63f92ee8a960e01b60005260046000fd5b90501586610281565b303b159150610279565b86915061026f565b82356001600160a01b038116810361018557815260209283019201610210565b346101855760203660031901126101855760043560005260016020526020604060002054604051908152f35b34610185576000366003190112610185576000546040516001600160a01b039091168152602090f35b3461018557604036600319011261018557610536610c17565b60405160243581526001600160a01b039091169033907fe46208ae3c8157621e96e03a67b3fc7b61b734022b04cf097b94dd994dd95b4390602090a3005b34610185576040366003190112610185576101a7600435610593610c01565b906105a56105a082610f9e565b6110db565b61116d565b3461018557602036600319011261018557600435600052600080516020611a848339815191526020526020604060002054604051908152f35b346101855760003660031901126101855760206040517fdf91394c13c48ebd5370100f1eb84afe3c6c47a78f9f9f874d5a9ec6afe0ae6b8152f35b3461018557606036600319011261018557610637610c17565b3360009081527f80fc495aaaf8d17e3f0f01e98ecf2de6d37fa891873f4b915ab4b2f9b846a79a6020908152604080832054600080516020611ac4833981519152909252909120546024359160ff90811691168180156107c6575b156107b557816107ac575b50610746575b600160ff1b8114610730576101a79160018060a01b031690817f752cd0c4fe55d95cbe1325ebc6a35e473a741572f01a076425179f2421841bf8604080518460000381526044356020820152a260005460405163a9059cbb60e01b602082015260248101939093526044808401929092529082526001600160a01b031661072b606483610c70565b6118c0565b634e487b7160e01b600052601160045260246000fd5b610750828261152c565b61075e610e10420642610d81565b8060005260016020526040600020610777838254610d8e565b90556000526002602052604060002060018060a01b03831660005260205260406000206107a5828254610d8e565b90556106a3565b9050158361069d565b636518c33d60e11b60005260046000fd5b5080610692565b3461018557602036600319011261018557600435600052600080516020611a8483398151915260205260406000206040518060208354918281520190819360005260206000209060005b818110610879575050508161082d910382610c70565b6040519182916020830190602084525180915260408301919060005b818110610857575050500390f35b82516001600160a01b0316845285945060209384019390920191600101610849565b8254845260209093019260019283019201610817565b3461018557600036600319011261018557602060405160008152f35b34610185576040366003190112610185576108c4610c01565b600435600052600080516020611ae483398151915260205260406000209060018060a01b0316600052602052602060ff604060002054166040519015158152f35b3461018557604036600319011261018557600435600052600080516020611a8483398151915260205260206109406024356040600020611927565b905460405160039290921b1c6001600160a01b03168152f35b34610185576040366003190112610185576101a7610975610c17565b60243590611046565b346101855760203660031901126101855760043567ffffffffffffffff8111610185576109af903690600401610caa565b336000908152600080516020611ac4833981519152602052604090205460ff16156109dd576101a79061120e565b63e2517d3f60e01b60005233600452600060245260446000fd5b3461018557606036600319011261018557610a10610c2d565b604435906001600160a01b038216820361018557602091610a349160243590610fbf565b604051908152f35b3461018557604036600319011261018557610a55610c01565b336001600160a01b03821603610a71576101a79060043561116d565b63334bd91960e11b60005260046000fd5b3461018557600036600319011261018557602060405160148152f35b34610185576040366003190112610185576101a7600435610abd610c01565b90610aca6105a082610f9e565b611125565b34610185576020366003190112610185576020610a34600435610f9e565b34610185576020366003190112610185576060610b10610b0b610c17565b610e4b565b90604051928352602083015215156040820152f35b34610185576040366003190112610185576020610a34610b43610c2d565b60243590610d9b565b3461018557604036600319011261018557610b65610c01565b600435600052600260205260406000209060018060a01b03166000526020526020604060002054604051908152f35b34610185576020366003190112610185576004359063ffffffff60e01b821680920361018557602091635a05180f60e01b8114908115610bd6575b5015158152f35b637965db0b60e01b811491508115610bf0575b5083610bcf565b6301ffc9a760e01b14905083610be9565b602435906001600160a01b038216820361018557565b600435906001600160a01b038216820361018557565b6004359061ffff8216820361018557565b6060810190811067ffffffffffffffff821117610c5a57604052565b634e487b7160e01b600052604160045260246000fd5b90601f8019910116810190811067ffffffffffffffff821117610c5a57604052565b67ffffffffffffffff8111610c5a5760051b60200190565b81601f8201121561018557803590610cc182610c92565b92610ccf6040519485610c70565b8284526020606081860194028301019181831161018557602001925b828410610cf9575050505090565b6060848303126101855760405190610d1082610c3e565b843582526020850135602083015260408501359061ffff82168203610185578260209260406060950152815201930192610ceb565b600354811015610d6b57600360008181529102600080516020611aa48339815191520191565b634e487b7160e01b600052603260045260246000fd5b9190820391821161073057565b9190820180921161073057565b610dac600092610e10810690610d81565b82915b61ffff81168310610dc05750505090565b909192610e10840290848204610e10148515171561073057610dfe600191610deb61ffff9487610d81565b6000528260205260406000205490610d8e565b940192919050610daf565b90604051610e1681610c3e565b604061ffff600283958054855260018101546020860152015416910152565b9061ffff8091169116039061ffff821161073057565b60001991826000926003548015610f8e576000809260009060005b848110610e7857505050505050929190565b610e8a610e8482610d45565b50610e09565b9261ffff811680610e100290610e108204036107305761ffff97610ed6858a94610edc610ecb610ebd610ee29742610d81565b9260408c019e8f5116610e35565b9a610ed6838d610d9b565b90610d8e565b99610fbf565b9651169280519081861015610f7957602001908151881015610f645787610f0c87610f1393610d81565b9251610d81565b9080821015610f405750878110610f30575b506001905b01610e66565b9099506001985095508888610f25565b9050878110610f53575b50600190610f2a565b909950600098509550886001610f4a565b50509850505050505050905060009190600190565b50509850505050505050905060009190600090565b5090935060001992506000919050565b600052600080516020611ae483398151915260205260016040600020015490565b9091610fd2600093610e10810690610d81565b9183925b61ffff82168410610fe8575050505090565b90919293610e10850290858204610e1014861517156107305761103a60019161101461ffff9486610d81565b6000526002602052604080600020600090858060a01b038a168252602052205490610d8e565b95019392919050610fd6565b60408051838152600060208201526110c593926001600160a01b0316917f752cd0c4fe55d95cbe1325ebc6a35e473a741572f01a076425179f2421841bf891a26000546040516323b872dd60e01b60208201523360248201523060448201526064808201939093529182526001600160a01b031661072b608483610c70565b565b8051821015610d6b5760209160051b010190565b6000818152600080516020611ae48339815191526020908152604080832033845290915290205460ff161561110d5750565b63e2517d3f60e01b6000523360045260245260446000fd5b61112f8282611777565b918261113a57505090565b6000918252600080516020611a848339815191526020526040909120611169916001600160a01b03169061193f565b5090565b6111778282611820565b918261118257505090565b6000918252600080516020611a848339815191526020526040909120611169916001600160a01b0316906119b0565b60406020820191602081526003548093520190600360005260206000209060005b8181106111df5750505090565b825484526001808401546020860152600284015461ffff166040860152606090940193600390930192016111d2565b90601482511161151b576003546000600355806114cc575b5081511561149c57815115610d6b576020820190815180519081158015611490575b8015611480575b8015611473575b61144a57505060015b835181101561133f5761127281856110c7565b51805160001983019083821190816107305761128e83896110c7565b5151109182159261131d575b82156112f1575b505080156112e3575b6112b7575060010161125f565b80519061ffff6040602083015192015116916338af09bb60e11b60005260045260245260445260646000fd5b5080516020820151116112aa565b604084015161ffff1692509061073057604061131061ffff92896110c7565b51015116101538806112a1565b91505060208201516000906020611334848a6110c7565b51015110159161129a565b50915190600160401b8211610c5a57600354826003558083106113ec575b506003600052600080516020611aa48339815191526000915b8383106113b457505050507fb4f7fb15a3f27bb72f7ec353d6513cc033ba11934e1b4b9bdb7c020fc81c1628604051806113af816111b1565b0390a1565b60036020826001935180518655828101518587015561ffff6040600288019201511661ffff1982541617905501920192019190611376565b806003029060038204036107305782600302600381048403610730576003600052600080516020611aa483398151915291820191015b81811061142f575061135d565b60039060008155600060018201556000600282015501611422565b61ffff6040602083015192015116916338af09bb60e11b60005260045260245260445260646000fd5b5060208101518210611256565b5061ffff6040820151161561124f565b50602081015115611248565b90507fb4f7fb15a3f27bb72f7ec353d6513cc033ba11934e1b4b9bdb7c020fc81c1628604051806113af816111b1565b806003029060038204036107305760036000908152600080516020611aa4833981519152918201915b828110611503575050611226565b600390828155826001820155826002820155016114f5565b631025599160e01b60005260046000fd5b600354918215611616576000908180805b86811061154d5750505050505050565b611559610e8482610d45565b9461ffff831680610e100290610e108204036107305761ffff91610ed6876115846115a99442610d81565b6115a361159860408d0199888b5116610e35565b99610ed6838c610d9b565b98610fbf565b925116946115b78785610d8e565b8151106115f95760206115ca8885610d8e565b910151106115dd5760010193909361153d565b8582631e2315fb60e11b60005260045260245260445260646000fd5b50858363c8b1a34f60e01b60005260045260245260445260646000fd5b505050565b6001600160a01b0381166000908152600080516020611ac4833981519152602052604090205460ff166116a3576001600160a01b03166000818152600080516020611ac483398151915260205260408120805460ff191660011790553391907f2f8788117e7eff1d82e926ec794901d17c78024a50270940304540a733656f0d8180a4600190565b50600090565b6001600160a01b03811660009081527f80fc495aaaf8d17e3f0f01e98ecf2de6d37fa891873f4b915ab4b2f9b846a79a602052604090205460ff166116a3576001600160a01b031660008181527f80fc495aaaf8d17e3f0f01e98ecf2de6d37fa891873f4b915ab4b2f9b846a79a60205260408120805460ff191660011790553391907fdf91394c13c48ebd5370100f1eb84afe3c6c47a78f9f9f874d5a9ec6afe0ae6b907f2f8788117e7eff1d82e926ec794901d17c78024a50270940304540a733656f0d9080a4600190565b6000818152600080516020611ae4833981519152602090815260408083206001600160a01b038616845290915290205460ff16611819576000818152600080516020611ae4833981519152602090815260408083206001600160a01b0395909516808452949091528120805460ff19166001179055339291907f2f8788117e7eff1d82e926ec794901d17c78024a50270940304540a733656f0d9080a4600190565b5050600090565b6000818152600080516020611ae4833981519152602090815260408083206001600160a01b038616845290915290205460ff1615611819576000818152600080516020611ae4833981519152602090815260408083206001600160a01b0395909516808452949091528120805460ff19169055339291907ff6391f5c32d9c69d2a47ea670b442974b53935d1edc7fd64eb21e047a839171b9080a4600190565b906000602091828151910182855af11561191b576000513d61191257506001600160a01b0381163b155b6118f15750565b635274afe760e01b60009081526001600160a01b0391909116600452602490fd5b600114156118ea565b6040513d6000823e3d90fd5b8054821015610d6b5760005260206000200190600090565b60018101908260005281602052604060002054156000146119a8578054600160401b811015610c5a5761199361197c826001879401855584611927565b819391549060031b91821b91600019901b19161790565b90555491600052602052604060002055600190565b505050600090565b9060018201918160005282602052604060002054801515600014611a7a57600019810181811161073057825460001981019190821161073057818103611a43575b50505080548015611a2d576000190190611a0b8282611927565b8154906000199060031b1b191690555560005260205260006040812055600190565b634e487b7160e01b600052603160045260246000fd5b611a63611a5361197c9386611927565b90549060031b1c92839286611927565b9055600052836020526040600020553880806119f1565b5050505060009056fec1f6fe24621ce81ec5827caf0253cadb74709b061630e6b55e82371705932000c2575a0e9e593c00f959f8c92f12db2869c3395a3b0502d05e2516446f71f85bb7db2dd08fcb62d0c9e08c51941cae53c267786a0b75803fb7960902fc8ef97d02dd7bc7dec4dceedda775e58dd541e08a116c6c53815c0bd028192f7b626800f0c57e16840df040f15088dc2f81fe391c3923bec73e23a9662efc9c229c6a00a2646970667358221220f734a42d0371ab258864f48288817962910168634e352724afa0860a3b25e4f764736f6c634300081a0033",
  "linkReferences": {},
  "deployedLinkReferences": {}
}