{
  "_format": "hh-sol-artifact-1",
  "contractName": "EHMarketV3",
  "sourceName": "contracts/EHMarketV3.sol",
  "abi": [
    {
      "inputs": [],
      "stateMutability": "nonpayable",
      "type": "constructor"
    },
    {
      "inputs": [],
      "name": "AccessControlBadConfirmation",
      "type": "error"
    },
    {
      "inputs": [
        {
          "internalType": "address",
          "name": "account",
          "type": "address"
        },
        {
          "internalType": "bytes32",
          "name": "neededRole",
          "type": "bytes32"
        }
      ],
      "name": "AccessControlUnauthorizedAccount",
      "type": "error"
    },
    {
      "inputs": [],
      "name": "InvalidInitialization",
      "type": "error"
    },
    {
      "inputs": [
        {
          "internalType": "uint256",
          "name": "limit",
          "type": "uint256"
        },
        {
          "internalType": "uint256",
          "name": "userLimit",
          "type": "uint256"
        },
        {
          "internalType": "uint16",
          "name": "timeWindow",
          "type": "uint16"
        }
      ],
      "name": "InvalidWithdrawLimit",
      "type": "error"
    },
    {
      "inputs": [],
      "name": "InvalidWithdrawLimitLength",
      "type": "error"
    },
    {
      "inputs": [],
      "name": "NotInitializing",
      "type": "error"
    },
    {
      "inputs": [
        {
          "internalType": "address",
          "name": "token",
          "type": "address"
        }
      ],
      "name": "SafeERC20FailedOperation",
      "type": "error"
    },
    {
      "inputs": [
        {
          "internalType": "uint256",
          "name": "currentTotal",
          "type": "uint256"
        },
        {
          "internalType": "uint256",
          "name": "requestedAmount",
          "type": "uint256"
        },
        {
          "internalType": "uint256",
          "name": "configIndex",
          "type": "uint256"
        }
      ],
      "name": "TotalLimitExceeded",
      "type": "error"
    },
    {
      "inputs": [],
      "name": "UnauthorizedSigner",
      "type": "error"
    },
    {
      "inputs": [
        {
          "internalType": "uint256",
          "name": "currentTotal",
          "type": "uint256"
        },
        {
          "internalType": "uint256",
          "name": "requestedAmount",
          "type": "uint256"
        },
        {
          "internalType": "uint256",
          "name": "configIndex",
          "type": "uint256"
        }
      ],
      "name": "UserLimitExceeded",
      "type": "error"
    },
    {
      "anonymous": false,
      "inputs": [
        {
          "indexed": true,
          "internalType": "address",
          "name": "delegator",
          "type": "address"
        },
        {
          "indexed": true,
          "internalType": "address",
          "name": "delegate",
          "type": "address"
        },
        {
          "indexed": false,
          "internalType": "uint256",
          "name": "allowance",
          "type": "uint256"
        }
      ],
      "name": "DelegateUpdated",
      "type": "event"
    },
    {
      "anonymous": false,
      "inputs": [
        {
          "indexed": false,
          "internalType": "uint64",
          "name": "version",
          "type": "uint64"
        }
      ],
      "name": "Initialized",
      "type": "event"
    },
    {
      "anonymous": false,
      "inputs": [
        {
          "indexed": true,
          "internalType": "bytes32",
          "name": "role",
          "type": "bytes32"
        },
        {
          "indexed": true,
          "internalType": "bytes32",
          "name": "previousAdminRole",
          "type": "bytes32"
        },
        {
          "indexed": true,
          "internalType": "bytes32",
          "name": "newAdminRole",
          "type": "bytes32"
        }
      ],
      "name": "RoleAdminChanged",
      "type": "event"
    },
    {
      "anonymous": false,
      "inputs": [
        {
          "indexed": true,
          "internalType": "bytes32",
          "name": "role",
          "type": "bytes32"
        },
        {
          "indexed": true,
          "internalType": "address",
          "name": "account",
          "type": "address"
        },
        {
          "indexed": true,
          "internalType": "address",
          "name": "sender",
          "type": "address"
        }
      ],
      "name": "RoleGranted",
      "type": "event"
    },
    {
      "anonymous": false,
      "inputs": [
        {
          "indexed": true,
          "internalType": "bytes32",
          "name": "role",
          "type": "bytes32"
        },
        {
          "indexed": true,
          "internalType": "address",
          "name": "account",
          "type": "address"
        },
        {
          "indexed": true,
          "internalType": "address",
          "name": "sender",
          "type": "address"
        }
      ],
      "name": "RoleRevoked",
      "type": "event"
    },
    {
      "anonymous": false,
      "inputs": [
        {
          "indexed": true,
          "internalType": "address",
          "name": "account",
          "type": "address"
        },
        {
          "indexed": false,
          "internalType": "int256",
          "name": "amount",
          "type": "int256"
        },
        {
          "indexed": false,
          "internalType": "uint256",
          "name": "requestId",
          "type": "uint256"
        }
      ],
      "name": "UserBalanceChanged",
      "type": "event"
    },
    {
      "anonymous": false,
      "inputs": [
        {
          "components": [
            {
              "internalType": "uint256",
              "name": "limit",
              "type": "uint256"
            },
            {
              "internalType": "uint256",
              "name": "userLimit",
              "type": "uint256"
            },
            {
              "internalType": "uint16",
              "name": "timeWindow",
              "type": "uint16"
            }
          ],
          "indexed": false,
          "internalType": "struct EHMarketV3.WithdrawLimit[]",
          "name": "withdrawLimits",
          "type": "tuple[]"
        }
      ],
      "name": "WithdrawLimitsUpdated",
      "type": "event"
    },
    {
      "inputs": [],
      "name": "DEFAULT_ADMIN_ROLE",
      "outputs": [
        {
          "internalType": "bytes32",
          "name": "",
          "type": "bytes32"
        }
      ],
      "stateMutability": "view",
      "type": "function"
    },
    {
      "inputs": [],
      "name": "MATCHER_ROLE",
      "outputs": [
        {
          "internalType": "bytes32",
          "name": "",
          "type": "bytes32"
        }
      ],
      "stateMutability": "view",
      "type": "function"
    },
    {
      "inputs": [],
      "name": "MAX_LIMIT_CONFIGS",
      "outputs": [
        {
          "internalType": "uint256",
          "name": "",
          "type": "uint256"
        }
      ],
      "stateMutability": "view",
      "type": "function"
    },
    {
      "inputs": [],
      "name": "collateral",
      "outputs": [
        {
          "internalType": "address",
          "name": "",
          "type": "address"
        }
      ],
      "stateMutability": "view",
      "type": "function"
    },
    {
      "inputs": [
        {
          "internalType": "uint256",
          "name": "amount",
          "type": "uint256"
        }
      ],
      "name": "depositAsset",
      "outputs": [],
      "stateMutability": "nonpayable",
      "type": "function"
    },
    {
      "inputs": [
        {
          "internalType": "address",
          "name": "to",
          "type": "address"
        },
        {
          "internalType": "uint256",
          "name": "amount",
          "type": "uint256"
        }
      ],
      "name": "depositAssetTo",
      "outputs": [],
      "stateMutability": "nonpayable",
      "type": "function"
    },
    {
      "inputs": [
        {
          "internalType": "address",
          "name": "user",
          "type": "address"
        }
      ],
      "name": "getMaxWithdrawAmount",
      "outputs": [
        {
          "internalType": "uint256",
          "name": "maxAmount",
          "type": "uint256"
        },
        {
          "internalType": "uint256",
          "name": "limitingIndex",
          "type": "uint256"
        },
        {
          "internalType": "bool",
          "name": "isUserLimit",
          "type": "bool"
        }
      ],
      "stateMutability": "view",
      "type": "function"
    },
    {
      "inputs": [
        {
          "internalType": "bytes32",
          "name": "role",
          "type": "bytes32"
        }
      ],
      "name": "getRoleAdmin",
      "outputs": [
        {
          "internalType": "bytes32",
          "name": "",
          "type": "bytes32"
        }
      ],
      "stateMutability": "view",
      "type": "function"
    },
    {
      "inputs": [
        {
          "internalType": "bytes32",
          "name": "role",
          "type": "bytes32"
        },
        {
          "internalType": "uint256",
          "name": "index",
          "type": "uint256"
        }
      ],
      "name": "getRoleMember",
      "outputs": [
        {
          "internalType": "address",
          "name": "",
          "type": "address"
        }
      ],
      "stateMutability": "view",
      "type": "function"
    },
    {
      "inputs": [
        {
          "internalType": "bytes32",
          "name": "role",
          "type": "bytes32"
        }
      ],
      "name": "getRoleMemberCount",
      "outputs": [
        {
          "internalType": "uint256",
          "name": "",
          "type": "uint256"
        }
      ],
      "stateMutability": "view",
      "type": "function"
    },
    {
      "inputs": [
        {
          "internalType": "bytes32",
          "name": "role",
          "type": "bytes32"
        }
      ],
      "name": "getRoleMembers",
      "outputs": [
        {
          "internalType": "address[]",
          "name": "",
          "type": "address[]"
        }
      ],
      "stateMutability": "view",
      "type": "function"
    },
    {
      "inputs": [
        {
          "internalType": "uint16",
          "name": "_hours",
          "type": "uint16"
        },
        {
          "internalType": "uint256",
          "name": "timestamp",
          "type": "uint256"
        }
      ],
      "name": "getTotalWithdraw",
      "outputs": [
        {
          "internalType": "uint256",
          "name": "",
          "type": "uint256"
        }
      ],
      "stateMutability": "view",
      "type": "function"
    },
    {
      "inputs": [
        {
          "internalType": "uint16",
          "name": "_hours",
          "type": "uint16"
        },
        {
          "internalType": "uint256",
          "name": "timestamp",
          "type": "uint256"
        },
        {
          "internalType": "address",
          "name": "user",
          "type": "address"
        }
      ],
      "name": "getUserTotalWithdraw",
      "outputs": [
        {
          "internalType": "uint256",
          "name": "",
          "type": "uint256"
        }
      ],
      "stateMutability": "view",
      "type": "function"
    },
    {
      "inputs": [
        {
          "internalType": "bytes32",
          "name": "role",
          "type": "bytes32"
        },
        {
          "internalType": "address",
          "name": "account",
          "type": "address"
        }
      ],
      "name": "grantRole",
      "outputs": [],
      "stateMutability": "nonpayable",
      "type": "function"
    },
    {
      "inputs": [
        {
          "internalType": "bytes32",
          "name": "role",
          "type": "bytes32"
        },
        {
          "internalType": "address",
          "name": "account",
          "type": "address"
        }
      ],
      "name": "hasRole",
      "outputs": [
        {
          "internalType": "bool",
          "name": "",
          "type": "bool"
        }
      ],
      "stateMutability": "view",
      "type": "function"
    },
    {
      "inputs": [
        {
          "internalType": "uint256",
          "name": "",
          "type": "uint256"
        }
      ],
      "name": "hourlyWithdrawals",
      "outputs": [
        {
          "internalType": "uint256",
          "name": "",
          "type": "uint256"
        }
      ],
      "stateMutability": "view",
      "type": "function"
    },
    {
      "inputs": [
        {
          "internalType": "address[]",
          "name": "_matchers",
          "type": "address[]"
        },
        {
          "internalType": "address",
          "name": "_collateral",
          "type": "address"
        },
        {
          "components": [
            {
              "internalType": "uint256",
              "name": "limit",
              "type": "uint256"
            },
            {
              "internalType": "uint256",
              "name": "userLimit",
              "type": "uint256"
            },
            {
              "internalType": "uint16",
              "name": "timeWindow",
              "type": "uint16"
            }
          ],
          "internalType": "struct EHMarketV3.WithdrawLimit[]",
          "name": "_initialWithdrawLimits",
          "type": "tuple[]"
        }
      ],
      "name": "initialize",
      "outputs": [],
      "stateMutability": "nonpayable",
      "type": "function"
    },
    {
      "inputs": [],
      "name": "multisigTest",
      "outputs": [
        {
          "internalType": "uint256",
          "name": "",
          "type": "uint256"
        }
      ],
      "stateMutability": "view",
      "type": "function"
    },
    {
      "inputs": [
        {
          "internalType": "bytes32",
          "name": "role",
          "type": "bytes32"
        },
        {
          "internalType": "address",
          "name": "callerConfirmation",
          "type": "address"
        }
      ],
      "name": "renounceRole",
      "outputs": [],
      "stateMutability": "nonpayable",
      "type": "function"
    },
    {
      "inputs": [
        {
          "internalType": "bytes32",
          "name": "role",
          "type": "bytes32"
        },
        {
          "internalType": "address",
          "name": "account",
          "type": "address"
        }
      ],
      "name": "revokeRole",
      "outputs": [],
      "stateMutability": "nonpayable",
      "type": "function"
    },
    {
      "inputs": [
        {
          "internalType": "address",
          "name": "delegate",
          "type": "address"
        },
        {
          "internalType": "uint256",
          "name": "allowance",
          "type": "uint256"
        }
      ],
      "name": "setDelegate",
      "outputs": [],
      "stateMutability": "nonpayable",
      "type": "function"
    },
    {
      "inputs": [
        {
          "components": [
            {
              "internalType": "uint256",
              "name": "limit",
              "type": "uint256"
            },
            {
              "internalType": "uint256",
              "name": "userLimit",
              "type": "uint256"
            },
            {
              "internalType": "uint16",
              "name": "timeWindow",
              "type": "uint16"
            }
          ],
          "internalType": "struct EHMarketV3.WithdrawLimit[]",
          "name": "_withdrawLimits",
          "type": "tuple[]"
        }
      ],
      "name": "setWithdrawLimits",
      "outputs": [],
      "stateMutability": "nonpayable",
      "type": "function"
    },
    {
      "inputs": [
        {
          "internalType": "bytes4",
          "name": "interfaceId",
          "type": "bytes4"
        }
      ],
      "name": "supportsInterface",
      "outputs": [
        {
          "internalType": "bool",
          "name": "",
          "type": "bool"
        }
      ],
      "stateMutability": "view",
      "type": "function"
    },
    {
      "inputs": [
        {
          "internalType": "uint256",
          "name": "",
          "type": "uint256"
        },
        {
          "internalType": "address",
          "name": "",
          "type": "address"
        }
      ],
      "name": "userHourlyWithdrawals",
      "outputs": [
        {
          "internalType": "uint256",
          "name": "",
          "type": "uint256"
        }
      ],
      "stateMutability": "view",
      "type": "function"
    },
    {
      "inputs": [
        {
          "internalType": "address",
          "name": "from",
          "type": "address"
        },
        {
          "internalType": "uint256",
          "name": "amount",
          "type": "uint256"
        },
        {
          "internalType": "uint256",
          "name": "requestId",
          "type": "uint256"
        }
      ],
      "name": "withdrawAsset",
      "outputs": [],
      "stateMutability": "nonpayable",
      "type": "function"
    },
    {
      "inputs": [
        {
          "internalType": "uint256",
          "name": "",
          "type": "uint256"
        }
      ],
      "name": "withdrawLimits",
      "outputs": [
        {
          "internalType": "uint256",
          "name": "limit",
          "type": "uint256"
        },
        {
          "internalType": "uint256",
          "name": "userLimit",
          "type": "uint256"
        },
        {
          "internalType": "uint16",
          "name": "timeWindow",
          "type": "uint16"
        }
      ],
      "stateMutability": "view",
      "type": "function"
    }
  ],
  "bytecode": "0x6080806040523460d2577ff0c57e16840df040f15088dc2f81fe391c3923bec73e23a9662efc9c229c6a005460ff8160401c1660c1576002600160401b03196001600160401b03821601605c575b604051611b8290816100d88239f35b6001600160401b0319166001600160401b039081177ff0c57e16840df040f15088dc2f81fe391c3923bec73e23a9662efc9c229c6a005581527fc7f505b2f371ae2175ee4913f4499e1f2633a7b5936321eed1cdaeb6115181d290602090a13880604d565b63f92ee8a960e01b60005260046000fd5b600080fdfe608080604052600436101561001357600080fd5b60003560e01c90816301ffc9a714610bbd5750806304f6d23e14610b755780630ce62bf214610b4e57806321ff22d614610b16578063248a9ca314610af85780632f2ff15d14610ac757806330726c1814610aab57806336568abe14610a655780633d3a245914610a2057806382827143146109a75780638aaa6b92146109825780639010d07c1461092e57806391d14854146108d4578063a217fddf146108b8578063a3246ad3146107f6578063b1dab94814610647578063b2194ff51461060c578063ca15c873146105d3578063d1fa1fd0146105b5578063d547741f1461057f578063d6a510d914610528578063d8dfeb45146104ff578063e48da9c7146104d3578063e988a8bb146101b4578063fa2df414146101955763fd6e1a831461013d57600080fd5b34610190576020366003190112610190576004356003548110156101905761016490610d6e565b5080549061ffff6002600183015492015416906040519283526020830152604082015260608180030190f35b600080fd5b34610190576020366003190112610190576101b26004353361106f565b005b346101905760603660031901126101905760043567ffffffffffffffff811161019057366023820112156101905780600401356101f081610cbb565b916101fe6040519384610c99565b8183526024602084019260051b8201019036821161019057602401915b8183106104b3578361022b610c2a565b60443567ffffffffffffffff81116101905761024b903690600401610cd3565b91600080516020611b2d833981519152549260ff8460401c16159367ffffffffffffffff8116801590816104ab575b60011490816104a1575b159081610498575b506104875767ffffffffffffffff198116600117600080516020611b2d833981519152558461045a575b5060ff600080516020611b2d8339815191525460401c1615610449576102db33611644565b610403575b60005b825181101561037f576001906001600160a01b0361030182866110f0565b511661030c816116d2565b610318575b50016102e3565b7fdf91394c13c48ebd5370100f1eb84afe3c6c47a78f9f9f874d5a9ec6afe0ae6b600052600080516020611aad833981519152602052610378907f9fa5f5ebb43f5e5b68dc549bffd347e114a2de1747d0c4e936b58d7d895932ca611968565b5086610311565b600080546001600160a01b0319166001600160a01b038616179055846103a483611237565b6103aa57005b68ff000000000000000019600080516020611b2d8339815191525416600080516020611b2d833981519152557fc7f505b2f371ae2175ee4913f4499e1f2633a7b5936321eed1cdaeb6115181d2602060405160018152a1005b60008052600080516020611aad833981519152602052610443337f615f0f9e84155bea8cc509fe18befeb1baf65611e38a6ba60964480fb29dfd44611968565b506102e0565b631afcd79f60e31b60005260046000fd5b68ffffffffffffffffff19166801000000000000000117600080516020611b2d83398151915255846102b6565b63f92ee8a960e01b60005260046000fd5b9050158661028c565b303b159150610284565b86915061027a565b82356001600160a01b03811681036101905781526020928301920161021b565b346101905760203660031901126101905760043560005260016020526020604060002054604051908152f35b34610190576000366003190112610190576000546040516001600160a01b039091168152602090f35b3461019057604036600319011261019057610541610c40565b60405160243581526001600160a01b039091169033907fe46208ae3c8157621e96e03a67b3fc7b61b734022b04cf097b94dd994dd95b4390602090a3005b34610190576040366003190112610190576101b260043561059e610c2a565b906105b06105ab82610fc7565b611104565b611196565b34610190576000366003190112610190576020600454604051908152f35b3461019057602036600319011261019057600435600052600080516020611aad8339815191526020526020604060002054604051908152f35b346101905760003660031901126101905760206040517fdf91394c13c48ebd5370100f1eb84afe3c6c47a78f9f9f874d5a9ec6afe0ae6b8152f35b3461019057606036600319011261019057610660610c40565b3360009081527f80fc495aaaf8d17e3f0f01e98ecf2de6d37fa891873f4b915ab4b2f9b846a79a6020908152604080832054600080516020611aed833981519152909252909120546024359160ff90811691168180156107ef575b156107de57816107d5575b5061076f575b600160ff1b8114610759576101b29160018060a01b031690817f752cd0c4fe55d95cbe1325ebc6a35e473a741572f01a076425179f2421841bf8604080518460000381526044356020820152a260005460405163a9059cbb60e01b602082015260248101939093526044808401929092529082526001600160a01b0316610754606483610c99565b6118e9565b634e487b7160e01b600052601160045260246000fd5b6107798282611555565b610787610e10420642610daa565b80600052600160205260406000206107a0838254610db7565b90556000526002602052604060002060018060a01b03831660005260205260406000206107ce828254610db7565b90556106cc565b905015836106c6565b636518c33d60e11b60005260046000fd5b50806106bb565b3461019057602036600319011261019057600435600052600080516020611aad83398151915260205260406000206040518060208354918281520190819360005260206000209060005b8181106108a25750505081610856910382610c99565b6040519182916020830190602084525180915260408301919060005b818110610880575050500390f35b82516001600160a01b0316845285945060209384019390920191600101610872565b8254845260209093019260019283019201610840565b3461019057600036600319011261019057602060405160008152f35b34610190576040366003190112610190576108ed610c2a565b600435600052600080516020611b0d83398151915260205260406000209060018060a01b0316600052602052602060ff604060002054166040519015158152f35b3461019057604036600319011261019057600435600052600080516020611aad83398151915260205260206109696024356040600020611950565b905460405160039290921b1c6001600160a01b03168152f35b34610190576040366003190112610190576101b261099e610c40565b6024359061106f565b346101905760203660031901126101905760043567ffffffffffffffff8111610190576109d8903690600401610cd3565b336000908152600080516020611aed833981519152602052604090205460ff1615610a06576101b290611237565b63e2517d3f60e01b60005233600452600060245260446000fd5b3461019057606036600319011261019057610a39610c56565b604435906001600160a01b038216820361019057602091610a5d9160243590610fe8565b604051908152f35b3461019057604036600319011261019057610a7e610c2a565b336001600160a01b03821603610a9a576101b290600435611196565b63334bd91960e11b60005260046000fd5b3461019057600036600319011261019057602060405160148152f35b34610190576040366003190112610190576101b2600435610ae6610c2a565b90610af36105ab82610fc7565b61114e565b34610190576020366003190112610190576020610a5d600435610fc7565b34610190576020366003190112610190576060610b39610b34610c40565b610e74565b90604051928352602083015215156040820152f35b34610190576040366003190112610190576020610a5d610b6c610c56565b60243590610dc4565b3461019057604036600319011261019057610b8e610c2a565b600435600052600260205260406000209060018060a01b03166000526020526020604060002054604051908152f35b34610190576020366003190112610190576004359063ffffffff60e01b821680920361019057602091635a05180f60e01b8114908115610bff575b5015158152f35b637965db0b60e01b811491508115610c19575b5083610bf8565b6301ffc9a760e01b14905083610c12565b602435906001600160a01b038216820361019057565b600435906001600160a01b038216820361019057565b6004359061ffff8216820361019057565b6060810190811067ffffffffffffffff821117610c8357604052565b634e487b7160e01b600052604160045260246000fd5b90601f8019910116810190811067ffffffffffffffff821117610c8357604052565b67ffffffffffffffff8111610c835760051b60200190565b81601f8201121561019057803590610cea82610cbb565b92610cf86040519485610c99565b8284526020606081860194028301019181831161019057602001925b828410610d22575050505090565b6060848303126101905760405190610d3982610c67565b843582526020850135602083015260408501359061ffff82168203610190578260209260406060950152815201930192610d14565b600354811015610d9457600360008181529102600080516020611acd8339815191520191565b634e487b7160e01b600052603260045260246000fd5b9190820391821161075957565b9190820180921161075957565b610dd5600092610e10810690610daa565b82915b61ffff81168310610de95750505090565b909192610e10840290848204610e10148515171561075957610e27600191610e1461ffff9487610daa565b6000528260205260406000205490610db7565b940192919050610dd8565b90604051610e3f81610c67565b604061ffff600283958054855260018101546020860152015416910152565b9061ffff8091169116039061ffff821161075957565b60001991826000926003548015610fb7576000809260009060005b848110610ea157505050505050929190565b610eb3610ead82610d6e565b50610e32565b9261ffff811680610e100290610e108204036107595761ffff97610eff858a94610f05610ef4610ee6610f0b9742610daa565b9260408c019e8f5116610e5e565b9a610eff838d610dc4565b90610db7565b99610fe8565b9651169280519081861015610fa257602001908151881015610f8d5787610f3587610f3c93610daa565b9251610daa565b9080821015610f695750878110610f59575b506001905b01610e8f565b9099506001985095508888610f4e565b9050878110610f7c575b50600190610f53565b909950600098509550886001610f73565b50509850505050505050905060009190600190565b50509850505050505050905060009190600090565b5090935060001992506000919050565b600052600080516020611b0d83398151915260205260016040600020015490565b9091610ffb600093610e10810690610daa565b9183925b61ffff82168410611011575050505090565b90919293610e10850290858204610e1014861517156107595761106360019161103d61ffff9486610daa565b6000526002602052604080600020600090858060a01b038a168252602052205490610db7565b95019392919050610fff565b60408051838152600060208201526110ee93926001600160a01b0316917f752cd0c4fe55d95cbe1325ebc6a35e473a741572f01a076425179f2421841bf891a26000546040516323b872dd60e01b60208201523360248201523060448201526064808201939093529182526001600160a01b0316610754608483610c99565b565b8051821015610d945760209160051b010190565b6000818152600080516020611b0d8339815191526020908152604080832033845290915290205460ff16156111365750565b63e2517d3f60e01b6000523360045260245260446000fd5b61115882826117a0565b918261116357505090565b6000918252600080516020611aad8339815191526020526040909120611192916001600160a01b031690611968565b5090565b6111a08282611849565b91826111ab57505090565b6000918252600080516020611aad8339815191526020526040909120611192916001600160a01b0316906119d9565b60406020820191602081526003548093520190600360005260206000209060005b8181106112085750505090565b825484526001808401546020860152600284015461ffff166040860152606090940193600390930192016111fb565b906014825111611544576003546000600355806114f5575b508151156114c557815115610d945760208201908151805190811580156114b9575b80156114a9575b801561149c575b61147357505060015b83518110156113685761129b81856110f0565b5180516000198301908382119081610759576112b783896110f0565b51511091821592611346575b821561131a575b5050801561130c575b6112e05750600101611288565b80519061ffff6040602083015192015116916338af09bb60e11b60005260045260245260445260646000fd5b5080516020820151116112d3565b604084015161ffff1692509061075957604061133961ffff92896110f0565b51015116101538806112ca565b9150506020820151600090602061135d848a6110f0565b5101511015916112c3565b50915190600160401b8211610c835760035482600355808310611415575b506003600052600080516020611acd8339815191526000915b8383106113dd57505050507fb4f7fb15a3f27bb72f7ec353d6513cc033ba11934e1b4b9bdb7c020fc81c1628604051806113d8816111da565b0390a1565b60036020826001935180518655828101518587015561ffff6040600288019201511661ffff198254161790550192019201919061139f565b806003029060038204036107595782600302600381048403610759576003600052600080516020611acd83398151915291820191015b8181106114585750611386565b6003906000815560006001820155600060028201550161144b565b61ffff6040602083015192015116916338af09bb60e11b60005260045260245260445260646000fd5b506020810151821061127f565b5061ffff60408201511615611278565b50602081015115611271565b90507fb4f7fb15a3f27bb72f7ec353d6513cc033ba11934e1b4b9bdb7c020fc81c1628604051806113d8816111da565b806003029060038204036107595760036000908152600080516020611acd833981519152918201915b82811061152c57505061124f565b6003908281558260018201558260028201550161151e565b631025599160e01b60005260046000fd5b60035491821561163f576000908180805b8681106115765750505050505050565b611582610ead82610d6e565b9461ffff831680610e100290610e108204036107595761ffff91610eff876115ad6115d29442610daa565b6115cc6115c160408d0199888b5116610e5e565b99610eff838c610dc4565b98610fe8565b925116946115e08785610db7565b8151106116225760206115f38885610db7565b9101511061160657600101939093611566565b8582631e2315fb60e11b60005260045260245260445260646000fd5b50858363c8b1a34f60e01b60005260045260245260445260646000fd5b505050565b6001600160a01b0381166000908152600080516020611aed833981519152602052604090205460ff166116cc576001600160a01b03166000818152600080516020611aed83398151915260205260408120805460ff191660011790553391907f2f8788117e7eff1d82e926ec794901d17c78024a50270940304540a733656f0d8180a4600190565b50600090565b6001600160a01b03811660009081527f80fc495aaaf8d17e3f0f01e98ecf2de6d37fa891873f4b915ab4b2f9b846a79a602052604090205460ff166116cc576001600160a01b031660008181527f80fc495aaaf8d17e3f0f01e98ecf2de6d37fa891873f4b915ab4b2f9b846a79a60205260408120805460ff191660011790553391907fdf91394c13c48ebd5370100f1eb84afe3c6c47a78f9f9f874d5a9ec6afe0ae6b907f2f8788117e7eff1d82e926ec794901d17c78024a50270940304540a733656f0d9080a4600190565b6000818152600080516020611b0d833981519152602090815260408083206001600160a01b038616845290915290205460ff16611842576000818152600080516020611b0d833981519152602090815260408083206001600160a01b0395909516808452949091528120805460ff19166001179055339291907f2f8788117e7eff1d82e926ec794901d17c78024a50270940304540a733656f0d9080a4600190565b5050600090565b6000818152600080516020611b0d833981519152602090815260408083206001600160a01b038616845290915290205460ff1615611842576000818152600080516020611b0d833981519152602090815260408083206001600160a01b0395909516808452949091528120805460ff19169055339291907ff6391f5c32d9c69d2a47ea670b442974b53935d1edc7fd64eb21e047a839171b9080a4600190565b906000602091828151910182855af115611944576000513d61193b57506001600160a01b0381163b155b61191a5750565b635274afe760e01b60009081526001600160a01b0391909116600452602490fd5b60011415611913565b6040513d6000823e3d90fd5b8054821015610d945760005260206000200190600090565b60018101908260005281602052604060002054156000146119d1578054600160401b811015610c83576119bc6119a5826001879401855584611950565b819391549060031b91821b91600019901b19161790565b90555491600052602052604060002055600190565b505050600090565b9060018201918160005282602052604060002054801515600014611aa357600019810181811161075957825460001981019190821161075957818103611a6c575b50505080548015611a56576000190190611a348282611950565b8154906000199060031b1b191690555560005260205260006040812055600190565b634e487b7160e01b600052603160045260246000fd5b611a8c611a7c6119a59386611950565b90549060031b1c92839286611950565b905560005283602052604060002055388080611a1a565b5050505060009056fec1f6fe24621ce81ec5827caf0253cadb74709b061630e6b55e82371705932000c2575a0e9e593c00f959f8c92f12db2869c3395a3b0502d05e2516446f71f85bb7db2dd08fcb62d0c9e08c51941cae53c267786a0b75803fb7960902fc8ef97d02dd7bc7dec4dceedda775e58dd541e08a116c6c53815c0bd028192f7b626800f0c57e16840df040f15088dc2f81fe391c3923bec73e23a9662efc9c229c6a00a2646970667358221220984e838f68763a9df22e03450a30a5c329a9cf015f08acd78dc9e6f370c76df064736f6c634300081a0033",
  "linkReferences": {},
  "deployedLinkReferences": {}
}