{
  "_format": "hh-sol-artifact-1",
  "contractName": "EHMarketV1",
  "sourceName": "contracts/EHMarketV1.sol",
  "abi": [
    {
      "inputs": [],
      "stateMutability": "nonpayable",
      "type": "constructor"
    },
    {
      "inputs": [],
      "name": "AccessControlBadConfirmation",
      "type": "error"
    },
    {
      "inputs": [
        {
          "internalType": "address",
          "name": "account",
          "type": "address"
        },
        {
          "internalType": "bytes32",
          "name": "neededRole",
          "type": "bytes32"
        }
      ],
      "name": "AccessControlUnauthorizedAccount",
      "type": "error"
    },
    {
      "inputs": [],
      "name": "InvalidInitialization",
      "type": "error"
    },
    {
      "inputs": [],
      "name": "NotInitializing",
      "type": "error"
    },
    {
      "inputs": [
        {
          "internalType": "address",
          "name": "token",
          "type": "address"
        }
      ],
      "name": "SafeERC20FailedOperation",
      "type": "error"
    },
    {
      "inputs": [],
      "name": "UnauthorizedSigner",
      "type": "error"
    },
    {
      "anonymous": false,
      "inputs": [
        {
          "indexed": true,
          "internalType": "address",
          "name": "delegator",
          "type": "address"
        },
        {
          "indexed": true,
          "internalType": "address",
          "name": "delegate",
          "type": "address"
        },
        {
          "indexed": false,
          "internalType": "uint256",
          "name": "allowance",
          "type": "uint256"
        }
      ],
      "name": "DelegateUpdated",
      "type": "event"
    },
    {
      "anonymous": false,
      "inputs": [
        {
          "indexed": false,
          "internalType": "uint64",
          "name": "version",
          "type": "uint64"
        }
      ],
      "name": "Initialized",
      "type": "event"
    },
    {
      "anonymous": false,
      "inputs": [
        {
          "indexed": true,
          "internalType": "bytes32",
          "name": "role",
          "type": "bytes32"
        },
        {
          "indexed": true,
          "internalType": "bytes32",
          "name": "previousAdminRole",
          "type": "bytes32"
        },
        {
          "indexed": true,
          "internalType": "bytes32",
          "name": "newAdminRole",
          "type": "bytes32"
        }
      ],
      "name": "RoleAdminChanged",
      "type": "event"
    },
    {
      "anonymous": false,
      "inputs": [
        {
          "indexed": true,
          "internalType": "bytes32",
          "name": "role",
          "type": "bytes32"
        },
        {
          "indexed": true,
          "internalType": "address",
          "name": "account",
          "type": "address"
        },
        {
          "indexed": true,
          "internalType": "address",
          "name": "sender",
          "type": "address"
        }
      ],
      "name": "RoleGranted",
      "type": "event"
    },
    {
      "anonymous": false,
      "inputs": [
        {
          "indexed": true,
          "internalType": "bytes32",
          "name": "role",
          "type": "bytes32"
        },
        {
          "indexed": true,
          "internalType": "address",
          "name": "account",
          "type": "address"
        },
        {
          "indexed": true,
          "internalType": "address",
          "name": "sender",
          "type": "address"
        }
      ],
      "name": "RoleRevoked",
      "type": "event"
    },
    {
      "anonymous": false,
      "inputs": [
        {
          "indexed": true,
          "internalType": "address",
          "name": "account",
          "type": "address"
        },
        {
          "indexed": false,
          "internalType": "int256",
          "name": "amount",
          "type": "int256"
        },
        {
          "indexed": false,
          "internalType": "uint256",
          "name": "requestId",
          "type": "uint256"
        }
      ],
      "name": "UserBalanceChanged",
      "type": "event"
    },
    {
      "inputs": [],
      "name": "DEFAULT_ADMIN_ROLE",
      "outputs": [
        {
          "internalType": "bytes32",
          "name": "",
          "type": "bytes32"
        }
      ],
      "stateMutability": "view",
      "type": "function"
    },
    {
      "inputs": [],
      "name": "MATCHER_ROLE",
      "outputs": [
        {
          "internalType": "bytes32",
          "name": "",
          "type": "bytes32"
        }
      ],
      "stateMutability": "view",
      "type": "function"
    },
    {
      "inputs": [],
      "name": "collateral",
      "outputs": [
        {
          "internalType": "address",
          "name": "",
          "type": "address"
        }
      ],
      "stateMutability": "view",
      "type": "function"
    },
    {
      "inputs": [
        {
          "internalType": "uint256",
          "name": "amount",
          "type": "uint256"
        }
      ],
      "name": "depositAsset",
      "outputs": [],
      "stateMutability": "nonpayable",
      "type": "function"
    },
    {
      "inputs": [
        {
          "internalType": "address",
          "name": "to",
          "type": "address"
        },
        {
          "internalType": "uint256",
          "name": "amount",
          "type": "uint256"
        }
      ],
      "name": "depositAssetTo",
      "outputs": [],
      "stateMutability": "nonpayable",
      "type": "function"
    },
    {
      "inputs": [
        {
          "internalType": "bytes32",
          "name": "role",
          "type": "bytes32"
        }
      ],
      "name": "getRoleAdmin",
      "outputs": [
        {
          "internalType": "bytes32",
          "name": "",
          "type": "bytes32"
        }
      ],
      "stateMutability": "view",
      "type": "function"
    },
    {
      "inputs": [
        {
          "internalType": "bytes32",
          "name": "role",
          "type": "bytes32"
        },
        {
          "internalType": "uint256",
          "name": "index",
          "type": "uint256"
        }
      ],
      "name": "getRoleMember",
      "outputs": [
        {
          "internalType": "address",
          "name": "",
          "type": "address"
        }
      ],
      "stateMutability": "view",
      "type": "function"
    },
    {
      "inputs": [
        {
          "internalType": "bytes32",
          "name": "role",
          "type": "bytes32"
        }
      ],
      "name": "getRoleMemberCount",
      "outputs": [
        {
          "internalType": "uint256",
          "name": "",
          "type": "uint256"
        }
      ],
      "stateMutability": "view",
      "type": "function"
    },
    {
      "inputs": [
        {
          "internalType": "bytes32",
          "name": "role",
          "type": "bytes32"
        }
      ],
      "name": "getRoleMembers",
      "outputs": [
        {
          "internalType": "address[]",
          "name": "",
          "type": "address[]"
        }
      ],
      "stateMutability": "view",
      "type": "function"
    },
    {
      "inputs": [
        {
          "internalType": "bytes32",
          "name": "role",
          "type": "bytes32"
        },
        {
          "internalType": "address",
          "name": "account",
          "type": "address"
        }
      ],
      "name": "grantRole",
      "outputs": [],
      "stateMutability": "nonpayable",
      "type": "function"
    },
    {
      "inputs": [
        {
          "internalType": "bytes32",
          "name": "role",
          "type": "bytes32"
        },
        {
          "internalType": "address",
          "name": "account",
          "type": "address"
        }
      ],
      "name": "hasRole",
      "outputs": [
        {
          "internalType": "bool",
          "name": "",
          "type": "bool"
        }
      ],
      "stateMutability": "view",
      "type": "function"
    },
    {
      "inputs": [
        {
          "internalType": "address[]",
          "name": "_matchers",
          "type": "address[]"
        },
        {
          "internalType": "address",
          "name": "_collateral",
          "type": "address"
        }
      ],
      "name": "initialize",
      "outputs": [],
      "stateMutability": "nonpayable",
      "type": "function"
    },
    {
      "inputs": [
        {
          "internalType": "bytes32",
          "name": "role",
          "type": "bytes32"
        },
        {
          "internalType": "address",
          "name": "callerConfirmation",
          "type": "address"
        }
      ],
      "name": "renounceRole",
      "outputs": [],
      "stateMutability": "nonpayable",
      "type": "function"
    },
    {
      "inputs": [
        {
          "internalType": "bytes32",
          "name": "role",
          "type": "bytes32"
        },
        {
          "internalType": "address",
          "name": "account",
          "type": "address"
        }
      ],
      "name": "revokeRole",
      "outputs": [],
      "stateMutability": "nonpayable",
      "type": "function"
    },
    {
      "inputs": [
        {
          "internalType": "address",
          "name": "delegate",
          "type": "address"
        },
        {
          "internalType": "uint256",
          "name": "allowance",
          "type": "uint256"
        }
      ],
      "name": "setDelegate",
      "outputs": [],
      "stateMutability": "nonpayable",
      "type": "function"
    },
    {
      "inputs": [
        {
          "internalType": "bytes4",
          "name": "interfaceId",
          "type": "bytes4"
        }
      ],
      "name": "supportsInterface",
      "outputs": [
        {
          "internalType": "bool",
          "name": "",
          "type": "bool"
        }
      ],
      "stateMutability": "view",
      "type": "function"
    },
    {
      "inputs": [
        {
          "internalType": "address",
          "name": "from",
          "type": "address"
        },
        {
          "internalType": "uint256",
          "name": "amount",
          "type": "uint256"
        },
        {
          "internalType": "uint256",
          "name": "requestId",
          "type": "uint256"
        }
      ],
      "name": "withdrawAsset",
      "outputs": [],
      "stateMutability": "nonpayable",
      "type": "function"
    }
  ],
  "bytecode": "0x6080806040523460d2577ff0c57e16840df040f15088dc2f81fe391c3923bec73e23a9662efc9c229c6a005460ff8160401c1660c1576002600160401b03196001600160401b03821601605c575b604051610ff190816100d88239f35b6001600160401b0319166001600160401b039081177ff0c57e16840df040f15088dc2f81fe391c3923bec73e23a9662efc9c229c6a005581527fc7f505b2f371ae2175ee4913f4499e1f2633a7b5936321eed1cdaeb6115181d290602090a13880604d565b63f92ee8a960e01b60005260046000fd5b600080fdfe608080604052600436101561001357600080fd5b60003560e01c90816301ffc9a71461088157508063248a9ca31461085b5780632f2ff15d1461082a57806336568abe146107e4578063462d0b2e146104e15780638aaa6b92146104bc5780639010d07c1461046857806391d148541461040e578063a217fddf146103f2578063a3246ad314610330578063b1dab94814610228578063b2194ff5146101ed578063ca15c873146101b4578063d547741f1461017e578063d6a510d914610127578063d8dfeb45146100fe5763fa2df414146100da57600080fd5b346100f95760203660031901126100f9576100f76004353361095d565b005b600080fd5b346100f95760003660031901126100f9576000546040516001600160a01b039091168152602090f35b346100f95760403660031901126100f957610140610904565b60405160243581526001600160a01b039091169033907fe46208ae3c8157621e96e03a67b3fc7b61b734022b04cf097b94dd994dd95b4390602090a3005b346100f95760403660031901126100f9576100f760043561019d6108ee565b906101af6101aa8261093c565b6109de565b610a70565b346100f95760203660031901126100f957600435600052600080516020610f5c8339815191526020526020604060002054604051908152f35b346100f95760003660031901126100f95760206040517fdf91394c13c48ebd5370100f1eb84afe3c6c47a78f9f9f874d5a9ec6afe0ae6b8152f35b346100f95760603660031901126100f957610241610904565b3360009081527f80fc495aaaf8d17e3f0f01e98ecf2de6d37fa891873f4b915ab4b2f9b846a79a60205260409020546024359060ff161561031f57600160ff1b8114610309576100f79160018060a01b031690817f752cd0c4fe55d95cbe1325ebc6a35e473a741572f01a076425179f2421841bf8604080518460000381526044356020820152a260005460405163a9059cbb60e01b602082015260248101939093526044808401929092529082526001600160a01b031661030460648361091a565b610d7d565b634e487b7160e01b600052601160045260246000fd5b636518c33d60e11b60005260046000fd5b346100f95760203660031901126100f957600435600052600080516020610f5c83398151915260205260406000206040518060208354918281520190819360005260206000209060005b8181106103dc575050508161039091038261091a565b6040519182916020830190602084525180915260408301919060005b8181106103ba575050500390f35b82516001600160a01b03168452859450602093840193909201916001016103ac565b825484526020909301926001928301920161037a565b346100f95760003660031901126100f957602060405160008152f35b346100f95760403660031901126100f9576104276108ee565b600435600052600080516020610f7c83398151915260205260406000209060018060a01b0316600052602052602060ff604060002054166040519015158152f35b346100f95760403660031901126100f957600435600052600080516020610f5c83398151915260205260206104a36024356040600020610de4565b905460405160039290921b1c6001600160a01b03168152f35b346100f95760403660031901126100f9576100f76104d8610904565b6024359061095d565b346100f95760403660031901126100f95760043567ffffffffffffffff81116100f957366023820112156100f95780600401359067ffffffffffffffff82116107ce578160051b906040519261053a602084018561091a565b835260246020840192820101903682116100f957602401915b8183106107ae57836105636108ee565b600080516020610f9c833981519152549160ff8360401c16159267ffffffffffffffff8116801590816107a6575b600114908161079c575b159081610793575b506107825767ffffffffffffffff198116600117600080516020610f9c8339815191525583610755575b5060ff600080516020610f9c8339815191525460401c1615610744576105f233610ab4565b6106fe575b60005b815181101561067d57600581901b820160200151600191906000906001600160a01b031661062781610b66565b610634575b5050016105fa565b6040827fdf91394c13c48ebd5370100f1eb84afe3c6c47a78f9f9f874d5a9ec6afe0ae6b6106759452600080516020610f5c83398151915260205220610e12565b50858061062c565b505060018060a01b03166bffffffffffffffffffffffff60a01b60005416176000556106a557005b68ff000000000000000019600080516020610f9c8339815191525416600080516020610f9c833981519152557fc7f505b2f371ae2175ee4913f4499e1f2633a7b5936321eed1cdaeb6115181d2602060405160018152a1005b60008052600080516020610f5c83398151915260205261073e337f615f0f9e84155bea8cc509fe18befeb1baf65611e38a6ba60964480fb29dfd44610e12565b506105f7565b631afcd79f60e31b60005260046000fd5b68ffffffffffffffffff19166801000000000000000117600080516020610f9c83398151915255836105cd565b63f92ee8a960e01b60005260046000fd5b905015856105a3565b303b15915061059b565b859150610591565b82356001600160a01b03811681036100f957815260209283019201610553565b634e487b7160e01b600052604160045260246000fd5b346100f95760403660031901126100f9576107fd6108ee565b336001600160a01b03821603610819576100f790600435610a70565b63334bd91960e11b60005260046000fd5b346100f95760403660031901126100f9576100f76004356108496108ee565b906108566101aa8261093c565b610a28565b346100f95760203660031901126100f957602061087960043561093c565b604051908152f35b346100f95760203660031901126100f9576004359063ffffffff60e01b82168092036100f957602091635a05180f60e01b81149081156108c3575b5015158152f35b637965db0b60e01b8114915081156108dd575b50836108bc565b6301ffc9a760e01b149050836108d6565b602435906001600160a01b03821682036100f957565b600435906001600160a01b03821682036100f957565b90601f8019910116810190811067ffffffffffffffff8211176107ce57604052565b600052600080516020610f7c83398151915260205260016040600020015490565b60408051838152600060208201526109dc93926001600160a01b0316917f752cd0c4fe55d95cbe1325ebc6a35e473a741572f01a076425179f2421841bf891a26000546040516323b872dd60e01b60208201523360248201523060448201526064808201939093529182526001600160a01b031661030460848361091a565b565b6000818152600080516020610f7c8339815191526020908152604080832033845290915290205460ff1615610a105750565b63e2517d3f60e01b6000523360045260245260446000fd5b610a328282610c34565b9182610a3d57505090565b6000918252600080516020610f5c8339815191526020526040909120610a6c916001600160a01b031690610e12565b5090565b610a7a8282610cdd565b9182610a8557505090565b6000918252600080516020610f5c8339815191526020526040909120610a6c916001600160a01b031690610e88565b6001600160a01b03811660009081527fb7db2dd08fcb62d0c9e08c51941cae53c267786a0b75803fb7960902fc8ef97d602052604090205460ff16610b60576001600160a01b031660008181527fb7db2dd08fcb62d0c9e08c51941cae53c267786a0b75803fb7960902fc8ef97d60205260408120805460ff191660011790553391907f2f8788117e7eff1d82e926ec794901d17c78024a50270940304540a733656f0d8180a4600190565b50600090565b6001600160a01b03811660009081527f80fc495aaaf8d17e3f0f01e98ecf2de6d37fa891873f4b915ab4b2f9b846a79a602052604090205460ff16610b60576001600160a01b031660008181527f80fc495aaaf8d17e3f0f01e98ecf2de6d37fa891873f4b915ab4b2f9b846a79a60205260408120805460ff191660011790553391907fdf91394c13c48ebd5370100f1eb84afe3c6c47a78f9f9f874d5a9ec6afe0ae6b907f2f8788117e7eff1d82e926ec794901d17c78024a50270940304540a733656f0d9080a4600190565b6000818152600080516020610f7c833981519152602090815260408083206001600160a01b038616845290915290205460ff16610cd6576000818152600080516020610f7c833981519152602090815260408083206001600160a01b0395909516808452949091528120805460ff19166001179055339291907f2f8788117e7eff1d82e926ec794901d17c78024a50270940304540a733656f0d9080a4600190565b5050600090565b6000818152600080516020610f7c833981519152602090815260408083206001600160a01b038616845290915290205460ff1615610cd6576000818152600080516020610f7c833981519152602090815260408083206001600160a01b0395909516808452949091528120805460ff19169055339291907ff6391f5c32d9c69d2a47ea670b442974b53935d1edc7fd64eb21e047a839171b9080a4600190565b906000602091828151910182855af115610dd8576000513d610dcf57506001600160a01b0381163b155b610dae5750565b635274afe760e01b60009081526001600160a01b0391909116600452602490fd5b60011415610da7565b6040513d6000823e3d90fd5b8054821015610dfc5760005260206000200190600090565b634e487b7160e01b600052603260045260246000fd5b6001810190826000528160205260406000205415600014610e80578054680100000000000000008110156107ce57610e6b610e54826001879401855584610de4565b819391549060031b91821b91600019901b19161790565b90555491600052602052604060002055600190565b505050600090565b9060018201918160005282602052604060002054801515600014610f5257600019810181811161030957825460001981019190821161030957818103610f1b575b50505080548015610f05576000190190610ee38282610de4565b8154906000199060031b1b191690555560005260205260006040812055600190565b634e487b7160e01b600052603160045260246000fd5b610f3b610f2b610e549386610de4565b90549060031b1c92839286610de4565b905560005283602052604060002055388080610ec9565b5050505060009056fec1f6fe24621ce81ec5827caf0253cadb74709b061630e6b55e8237170593200002dd7bc7dec4dceedda775e58dd541e08a116c6c53815c0bd028192f7b626800f0c57e16840df040f15088dc2f81fe391c3923bec73e23a9662efc9c229c6a00a26469706673582212205def6717a5c9619ade24a5492f46facab6a93b1090012a8765d6797f67482fe464736f6c634300081a0033",
  "linkReferences": {},
  "deployedLinkReferences": {}
}